:020000040800F2
:10000000780C00207902000885600008CD450008C2
:100010007D590008D10700088D7400080000000019
:10002000000000000000000000000000F364000871
:10003000BF08000800000000F1640008A567000880
:10004000930200089302000893020008930200083C
:10005000930200089302000893020008930200082C
:10006000930200089302000893020008D5070008D5
:10007000E1070008ED070008F90700080508000877
:1000800093020008000000007D05000893020008AC
:1000900093020008930200089302000893020008EC
:1000A00093020008930200089302000893020008DC
:1000B00021680008930200089302000881460008A6
:1000C0007546000893020008930200089302000896
:1000D000930200089302000881740008930200084C
:1000E000930200089302000893020008930200089C
:1000F0009302000893020008930200080000000029
:1001000000000000930200080000000093020008B5
:100110009302000800000000930200089302000808
:10012000930200089302000893020008930200085B
:100130009302000800000000000000009302000885
:100140009302000893020008000000000000000075
:10015000000000000000000000000000000000009F
:1001600000000000000000000000000093020008F2
:1001700093020008000000000000000000000000E2
:1001800000000000930200080000000000000000D2
:10019000000000000000000000000000000000005F
:1001A0000000000000000000930200089302000815
:1001B0009302000893020008930200080000000068
:1001C0000000000093020008000000000000000092
:1001D000930200089302000800F002F800F03CF8D7
:1001E0000AA090E8000C82448344AAF10107DA4592
:1001F00001D100F031F8AFF2090EBAE80F0013F0A8
:10020000010F18BFFB1A43F0010318478482000056
:10021000A4820000103A24BF78C878C1FAD85207E7
:1002200024BF30C830C144BF04680C607047000070
:100230000023002400250026103A28BF78C1FBD8EF
:10024000520728BF30C148BF0B6070471FB507F089
:1002500046FD1FBD10B510BD00F05AF91146FFF75D
:10026000F5FF07F0DDFC00F078F903B4FFF7F2FFCB
:1002700003BC00F07BF900000948804709480047AB
:10028000FEE7FEE7FEE7FEE7FEE7FEE7FEE7FEE746
:10029000FEE7FEE704480549054A064B70470000A3
:1002A00011680008D901000878060020780C0020A9
:1002B000780800207808002053EA020C00F06980DA
:1002C0002DE9F04B4FF00006002B1FBFB3FA83F56A
:1002D00003FA05F424FA05F65E4012BF1643B2FA9B
:1002E00082F502FA05F4C5F120051EBF22FA05FCCD
:1002F00044EA0C04203556EA044C4FEA144418BF73
:10030000641C4FF000084FF00009904271EB030CA1
:1003100039D3002919BFB1FA81F701FA07F6B0FA0B
:1003200080F700FA07F6C7F120071EBF20FA07FC86
:1003300046EA0C062037B6FBF4FCA7EB0507103F96
:1003400007F01F0BCBF120060CFA0BFB2CFA06F67C
:1003500044BFB3460026202FA4BF5E464FF0000BDB
:100360005BEA060C08BF4FF0010B19EB0B09ABFB66
:10037000027C48EB0608C01B06FB02CC0BFB03CC3F
:1003800071EB0C01C1E70B46024641464846BDE809
:10039000F08B13B54FF000004FF00001AFF3008079
:1003A000BDE81C407047032A40F2308010F0030C77
:1003B00000F0158011F8013BBCF1020F624498BFB8
:1003C00011F801CB00F8013B38BF11F8013BA2F155
:1003D000040298BF00F801CB38BF00F8013B11F0D0
:1003E000030300F02580083AC0F0088051F8043B70
:1003F000083A51F804CBA0E80810F5E7121D5CBFDD
:1004000051F8043B40F8043BAFF30080D20724BF0F
:1004100011F8013B11F801CB48BF11F8012B24BFA3
:1004200000F8013B00F801CB48BF00F8012B7047F2
:1004300010B5203AC0F00B80B1E81850203AA0E87F
:100440001850B1E81850A0E81850BFF4F5AF5FEAB3
:10045000027C24BFB1E81850A0E8185044BF18C966
:1004600018C0BDE810405FEA827C24BF51F8043B0D
:1004700040F8043B08BF7047D20728BF31F8023B61
:1004800048BF11F8012B28BF20F8023B48BF00F8F5
:10049000012B70474FF0000200B513469446964674
:1004A000203922BFA0E80C50A0E80C50B1F1200187
:1004B000BFF4F7AF090728BFA0E80C5048BF0CC035
:1004C0005DF804EB890028BF40F8042B08BF704793
:1004D00048BF20F8022B11F0804F18BF00F8012B05
:1004E000704770477047704710B500F009F8006812
:1004F00010BD10B5044600F003F8046010BD000004
:100500000048704714060020004870471406002079
:100510007546FFF7F9FFAE4605006946534620F0E1
:100520000700854618B020B5FFF7B4FEBDE82040AF
:100530004FF000064FF000074FF000084FF0000B9F
:1005400021F00701AC46ACE8C009ACE8C009ACE852
:10055000C009ACE8C0098D46704710B50446AFF33A
:1005600000802046BDE81040FFF77FBE01491820FB
:10057000ABBEFEE7260002007047000010B504483D
:1005800001F0D8F8BDE81040024801F0D3B80000EF
:1005900038000020A40000202DE9F0410446002787
:1005A0000D46006804F046FF0646206804F03AFF56
:1005B00030435DD02068C1682E4E890105D5617F2A
:1005C000012902D1217F01290BD0022D1DD02068E5
:1005D00004F030FFB8B120688168C1F3400169B10F
:1005E00011E00125244902E08F4232D27F1C0268CB
:1005F000D2435206F8D440210160E8E781683140D7
:1006000041F010018160012D11D0206804F00AFF33
:1006100048B120688168C1F3400121B98168314047
:1006200041F020018160022D08D0032D04D0042563
:1006300001F0AEFF064617E00C25F9E70825F7E7BD
:1006400001F0A6FF801B05280ED92068806828428B
:100650000AD0E06D40F01000E065206E40F001002F
:1006600020660120BDE8F081206880682842E7D13B
:100670000020F7E7C0FFFF7F000040A370B50446ED
:10068000006881688268C1F3400112F0010F28D030
:1006900039BB816801F00D01012914D18168124A2A
:1006A0001140891C816021680320086001F070FFFF
:1006B000054612E001F06CFF401B02280DD92068AE
:1006C0008068C00709D0E06D40F01000E065206E42
:1006D00040F001002066012070BD20688068C007DE
:1006E000E8D1002070BD0000C0FFFF7FF8B50446D0
:1006F000002000902068816811F0010F41D18168CD
:10070000214A11422ED18168D5432940491C81607C
:100710001E48806800F0E07000020DD51C481D499D
:100720000068B0FBF1F0401C00EB4000800000E0EE
:10073000401E00900028FBD101F02AFF06461BE076
:10074000816811F0010F03D181682940491C816043
:1007500001F01EFF801B02280ED920680068C043EC
:10076000C00709D0E06D40F01000E065206E40F059
:10077000010020660120F8BD20680168C943C9074F
:10078000DED10020F8BD00003F00008000030050D3
:1007900010000020400D03000148808870470000D1
:1007A000140000201CB5084801F0BAFF202809D128
:1007B00002210648CDE9000101230C226C210248E8
:1007C00002F02EF81CBD0000700100201500002072
:1007D000FEE70000014801F0CCBB0000C40100208E
:1007E000014801F0C6BB000010010020014801F0E3
:1007F000C0BB000024020020014801F0BABB000089
:10080000B0030020014801F0B4BB00001004002038
:1008100010B501680E4CCAB21423083AA14203D2A3
:10082000B2FBF3F20B4904E0B2FBF3F209492031C9
:10083000921D436C02F01F0223F0030319448164EC
:1008400004498031C16401219140016510BD00005F
:1008500008040240000802400179084A01F07F01C3
:1008600002EB81024265054A4432491E826501F06D
:100870001F0201219140C16570470000FC08024041
:1008800030B5D0E913456560446D14B1D0E9164523
:10089000656090F8444004F01F050124AC40056CED
:1008A0006C60046863608368102B036803D09960F0
:1008B0000068C26030BD9A600068C16030BD70479A
:1008C00072B6FEE7F8B500260446009690F8580088
:1008D0000D4601280BD0012084F858002046FFF770
:1008E000CDFE0100E06D04D040F010002AE00220AF
:1008F000F8BD20F4885040F00200E065206882686E
:10090000134B1A4005F080431A4342F000428260C4
:10091000104A20680EE0009B5B1C0093934209D3B1
:10092000E06D20F0020040F01000E06584F85860AF
:100930000120F8BD8368DB0FEDD1E06D20F00200EF
:1009400040F00100E06584F858600846F8BD0000FA
:10095000C0FFFF3F02DE0400704700002DE9F84FA2
:100960004FF000080446CDF800800D4694F858205A
:10097000DFF8EC93616947464046012A0AD0012618
:10098000F84A84F8586041B1296A012905D0A36E5C
:10099000EBB129E00220BDE8F88F6868092838D15A
:1009A000A96A4FF4785041B12B6801F07C0100EA4C
:1009B00053400843E96A084302E0296800EA5140CD
:1009C0002168CB6C13400343CB64606621E0C4E92B
:1009D0001971A96A286A31B101F07C01401E0843EF
:1009E000E96A084300E0401E29682B79C1F384615D
:1009F00003F01F0399400143A06E401EA066636E82
:100A000043EA0103636604D12068C16C11401943B5
:100A1000C164206804F00AFD58B995F8250098B122
:100A20002068C16895F8262021F4401141EA42511E
:100A3000C160206804F002FD8246206804F0F6FCE4
:100A40005AEA00000DD0FBE095F8260095F8241036
:100A5000400540EA01512068C26822F44012114367
:100A6000E6E7A86A30B1E86A20B195F825000128C8
:100A70005ED003E095F82500012804D02068C16805
:100A800021F0007103E02068C16841F00071C1608D
:100A900095F83000012852D02068016921F0020148
:100AA0000161AA6829682068B2F1004F38D004F0CB
:100AB000E0FC2068416921F00041416120686969DA
:100AC000C268C2F3C102520091402A69042A44D08C
:100AD00000EB82002B68026EDFF88CC203F0F84353
:100AE00002EA0C020B431A4342F0004101662068FF
:100AF0002A69A96900EB8200026E22F080720A4323
:100B00000266297F22682869012923D05FF000014D
:100B100002EB8000026E22F000720A4302668FE050
:100B2000002204F0A6FC2068416941F00041C4E7BE
:100B3000E06D40F02000E0654FF00108A8E7D5E93E
:100B40000D1001432068026922F4FF7242F0020294
:100B50001143A5E74FF00071DAE7002104F05CFCD7
:100B6000400320684FF0000172D004F055FC90FA69
:100B7000A0F0B0FA80F1286842036ED090FAA0F09D
:100B8000B0FA80F0814204D100221146206804F0BE
:100B900087FC0121206804F03FFC400320684FF0EF
:100BA00001015DD004F038FC90FAA0F0B0FA80F1B9
:100BB0002868420359D090FAA0F0B0FA80F0814240
:100BC00004D100220121206804F06AFC022120687F
:100BD00004F022FC400320684FF0020148D004F0EA
:100BE0001BFC90FAA0F0B0FA80F12868420344D0D0
:100BF00090FAA0F0B0FA80F0814204D100220221E4
:100C0000206804F04DFC0321206804F005FC40033B
:100C100020684FF0030133D004F0FEFB90FAA0F0FF
:100C2000B0FA80F1286842032FD090FAA0F0B0FA11
:100C300080F0814204D100220321206804F030FCBE
:100C40002068816811F0010F22D0B6E000E004E0D6
:100C500004F0E2FBC0F384618DE7C0F3846091E7A8
:100C600004F0DAFBC0F38461A2E7C0F38460A6E776
:100C700004F0D2FBC0F38461B7E7C0F38460BBE744
:100C800004F0CAFBC0F38461CCE7C0F38460D0E712
:100C90002A7B296850F8B03FC1F3120C23EA0C03F9
:100CA00002F0180C314A22FA0CF20A401343036096
:100CB000E96849457ED1286841031CD090FAA0F12B
:100CC000B1FA81F1491C01F01F0109294FEA4031B5
:100CD00032D8002912D000BF90FAA0F1B1FA81F108
:100CE00001F1010101F01F0106FA01F609D100BF6F
:100CF000C0F3846109E0C0F38461E3E7C0F3846179
:100D0000EEE790FAA0F1B1FA81F101F1010101F0F1
:100D10001F0146EA816102D1C0F3846003E090FACA
:100D2000A0F0B0FA80F000F1010000F01F0000EB2D
:100D3000400041EA00513AE000290ED090FAA0F1BB
:100D4000B1FA81F101F1010101F01F0106FA01F68A
:100D50000ED100BFC0F384610EE0C0F38461F1E7FF
:100D600000007F400040100400F0FF03FFFF070079
:100D700090FAA0F1B1FA81F101F1010101F01F0136
:100D800046EA816102D1C0F3846003E090FAA0F0EA
:100D9000B0FA80F000F1010000F01F002B4A00EBD8
:100DA000400002EB005041EA000141F00071AA68E6
:100DB000206800E001E004F05CFB25482A6802425C
:100DC00040D024488168244B01F0E0719A4202D05F
:100DD000224B9A421BD10B0219D42268B2F1A04FC8
:100DE00030D1826841F4000122F0E0720A4382604F
:100DF0001B481C490068B0FBF1F0801C00EB400070
:100E0000800000E0401E00900028FBD11AE0164D43
:100E1000164BAA4207D1CD0105D422689A4211D0BF
:100E200041F0807109E0124DAA420BD14A0209D467
:100E300022689A4206D041F48001826822F0E07272
:100E40000A43826084F858704046A4E5000020FE02
:100E50000000088000030050000021C31000C09073
:100E600010000020400D0300000052C70001005098
:100E7000000084CB0A4910B588420FD109210848E7
:100E800000F010F884B240F20F11054800F00AF8A3
:100E900081B22046BDE8104004F098BE10BD0000AD
:100EA000380000200068A1F580710F390ED0B1F52F
:100EB000837F08D0B1F5037F02D0D0F8800070475F
:100EC000D0F88C007047D0F888007047D0F88400C4
:100ED000704700002DE9F041044639480F4680680C
:100EE00000F01F06A069082804D0202501F050FB5F
:100EF000804618E04025F9E7781C14D001F048FB43
:100F0000A0EB0800B84200D86FB9206800682842FA
:100F100009D1E06D40F00400E065002084F858003D
:100F20000320BDE8F081206800682842E4D02168F1
:100F3000C86C10F4C07F0CD00022C86810F4406F59
:100F400009D000231F4F4FF0A040B94205D184467D
:100F500004E00122F1E70123F4E78C468C450ED032
:100F60006EB1062E0BD0072E09D0B94200D008462C
:100F7000C068E66D46F40056E6653AB901E0C86817
:100F8000F7E7820112D48BB182040FD40A685206AB
:100F90000CD582020AD4E26D22F48052E265E26D41
:100FA000D20503D4E26D42F00102E265402D01D08A
:100FB000202002E0400401D4602008600020B0E757
:100FC0000003005000010050704700002DE9F0417F
:100FD00004463548806800F01F05206804F026FAB2
:100FE00008BB2168C868C96C00F0004011F4C07FDC
:100FF00000D190B194F85800012814D0012084F851
:1010000058002046FFF772FB02004FF000030CD09F
:1010100084F858301046BDE8F081E06D40F02000C3
:10102000E0650120F7E70220F5E7E06DC00504D593
:10103000206E20F00800206600E02366E06D42F29A
:101040000101884340F48050E065184F21684FF05B
:10105000A046B94201D1304600E00846884200D09F
:101060001DB9E06D20F48010E0656020086084F810
:1010700058302068B84200D00646864209D045B1B3
:10108000062D06D0072D04D0E06D40F48010E065F9
:10109000C0E7C16811F0007FBCD18168044B1940E2
:1010A00041F008018160B5E70003005000010050E5
:1010B000C0FFFF7F2DE9F04104464548806800F0FD
:1010C0001F05206804F0B2F908BB2168C868C96C24
:1010D00000F0004011F4C07F00D190B194F85800A6
:1010E000012814D0012084F858002046FFF7FEFAAA
:1010F00001004FF000020CD084F858200846BDE8EB
:10110000F081E06D40F02000E0650120F7E702206B
:10111000F5E7E06DC00504D5206E20F008002066DC
:1011200000E02266E06D42F20103984340F48050F3
:10113000E065284B20684FF0A046984201D1374621
:1011400000E00746874200D01DB9E76D27F48017FD
:10115000E7656027076084F858202068C26892021B
:1011600003D5426842F480624260A0690828206882
:10117000426807D022F0400242602068426842F094
:10118000200206E022F0200242602068426842F01D
:10119000400242602068984201D1324600E0024697
:1011A000824209D045B1062D06D0072D04D0E06D4E
:1011B00040F48010E065A1E7C26812F0007F9DD185
:1011C0008268054B1A4042F00802826096E70000F0
:1011D0000003005000010050C0FFFF7F70B50446BF
:1011E00090F85800012809D0012084F85800022105
:1011F0002046FFF7D1F9050002D014E0022070BDAF
:10120000206804F01BF918B1E06D20F4805009E06B
:101210002046FFF733FA050005D1E06D20F4885031
:1012200040F00100E065002084F85800284670BDB9
:10123000704770472DE9F047044690F858009CB07D
:101240000E464FF00009012815D0012084F85800FF
:1012500000251795189520684FF0A04840450ED1FD
:10126000284F0097384604F0E9F88246206804F0D9
:10127000E5F860B10EE002201CB0BDE8F087E06D3B
:1012800040F02000E06584F858500120F4E7BAF1FE
:10129000000F09D0E06D40F02000E0654FF001093B
:1012A00084F858504846E7E71748326840F61F71FF
:1012B000002A826822F4604216D094F8383042EA5C
:1012C000433273681A438260D8F80820BB6802F082
:1012D000010203F001031A43E2D1B36832681A43F2
:1012E00083688B431A430BE08260D8F80820BB6800
:1012F00002F0010203F001031A43D1D182688A434C
:101300008260CDE700010050000300502DE9F84F46
:1013100000270446009790F85800DFF8E0930D4648
:10132000B846012811D0012684F85860206804F0DE
:1013300081F860B1E06D40F02000E0655FF00107EA
:1013400084F858803846BDE8F88F0220FBE7D5E9DD
:1013500000210C23206803EA91131844036B01F069
:101360001F014FF01F0C0CFA01FCC2F3846223EA48
:101370000C038A4013430363206804F05BF8824641
:10138000206804F04FF85AEA00003CD1AA682968A6
:101390002068B2F1004F37D004F05CF82068416952
:1013A00021F00041416120686969C268C2F3C1024D
:1013B000520091402A69042A31D000EB82002B6848
:1013C000026EDFF83CC303F0F84302EA0C020B4361
:1013D0001A4342F00041016620682A69A96900EBBE
:1013E0008200026E22F080720A430266297F226820
:1013F0002869012910D0002102EB8000026E22F042
:1014000000720A4302667DE0002204F023F820689F
:10141000416941F00041C5E74FF00071ECE7002160
:1014200003F0F4FF400320684FF0000172D003F096
:10143000EDFF90FAA0F0B0FA80F1286842036ED078
:1014400090FAA0F0B0FA80F0814204D10022114657
:10145000206804F01DF80121206803F0D7FF400345
:1014600020684FF001015DD003F0D0FF90FAA0F0AA
:10147000B0FA80F12868420359D090FAA0F0B0FA8F
:1014800080F0814204D100220121206804F000F89C
:101490000221206803F0BAFF400320684FF00201E8
:1014A00048D003F0B3FF90FAA0F0B0FA80F12868BA
:1014B000420344D090FAA0F0B0FA80F0814204D107
:1014C00000220221206803F0E3FF0321206803F0DB
:1014D0009DFF400320684FF0030133D003F096FFD7
:1014E00090FAA0F0B0FA80F1286842032FD090FA69
:1014F000A0F0B0FA80F0814204D1002203212068DC
:1015000003F0C6FF2068816811F0010F22D0ACE023
:1015100000E004E003F07AFFC0F384618DE7C0F3DC
:10152000846091E703F072FFC0F38461A2E7C0F327
:101530008460A6E703F06AFFC0F38461B7E7C0F3F5
:101540008460BBE703F062FFC0F38461CCE7C0F3C3
:101550008460D0E72A7B296850F8B03FC1F3120CB1
:1015600023EA0C0302F0180C664A22FA0CF20A4035
:1015700013430360E968494577D1286841031CD0CB
:1015800090FAA0F1B1FA81F1491C01F01F0109297B
:101590004FEA403132D8002912D000BF90FAA0F1B2
:1015A000B1FA81F101F1010101F01F0106FA01F622
:1015B00009D100BFC0F3846109E0C0F38461E3E7AF
:1015C000C0F38461EEE790FAA0F1B1FA81F101F184
:1015D000010101F01F0146EA816102D1C0F384607C
:1015E00003E090FAA0F0B0FA80F000F1010000F002
:1015F0001F0000EB400041EA005132E000290ED00C
:1016000090FAA0F1B1FA81F101F1010101F01F019D
:1016100006FA01F606D100BFC0F3846106E0C0F30C
:101620008461F1E790FAA0F1B1FA81F101F10101D1
:1016300001F01F0146EA816102D1C0F3846003E03A
:1016400090FAA0F0B0FA80F000F1010000F01F0065
:101650002D4A00EB400002EB005041EA000141F04E
:101660000071AA68206803F0F5FE28482A68024243
:101670003FF466AE26488168264B01F0E0719A423D
:1016800002D0254B9A421CD10B021AD42268B2F127
:10169000A04F7FF455AE826841F4000122F0E07261
:1016A0000A4382601D481E490068B0FBF1F0401CEF
:1016B00000EB4000800000E0401E00900028FBD1BD
:1016C0003EE6184D184BAA4207D1CD0105D4226839
:1016D0009A42F5D041F0807109E0144DAA42EFD151
:1016E0004A02EDD422689A42EAD041F4800182682D
:1016F00022F0E0720A43826022E6000000007F4090
:1017000000F0FF03FFFF0700000020FE000008803C
:1017100000030050000021C31000C0901000002002
:10172000400D0300000052C700010050000084CBB0
:10173000704770472DE9F05F044600680668456809
:10174000DFF854B2DBF8080000F01F07B0070ED531
:10175000A8070CD5E06DC00603D4E06D40F400602E
:10176000E0652046FFF7F8F8216802200860DFF8FE
:101770002CA270074FF0A04801D5680703D43007AA
:1017800037D5280735D5E06DC00603D4E06D40F4A9
:101790000070E065206803F055FE20B320685045D6
:1017A00001D1424600E00246824208D03FB1052FF7
:1017B00005D0092F03D0504503D1414602E0C1684E
:1017C00001E00146C96889040DD4016809070AD5FA
:1017D00003F030FE58B3E06D40F01000E065206E7D
:1017E00040F0010020662046FFF7A2FF21680C2090
:1017F0000860B00601D5A80603D4700658D568065F
:1018000056D5E06DC00603D4E06D40F40050E065AD
:101810002068C16C11F4C07F1AD00021894603F002
:1018200011FE02462068504514D1434613E020685B
:10183000416821F00C014160E06D20F48070E065AA
:10184000E06DC004CFD4E06D40F00100E065CAE770
:101850000121E3E70346834208D03FB1062F05D0BC
:10186000072F03D0504503D1414602E0C16801E093
:101870000146C968B9F1000F14D08B0102D58AB1B5
:101880008A040FD4026852060CD589020AD403F0E8
:10189000C9FDE8B3E06D40F01000E065206E40F057
:1018A000010020662046FFF7E5FA21686020086005
:1018B00030060BD5280609D5E06D40F48030E06590
:1018C000204600F067F9216880200860F0050CD5FB
:1018D000E8050AD5E06D40F40030E0652046FFF7EA
:1018E000A7FC21684FF480700860B0050CD5A805EE
:1018F0000AD5E06D40F48020E0652046FFF799FCB2
:1019000021684FF400700860F0062ED5E80600E06C
:1019100008E02AD5E06BD0B1AFB1DBF8080000F4E5
:10192000604013E02068416821F060014160E06D93
:1019300020F48050E065E06DC005B3D4E06D40F068
:101940000100E065AEE72068C068C00750B1E06DF7
:1019500040F48060E065206E40F002002066204682
:10196000FFF7E7FE216810200860700512D56805B2
:1019700010D5E06D40F48040E065206E40F0080036
:10198000206621684FF4806008602046BDE8F05F63
:10199000FFF71ABBBDE8F09F0003005000010050A4
:1019A000F8B54FF0000504002E46009502D0E06D1A
:1019B00010B107E00120F8BD204600F0EDF82666E2
:1019C00084F8586020688168C1F3407119B181685A
:1019D000684A1140816020688168C1F3007189B94B
:1019E0008168654A114041F08051816063486449D3
:1019F0000068B0FBF1F04000801C00E0401E009049
:101A00000028FBD120688168C1F3007141B9E16D04
:101A100041F01001E165216E41F0010121660125CF
:101A200003F008FDE16DC90600D430B1E06D40F06F
:101A30001000E06501252846F8BDE06D20F48070B7
:101A400040F00200E0652068806810F0010F11D1BD
:101A50004FF0A04080684B4900F00100896801F018
:101A60000101084306D148486168826822F47C126B
:101A70000A438260E168E06B627F0843A16841EA43
:101A80004231084394F8241040EA0140012904D16E
:101A9000218D3E4A02EB41410843E16A29B101F43C
:101AA0007871226B014342EA01002268D168384B09
:101AB00019400143D16020680169626B21F04061E7
:101AC00011430161206803F0ADFC70BB207F94F8E6
:101AD0003810800340EA41022168C86844F20203DA
:101AE00098431043C86020690028206801690AD023
:101AF00041F480310161206850F8C01F22696FF302
:101B00000D01114307E021F480310161206850F894
:101B1000C01F6FF30D01016094F8400001280CD044
:101B20002068016921F001010161606901282068D4
:101B3000016B21F00F0111D013E0D4E9110108432A
:101B4000D4E913121143084321680A6940F2FC7377
:101B50009A43104340F001000861E6E7226A521EF2
:101B600011430163E06D20F0020040F00100E065E8
:101B700061E70000C0FFFF5FC0FFFF7F1000002093
:101B8000400D030000010050000300500000FEFF64
:101B90000740F0FF704700002DE9F04198B005467E
:101BA000142111A8FEF776FC44216846FEF772FC6A
:101BB0004FF4004128688A03444F0326444C4FF0F9
:101BC0000008B0F1A04F10D0424B98427AD10F924A
:101BD0006846009101F074F808B1FEF771FE3868AC
:101BE000401C3860012826D02DE00F9268460091F5
:101BF00001F066F808B1FEF763FE3868401C3860F3
:101C0000012807D1E06C40F40050E064E06C00F47F
:101C100000501690E06C40F00100E064E06C11A907
:101C200000F001001690072081E841014FF090403C
:101C300000F086FB3EE0E06C40F40050E064E06CB5
:101C400000F400501690E06C40F00400E064E06C9A
:101C500000F004001690E06C40F00200E064E06CDC
:101C600011A900F0020016901020474681E8C1003B
:101C7000194800F065FB11A9042081E8C10017484C
:101C800000F05EFB174C164820602420C4E90107D1
:101C90008020C4E90370400060618000A0612020C2
:101CA000C4E90707204600F0C1F908B1FEF708FEB5
:101CB0006C65A56200221146122000F069FF122017
:101CC00000F059FF18B0BDE8F081000000000020CE
:101CD00000100240000100500008004800040048C5
:101CE0001C000240100100202DE9F0410446384854
:101CF000806800F01F05206803F09CFB18B10221EA
:101D00000846BDE8F08194F8580001280CD0012065
:101D100084F858002046FEF7E9FC01004FF000036C
:101D200004D084F85830EBE70220EAE7E06D40F693
:101D30000162904340F48070E065264A20684FF0CD
:101D4000A046904201D1374600E00746874200D0C6
:101D50001DB9E76D27F48017E765E76DFF0404D52B
:101D6000276E27F00607276600E023661C2707601A
:101D700084F858302068904201D1334600E0034691
:101D8000834215D0A5B1052D12D0092D10D0E36DD9
:101D900043F48013E365904200D13046C06880016F
:101DA000AED5E06D20F4005040F48050E065A7E728
:101DB000C268920105D5E26D22F4005242F48052CD
:101DC000E2658268044B1A40121D826098E70000A9
:101DD0000003005000010050C0FFFF7F10B500213C
:101DE00040B190F825300122022B05D00421C163B7
:101DF000012124E0012010BD03681C6824F00104C7
:101E00001C6003681C6824F00E041C60836C1C6852
:101E100024F480741C6090F84430046C03F01F03B9
:101E200002FA03F36360D0E913345C60436D33B1AD
:101E30001C6824F480741C60D0E916345C6080F85F
:101E40002520002280F82420084610BD70B590F8A7
:101E50002520002401212346022A07D00422C26340
:101E600080F8251080F82430012429E002681568E4
:101E700025F0010515600268156825F00E0515604E
:101E8000826C156825F48075156090F84420056C07
:101E900002F01F0201FA02F26A60D0E913255560D0
:101EA000426D32B1156825F480751560D0E91625AC
:101EB000556080F8251080F82430816B01B1884787
:101EC000204670BD70B5040011D02068016821F073
:101ED00001010160224A20681421904209D2214A5E
:101EE0000244B2FBF1F1890061641F490AE001205C
:101EF00070BD1B4A52420244B2FBF1F18900616499
:101F00001749083900252164056094F8440000F061
:101F10001F0101208840216C48602046FEF778FCB4
:101F2000A06C0560D4E9130141606068401E03287D
:101F300007D82046FEF790FC606D0560D4E91601D5
:101F400041606565A565E565E56225636563A56333
:101F5000E56384F8255084F82450002070BD00000B
:101F600008040240F8FFFDBF0000024090F8250081
:101F70007047F0B4016C0C6801680D6890F844205B
:101F800002F01F06042202FA06F3234211D06B0767
:101F90000FD50B689B0603D40B6823F004030B607A
:101FA00090F8441001F01F018A40016C4A60016BF7
:101FB0001DE0022303FA06F727424FF0000C4FF012
:101FC000010218D0AF0716D50C68A40605D40C681A
:101FD00024F00A040C6080F8252090F8441001F0E9
:101FE0001F018B40016C4B6080F824C0C16A00293E
:101FF0001AD0F0BC08470823B340234214D02B0763
:1020000012D50B6823F00E030B6090F84410036C9C
:1020100001F01F0102FA01F15960C26380F8252026
:1020200080F824C0416BE2E7F0BC704770B5040053
:102030000CD02C4A21681420914209D22A4A0A4421
:10204000B2FBF0F08000606428480AE0012070BD17
:10205000244A52420A44B2FBF0F0800060642148F6
:1020600008382064022084F825000A6847F6F070DA
:102070008243D4E902031843D4E904352B431843BF
:10208000A3691843E3691843236A1843104308609F
:102090002046FEF7BDFBA0680025B0F5804F00D1BB
:1020A00065602079A16C00F07F000860D4E913011D
:1020B00041606068401E032808D82046FEF7CCFB2C
:1020C000606D0560D4E91601416002E06565A565B3
:1020D000E565E563012084F8250084F8245000209C
:1020E00070BD000008040240F8FFFDBF0000024080
:1020F00070B5044690F82400002501280CD001207A
:1021000084F8240094F825600020012E06D084F87D
:1021100024000225284670BD022070BD022684F8E6
:102120002560E0632068066826F001060660204608
:10213000FEF7A6FB2068016841F001010160E9E7B4
:1021400070B5044690F82400002501280CD0012029
:1021500084F8240094F825600020012E06D084F82D
:1021600024000225284670BD022070BD022684F896
:102170002560E0632068066826F0010606602046B8
:10218000FEF77EFB206B00282068016802D041F03A
:102190000E0106E021F0040101602068016841F0B1
:1021A0000A010160A06C0168C90303D5016841F40C
:1021B00080710160606D18B1016841F48071016047
:1021C0002068016841F001010160CBE770B5044669
:1021D00000F0DEF90546601C02D004484068044463
:1021E00000F0D6F9401BA042FAD370BD04000020D5
:1021F0002DE9F84F00230126DFF828C10F278AE0D8
:1022000006FA03F414EA01027ED023F003056544C4
:10221000AA46D5F808909D074FEA157E07FA0EF5F5
:1022200005EA090B0095B0F1904F05D03E4DA8424C
:1022300005D14FF001081CE04FF0000819E03B4DBC
:10224000A84202D14FF0020813E0394DA84202D152
:102250004FF003080DE0374DA84202D14FF00408BB
:1022600007E0354DA84202D14FF0050801E04FF0DC
:10227000060808FA0EF8D84526D1DFF8C080D8F84D
:10228000009029EA0209C8F8009008F10408D8F87B
:10229000009029EA0209C8F80090DFF8A08008F150
:1022A0000C08D8F8009029EA0209C8F80090A8F1B3
:1022B0000408D8F800509543C8F80050009ADAF89E
:1022C00008509543CAF80850D0F800804FEA4309F7
:1022D000032202FA09F248EA0208C0F80080DD0889
:1022E00000EB8505AA46D5F820804FEA43794FEAEE
:1022F000D96907FA09F528EA0508CAF82080C568EF
:102300009543C560456800E004E0A54345608468E6
:10231000944384605B1C31FA03F27FF471AFBDE833
:10232000F88F000000000140000400480008004849
:10233000000C004800100048001400480004014050
:102340002DE9F04FDFF80C92002301260325A9F1B7
:10235000040B85B00F2709F1040AABF1040EF1E07C
:1023600006FA03FC12EA0C027ED00C7904F0030496
:10237000012C01D0022C20D1846800945C0005FA65
:1023800004F80494009C24EA08040094D1F80C801A
:10239000049C08FA04F8009C48EA0408C0F8088085
:1023A000446824EA0C0491F804C0CCF3001C0CFA35
:1023B00003FC4CEA040CC0F804C00C79E443A40705
:1023C00002D18C68012C0ED0C4684FEA430805FA8C
:1023D00008FC24EA0C04D1F808C00CFA08FC4CEA0A
:1023E000040CC0F80CC00C7904F00304022C16D1C4
:1023F000DC0800EB840CCDF808C0DCF820C05C07DA
:102400004FEAD46807FA08F42CEA040C0C6904FAC1
:1024100008F444EA0C04DDF808C0CCF82040046855
:102420004FEA430805FA08FC24EA0C0491F804C0BA
:102430000CF0030C0CFA08FC4CEA040CC0F800C0C9
:102440004C6814F4403F7CD0434CD4F860C04CF04E
:10245000010CC4F860C0246E23F0030C04F00104E6
:1024600000943E4C644400E06BE00294A4684FEAA0
:10247000837C4FEA1C7807FA08FC24EA0C04B0F1CC
:10248000904F06D0DFF8D8C0604505D14FF0010C61
:1024900020E04FF0000C1DE0DFF8C8C0604502D11D
:1024A0004FF0020C16E0DFF8C0C0604502D14FF0DB
:1024B000030C0FE0DFF8B4C0604502D14FF0040C0C
:1024C00008E0DFF8ACC0604502D14FF0050C01E038
:1024D0004FF0060C0CFA08FC4CEA040C029CC4F801
:1024E00008C0D9F80040CC46D1F8048094435FEA94
:1024F000C82800D51443CCF80040DAF80040D44690
:10250000D1F8048094435FEA882800D51443CCF8BE
:102510000040DBF80040DC46D1F8048094435FEAD9
:10252000883800D51443CCF80040DEF80040F4466B
:10253000D1F8048094435FEAC83800D51443CCF83E
:1025400000405B1C0C682246DC407FF409AF05B0FC
:10255000BDE8F08F08040140001002400000014077
:102560000004004800080048000C00480010004823
:1025700000140048426921EA02030A4043EA02418A
:10258000816170470AB181617047816270470000C4
:1025900001488068704700000400002090F8412046
:1025A000202A24D190F84020012A20D0012280F84E
:1025B0004020242280F841200268136823F00103A0
:1025C00013600268136823F4805313600268136871
:1025D0000B43136001680A6842F001020A6020217F
:1025E00080F84110002180F8401008467047022012
:1025F000704790F84120202A22D190F84020012AEB
:102600001ED0012280F84020242280F84120026858
:10261000136823F0010313600268136823F47063E6
:1026200043EA0121116001680A6842F001020A6070
:10263000202180F84110002180F8401008467047A2
:10264000022070477047704710B5040013D0242053
:1026500084F841002068016821F0010101602046F2
:1026600000F064F90020606484F8410044F8300F01
:10267000A074207410BD012010BD30B403689A69A5
:102680001968D243D40509D4CC43240606D4446C3B
:1026900044F0010444644FF48074DC6153050AD4AF
:1026A000CB431B0607D4436C43F008034364046820
:1026B0004FF48063E36192050AD4C943090607D445
:1026C000416C41F00201416402684FF40071D16134
:1026D000416C11F00B0F02D030BC02F0EFB830BCEF
:1026E0007047026891691268436B002B00D018474D
:1026F0007047000010B5084A016891420AD1074AA4
:1027000001211170FFF7A0FF03F018F8BDE8104099
:10271000FEF748B810BD000000540040140000202F
:1027200090F841007047000070B5040004D094F8A0
:102730004100002510B106E0012070BD84F8405032
:10274000204600F01DF9242084F84100206801682B
:1027500021F0010101606068216820F0706008616B
:102760002068816821F400418160E0680128A06848
:1027700030D040F4044021688860E0680228206876
:1027800041682AD021F40061416020684168144A00
:10279000114341602068C16821F40041C160D4E95F
:1027A00004010843A16940EA01202168C860D4E916
:1027B00007010843216808602068016841F00101B1
:1027C00001606564202084F84100256384F842504C
:1027D000002070BD40F40040CDE741F40061D3E734
:1027E0000080000270477047704700000068094988
:1027F00088420DD108484178007800F00F0041EA86
:1028000000210548401E818000210170FDF7CABFEC
:102810007047000000540040150000207047000081
:102820002DE9F84304461E4613468846DDE9082094
:1028300094F8411020296CD10AB300B321688D6946
:10284000ED432D0465D594F84050012D61D001254C
:1028500084F84050222584F84150402584F84250A5
:1028600000256564626260852B48E0622B48C4F8ED
:102870004C806063608DFF2805D9FF2004E04FF491
:102880000070606425E0608D2085D8B2012E23D0D1
:102890001B0A8B622065E06B202708B32049C162C8
:1028A000E16B20484863E06B0563E06B856321685A
:1028B000238D2431E06BFFF743FCD0B184F84170E5
:1028C00084F8425054F8440F40F0100044F80409D2
:1028D00025700120BDE8F88388624FF0FF30D9E70A
:1028E00084F8417084F8425054F8440F40F080005E
:1028F000ECE70D480090F2B200234146204602F07A
:102900007FFC84F840500121204601F03BFF00206D
:10291000E0E70220DEE700000000FFFFB94E0008FC
:10292000B3460008A14600080020008010B5044608
:102930000068104988421CD10F48816D21F40011B4
:1029400081654FF400414FF09040FFF751FC80212A
:102950000A48FFF74DFCE06BFFF7B4FAA06BFFF7F6
:10296000B1FA1F2000F0F6F8BDE81040202000F07A
:10297000F1B810BD005400400010024000040048AF
:102980002DE9F04397B00646142111A8FDF782FD0A
:1029900044216846FDF77EFD3F493068884277D183
:1029A0004020002400900694684600F089F908B1A0
:1029B000FDF786FF394DE86C40F00100E864E86CF3
:1029C00000F001001690E86C40F00200E864E86C4A
:1029D0004FF0120800F0020016904FF004094FF477
:1029E0000040CDE91284CDE91449119011A94FF0AE
:1029F0009040FFF7A5FCCDE91284CDE9144980276A
:102A0000119711A92648FFF79BFCA86D40F4001010
:102A1000A865A86D244D00F4001016902148286088
:102A20004FF01008C5E90184C5E903476C61AC614A
:102A3000EC6128462C62FFF7F9FA08B1FDF740FF78
:102A4000F563AE62184D1748603528302860C5E937
:102A500003476C61AC61EC6111202C62C5E901088F
:102A60002846FFF7E3FA08B1FDF72AFFB563002215
:102A700003211F20AE6200F08BF81F2000F07BF8CE
:102A800000220321202000F083F8202000F073F8BA
:102A900017B0BDE8F0830000005400400010024071
:102AA0000004004808000240C4010020704770473D
:102AB0000248816842681144816070470400002028
:102AC00010B50024032000F083F80F2000F008F870
:102AD00008B1012401E000F025F8204610BD0000F7
:102AE00070B50E4E05460024706898B14FF47A71A7
:102AF000B1FBF0F00A490968B1FBF0F000F06EFD9F
:102B000040B9102D06D200222946501E00F040F890
:102B1000356000E00124204670BD00000400002064
:102B2000100000200A4882B0016E41F001010166E8
:102B3000016E01F001010091816D41F080518165CC
:102B4000806D00F08050009002B000F0B1B800003D
:102B50000010024000280DDB00F01F02012191400F
:102B60004009800000F1E020C0F88011BFF34F8FD2
:102B7000BFF36F8F7047002809DB00F01F020121AF
:102B800091404009800000F1E020C0F8001170473A
:102B9000F0B40E4B1B680C46C3F30223C3F10705C8
:102BA000042D00D90425191D072901D2002300E0B6
:102BB000DB1E012606FA05F1491E214099409E4080
:102BC000761E16403143F0BC04F0AFBC0CED00E0C3
:102BD000064900F0070208684FF6FF03184040EA74
:102BE0000220034A10430860704700000CED00E02B
:102BF0000000FA052B492C4B0A6832214A432B4925
:102C000040B1B0F5007F086829D020F4C06040F4DE
:102C100080602CE00868C0F34120022804D051F8FD
:102C2000800F20F4807022E0D1F8800020F48070C2
:102C3000C1F88000086820F4C06040F400700860AB
:102C4000B2FBF3F0401C00E0401E4A69520501D57A
:102C50000028F9D1486940050AD503207047C0F320
:102C60004120022806D051F8800F40F4807008609F
:102C700000207047D1F8800040F48070C1F88000D7
:102C8000086820F4C06040F400700860B2FBF3F004
:102C9000401C00E0401E4A695205DBD50028F9D1EE
:102CA000D8E700001000002040420F0000700040F4
:102CB0000248816841F480418160704700700040A3
:102CC0002DE9F8430446006800269D4D00035ED5BB
:102CD000A86D0027C00008D4A86D40F08050A865FA
:102CE000A86D012700F080500090DFF85892D9F8C5
:102CF000001041F48071C9F80010FFF749FC8046CC
:102D000006E000BFFFF744FCA0EB080002282BD828
:102D1000D9F80000C005F5D5D5F8900010F4407042
:102D200014D0216C814211D0D5F89000D5F89010C4
:102D300020F4407041F48031C5F89010D5F890101F
:102D400021F48031C5F89010C5F89000C00711D06B
:102D5000FFF71EFC804641F2883907E0FFF718FCB8
:102D6000A0EB0801494501D903260BE0D5F89000F6
:102D70008007F3D5D5F89000216C20F4407008430B
:102D8000C5F890001FB1A86D20F08050A86520788C
:102D9000C00707D0D5F88800616820F00300084319
:102DA000C5F888002078800707D5D5F88800A16885
:102DB00020F00C000843C5F888002078400707D5AC
:102DC000D5F88800E16820F030000843C5F8880095
:102DD0002078000707D5D5F88800216920F0C000C9
:102DE0000843C5F888002078800607D5D5F8880004
:102DF000616920F440600843C5F8880020784006E7
:102E000007D5D5F88800A16920F440500843C5F8DB
:102E100088002078000607D5D5F88800E16920F4FD
:102E200040400843C5F888002088C00507D5D5F87C
:102E30008800216A20F440300843C5F888002088C3
:102E4000800507D5D5F88800616A20F44020084342
:102E5000C5F88800208840050FD5D5F88800A16AFC
:102E600020F440100843C5F88800A06AB0F5801F20
:102E700003D1E86840F48010E860208800050FD591
:102E8000D5F88800E16A20F440000843C5F88800BE
:102E9000E06AB0F5800F03D1E86840F48010E86084
:102EA0002088C0040FD5D5F88800216B20F0407031
:102EB0000843C5F88800206BB0F1807F03D1E86833
:102EC00040F48010E86020884FF0006180040ED547
:102ED000D5F88800626B20F040601043C5F8880088
:102EE000606B884203D1E86840F48010E860208875
:102EF00040040ED5D5F88800A26B20F04060104346
:102F0000C5F88800A06B884203D1E86840F48010BF
:102F1000E860208800040FD5D5F88800E16B20F028
:102F200040500843C5F88800E06BB0F1805F03D1E2
:102F3000E86840F48030E8603046BDE8F88300007F
:102F400000100240007000402DE9F0470E460500D9
:102F50004FF0000725D0DFF8AC81D8F8000000F072
:102F60000F00B0420CD2D8F8001021F00F0131430D
:102F7000C8F80010D8F8000000F00F00B04210D1DF
:102F80002968614CC80741F2883A5AD06868DFF86E
:102F90007C91032808D0022820682DD04005002805
:102FA0002CDB0120BDE8F08720688001F9D5E068BE
:102FB00000F00302E068C0F30310401C032A19D09C
:102FC000534A00BFB2FBF0F0E268C2F3062250435E
:102FD000E268C2F34162521C5200B0FBF2F0484575
:102FE00017D9A06810F0F00F0CD0880711D5A86889
:102FF00040B10EE0474AE5E78003D0E700F0B6F8BD
:10300000484506D9A06820F0F00040F08000A0609C
:103010008027A068696820F003000843A060FFF7DC
:10302000B7FA814606E000BFFFF7B2FAA0EB09014C
:1030300051453AD8A068696800F00C00B0EB810FE8
:10304000F2D12868810714D5400703D5A06840F461
:10305000E060A0602878000705D5A06820F46050E3
:1030600040F4E060A060A068A96820F0F000084388
:1030700004E0802F03D1A06820F0F000A060D8F811
:103080000010404601F00F01B14216D9016821F04D
:103090000F0131430160FFF77BFA074607E000BFED
:1030A000FFF776FAC11B514501D903207AE7D8F81A
:1030B000000000F00F00B042F2D12878400705D59B
:1030C000A068E96820F4E0600843A0602878000761
:1030D00006D5A068296920F4605040EAC100A060CC
:1030E00000F044F8A1680C4AC1F30311515C01F0EF
:1030F0001F01C8400949086009480068BDE8F04759
:10310000FFF7EEBC002002400010024000B4C404EF
:103110000024F40000127A00647E000810000020F1
:10312000040000200548064900688968054AC1F383
:103130000221515C01F01F01C840704710000020BF
:1031400000100240747E000805480649006889683E
:10315000054AC1F3C221515C01F01F01C84070470C
:103160001000002000100240747E0008184910B5BD
:103170008868C0F381021748012A0BD08A6843107F
:10318000C2F38102022A06D08A68C2F38102032AAE
:1031900003D0002010BD184610BDCA6802F0030419
:1031A000CA68C2F30312521C032C02D0B0FBF2F027
:1031B00001E0B3FBF2F0CA68C968C2F306225043CB
:1031C000C1F34161491C4900B0FBF1F010BD0000A2
:1031D000001002400024F4002DE9F84304007AD0E6
:1031E0002078F84DC00747D0A868E96800F00C00C7
:1031F00001F003010C2802D0082817D001E00329B0
:1032000014D06068B0F5803F17D0B0F5A02F2868C3
:1032100017D020F480302860286820F480202860AF
:103220006068E0B1FFF7B4F9064614E0286880034F
:1032300022D560680028D2D01EE0286840F4803093
:10324000EDE740F480202860F7E700BFFFF7A0F922
:10325000801B642870D828688003F7D50CE0FFF73E
:1032600097F9064605E000BFFFF792F9801B642836
:10327000F0D828688003F7D4207880074CD5A86858
:10328000E96800F00C0001F003010C2802D00428CA
:103290000DD001E002290AD0E068002828682BD070
:1032A00040F480702860FFF773F9064619E028683B
:1032B000400502D5E068002891D06868217C20F0A4
:1032C000FE4040EA01606860BF480068FFF708FC04
:1032D000002800D120E072E1FFF75AF9801B022894
:1032E000B8D828684005F7D56868217C20F0FE40F2
:1032F00040EA016068600FE020F480702860FFF70A
:1033000047F9064605E000BFFFF742F9801B022897
:10331000A0D828684005F7D42078000729D560692F
:103320000028D5F8940013D040F00100C5F89400AF
:10333000FFF72EF9064606E090E000BFFFF728F9F8
:10334000801B022886D8D5F894008007F6D510E0B7
:1033500020F00100C5F89400FFF71AF9064604E0D2
:10336000FFF716F9801B022878D8D5F8940080075B
:10337000F6D42078400761D5A86D0026C00008D497
:10338000A86D40F08050A865A86D012600F080501F
:1033900000908E480168C90511D40168804641F447
:1033A00080710160FFF7F4F8074604E0FFF7F0F8DA
:1033B000C01B022852D8D8F80000C005F6D5A06876
:1033C000012815D00528D5F8900016D020F001006E
:1033D000C5F89000D5F8900020F00400C5F89000E2
:1033E000A06841F28838B8B1FFF7D2F807460EE07E
:1033F000D5F8900040F00100F0E740F00400C5F877
:103400009000F5E7FFF7C4F8C11B414526D8D5F871
:1034100090008007F6D50CE0FFF7BAF8074604E005
:10342000FFF7B6F8C11B414518D8D5F890008007C2
:10343000F6D41EB1A86D20F08050A86520788006D3
:1034400029D5A0690028D5F8980013D040F00100D4
:10345000C5F89800FFF79CF8064606E075E000BF47
:10346000FFF796F8801B02286FD8D5F898008007E0
:10347000F6D510E020F00100C5F89800FFF788F8B5
:10348000064604E0FFF784F8801B02285DD8D5F8D3
:1034900098008007F6D4E069F0B3A968C1F3810110
:1034A00003295DD00228286820F08070286003D0AE
:1034B000FFF76EF804464BE0FFF76AF8064604E0B3
:1034C000FFF766F8801B02283FD828688001F7D4F0
:1034D000F4E908016FF00F0202EB01110843218AA1
:1034E0005204490802EB4151A26841EA0221084313
:1034F000217D4FF07E42490802EB41610843217B68
:1035000040EAC160E968324A11400843E86028682F
:1035100040F08070286000E05EE0E86840F0807075
:10352000E860FFF735F8044605E000BFFFF730F824
:10353000001B022809D828688001F7D54CE000BF9D
:10354000FFF726F8001B022802D90320BDE8F88304
:1035500028688001F4D4E8681E490840E8603BE030
:103560000128F3D0E868226A00F00301914226D1D5
:10357000616A00F0F0020901103991421FD1A26A7C
:1035800000F4FE41B1EB022F19D194F82C2000F089
:103590007841B1EBC26F12D1218E00F4C00249080C
:1035A0004905A1F50011914209D194F8341000F0B9
:1035B000C06049084906A1F1007181420CD0012088
:1035C000C4E700000010024004000020007000402A
:1035D0000C809F01FCFFEEFE0020B7E710B5401EF7
:1035E000B0F1807F01D3012010BD4FF0E024606175
:1035F0000F21601703F099FF0020A06107202061D0
:10360000002010BD704770477047000030B590F83B
:103610003C20012A42D0012280F83C20CA688B68F5
:1036200022F440721A434B6822F480621A430B68FA
:1036300022F400621A430B6922F480521A434B6948
:1036400022F400521A430B6B22F480421A430B8B74
:1036500022F4702242EA0342CB6922F080521A43DC
:103660000F4D03680024AB4202D00E4DAB4210D187
:103670000D8D22F4700242EA05520D6A22F080722A
:103680002A434D6A22F000722A43C96A22F000528E
:103690000A435A6480F83C40002030BD022030BD0F
:1036A000002C014000340140704770477047000013
:1036B000F0B590F83C20012A3AD0012580F83C5022
:1036C000022280F83D2003685A689C68194E1A4F00
:1036D000B34201D0BB4204D122F4700C4A6842EAE2
:1036E0000C02DFF858C002EA0C02D1F800C04CEA24
:1036F000020CC3F804C00268B2420DD0B2F1804F90
:103700000AD00F4B9A4207D00E4B9A4204D0BA42CD
:1037100002D00D4B9A4204D1896824F080031943EA
:10372000916080F83D50002180F83C100846F0BDC3
:103730000220F0BD002C0140003401408FFFFFFD4E
:1037400000040040000800400040014010B504465D
:10375000022249B104290ED0082913D094F8470059
:10376000012816D0012010BD94F844000128F9D199
:1037700084F844200FE094F845000128F2D184F841
:10378000452008E094F846000128EBD184F8462053
:1037900001E084F847200422206803F0B0F8206894
:1037A000416C41F4004141641049206888420ED0C8
:1037B000B0F1804F0BD00E49884208D00D498842A5
:1037C00005D00D49884202D00C49884207D1816852
:1037D0000B4A1140062906D0B1F5803F03D001689D
:1037E00041F001010160002010BD0000002C0140EB
:1037F0000004004000080040003401400040014047
:1038000007000100704710B5040003D094F83D0094
:1038100010B107E0012010BD002084F83C002046D4
:1038200000F022F8022084F83D00211D206802F0FB
:10383000FDFF012084F8480084F83E0084F83F0032
:1038400084F8400084F8410084F8420084F8430082
:1038500084F8440084F8450084F8460084F8470062
:1038600084F83D00002010BD08B5114A01681148D8
:10387000914208D1016E41F400610166006E00F4CE
:103880000060009008BDB1F1804FFBD1816D41F027
:1038900001018165806D002200F00100009002218D
:1038A0001C20FFF775F9BDE808401C20FFF763B93D
:1038B000002C01400010024090F83D10012901D079
:1038C00001207047022180F83D100168CA6842F06B
:1038D0000102CA600068104988420ED0B0F1804FE2
:1038E0000BD00E49884208D00D49884205D00D49B9
:1038F000884202D00C49884207D181680B4A1140A6
:10390000062906D0B1F5803F03D0016841F00101DE
:103910000160002070470000002C014000040040BE
:103920000008004000340140004001400700010051
:1039300070B5044690F83C000025012814D00126FB
:1039400084F83C60022084F83D0022689068364B81
:10395000184020F47F409060086870282ED010DC5A
:1039600010F00F0F03D021E04FF0020070BD4FEABE
:103970002012072A1AD2DFE802F0525252524A3875
:1039800040002A4BC21A984249D009DCB0F5805F4A
:103990000DD0B0F5005F1CD0B0F1101F06D13EE095
:1039A000102A3CD0202A3AD0502A38D0012584F859
:1039B0003D60002084F83C00284670BDCB68D1E90A
:1039C0000121206802F0A8FF2068816841F077019A
:1039D00009E0CB68D1E90121206802F09DFF206851
:1039E000816841F480418160E1E7CA6849682068E4
:1039F00003F046F95021206806E0CA68496820684B
:103A000003F06CF96021206802F090FFCFE7CA68EC
:103A10004968206803F034F940212068F4E72268FF
:103A200001461046F0E7000088FFCEFF200010009E
:103A300070472DE9F04104460068C66805694FF0FB
:103A40000007A90713D5B10711D5F91E016101209F
:103A50002077206880698007204602D0FFF7E8FFC2
:103A600004E000F001F9204600F0C3F92777680769
:103A700016D5700714D521686FF004000861022084
:103A800020772068806910F4407F204602D0FFF73D
:103A9000CFFF04E000F0E8F8204600F0AAF927770D
:103AA000280715D5300713D521686FF00800086185
:103AB000042020772068C0698007204602D0FFF7E5
:103AC000B7FF04E000F0D0F8204600F092F9277725
:103AD000E80616D5F00614D521686FF010000861CD
:103AE000082020772068C06910F4407F204602D06B
:103AF000FFF79EFF04E000F0B7F8204600F079F9E8
:103B00002777E80708D0F00706D021686FF001009A
:103B10000861204600F0ECF9280601D4A80408D575
:103B2000300606D521686FF4025008612046FFF781
:103B30006AFDE80508D5300606D521686FF4807067
:103B400008612046FFF75EFD680608D5700606D5B9
:103B500021686FF040000861204600F0FFF9A806D8
:103B600008D5B00606D521686FF020000861204610
:103B7000FFF74AFDE80208D5F00206D521686FF488
:103B8000801008612046FFF790FDA80208D5B0021A
:103B900006D521686FF4001008612046FFF784FD08
:103BA000680208D5700206D521686FF480000861AC
:103BB0002046FFF77BFD28020AD5300208D5216890
:103BC0006FF4000008612046BDE8F041FFF71ABE1F
:103BD000BDE8F081F0B587B0044614216846FCF7D3
:103BE00059FC1E492068884236D11D48C16C41F0FD
:103BF0000201C164C16C01F002010591C16C41F088
:103C00000101C164C06C022500F0010005904FF471
:103C1000C04000900024CDE901540626114FCDE9A3
:103C2000034669463846FEF78BFBA8030090CDE9B2
:103C300001540420CDE9034069463846FEF780FB75
:103C40004FF4E0600090CDE90154CDE903466946A8
:103C50004FF09040FEF774FB07B0F0BD002C014020
:103C60000010024000040048704770B5044690F808
:103C70003C0000260D4601280BD0012084F83C00B2
:103C80000C2A4AD007DC82B1042A20D0082A06D1A7
:103C900031E0022070BD102A53D0142A63D00126CF
:103CA000002084F83C00304670BD206802F048FED9
:103CB0002068816941F0080181612068816921F0F3
:103CC00004018161206881692A69114311E020683B
:103CD00002F088FE2068816941F4006181612068FA
:103CE000816921F480618161206881692A6941EAE2
:103CF00002218161D4E7206802F0BEFE2068C1691C
:103D000041F00801C1612068C16921F00401C1616D
:103D10002068C1692A69114311E0206802F0F6FEAB
:103D20002068C16941F40061C1612068C16921F462
:103D30008061C1612068C1692A6941EA0221C161CB
:103D4000AEE7206802F02CFF2068016D41F0080109
:103D500001652068016D21F0040101652068016D95
:103D60002A69114311E0206802F052FF2068016DBA
:103D700041F4006101652068016D21F480610165F5
:103D80002068016D2A6941EA0221016588E710B5C2
:103D9000040003D094F83D0010B107E0012010BDED
:103DA000002084F83C00204600F022F8022084F82D
:103DB0003D00211D206802F039FD012084F84800F3
:103DC00084F83E0084F83F0084F8400084F8410005
:103DD00084F8420084F8430084F8440084F84500E5
:103DE00084F8460084F8470084F83D00002010BDA8
:103DF0007047704730B50446022269B1042912D0D9
:103E0000082917D00C291CD0102921D094F8430080
:103E1000012824D0012030BD94F83E000128F9D1BA
:103E200084F83E201DE094F83F000128F2D184F888
:103E30003F2016E094F840000128EBD184F84020A0
:103E40000FE094F841000128E4D184F8412008E013
:103E500094F842000128DDD184F8422001E084F882
:103E600043200122206802F03DFD194B20681949CA
:103E7000194A984209D0884207D0904205D0174D80
:103E8000A84202D0164DA84203D1456C45F4004526
:103E90004564206898420CD0B0F1804F09D0114B96
:103EA000984206D0104B984203D0884201D09042ED
:103EB00007D181680D4A1140062906D0B1F5803F2F
:103EC00003D0016841F001010160002030BD000015
:103ED000002C0140003401400040014000440140FA
:103EE00000480140000400400008004007000100B5
:103EF00030B5174985B0884228D101F015FF154C1F
:103F0000052802D001F024FF11E0207878B90125BE
:103F10002570684601F002FF9DEC020AB2EE081A15
:103F200001F02EFD0C480577012001F097FD02F00D
:103F300071F86088401C80B26080FA2806D30020A7
:103F4000608005B0BDE8304001F0B2BA05B030BDC8
:103F5000D00200202E000020F4050020704790F8C9
:103F60008410012918D0012180F884102421C0F880
:103F7000881001680A680B6823F001030B6022F0C7
:103F8000005100224266036819602021C0F88810A1
:103F900080F88420104670470220704710B5044610
:103FA000D0F88C00202801D0022010BD61B15AB198
:103FB0000120E06600202067204603F0C3F90028B6
:103FC000F3D1E16E012901D0012010BD226810213A
:103FD0001162226852E8001F41F0100142E800130C
:103FE000002BF6D110BD000010B5006808498842CA
:103FF0000CD1802207490848FFF7D0FF0648D0F8C7
:1040000080000068016821F00401016010BD00001B
:1040100000440040340500201C030020704770B5A8
:10402000044690F8840001281DD0012084F8840003
:104030002420C4F8880020680568026822F0010284
:1040400002602068826822F060620A438260204633
:1040500002F064FE206805602020C4F8880000207B
:1040600084F8840070BD022070BD70B5044690F8DD
:10407000840001281DD0012084F884002420C4F885
:10408000880020680568026822F00102026020684A
:10409000826822F060420A438260204602F03EFEBF
:1040A000206805602020C4F88800002084F884007F
:1040B00070BD022070BD7047704770472DE9F04118
:1040C00003680446D86919689A6840F60F052842C3
:1040D0004FF000054FF002060AD187067ED501F0A9
:1040E000200702F0805C57EA0C0777D0616F42E14D
:1040F000B64FDFF8DCC2174001EA0C0C57EA0C0C93
:104100006CD05FEAC07C0CD05FEAC15C09D54FF08F
:10411000010CC3F820C0D4F8903043F00103C4F878
:104120009030830709D5D30707D023681E62D4F8DF
:10413000903043F00403C4F8903043070AD5D30706
:1041400008D0266804233362D4F8903043F0020389
:10415000C4F8903003070CD501F020033B4308D08E
:10416000266808233362D4F8903043F00803C4F87B
:10417000903003050BD54B0109D526684FF4006339
:104180003362D4F8903043F02003C4F89030D4F870
:104190009030002B3DD0800609D501F0200002F0C0
:1041A0008051084303D0616F09B120468847D4F895
:1041B000900021688968490602D410F0280F2AD09F
:1041C000204602F043FF2068806840061ED5206824
:1041D000083050E8001F21F0400100E021E040E8F5
:1041E0000012002AF3D1D4F8800078B179498163B4
:1041F000D4F88000FDF72AFE00280AD0D4F8800009
:10420000816B00E02046BDE8F04108472046FFF7FB
:1042100054FFBDE8F0812046FFF74FFFC4F89050EF
:10422000F7E7D4F86CC02027BCF1010F7ED15FEA1C
:10423000C06C7BD55FEAC16C78D51020186220680D
:104240008068400651D5D4F880100A685068000490
:10425000000C3ED0B4F85C3083423AD9A4F85E003A
:104260000868006880062CD4216851E8000F20F40B
:10427000807041E80002002AF6D12068083050E83A
:10428000001F21F0010140E80012002AF5D120684A
:10429000083050E8001F21F0400140E80012002AD9
:1042A000F5D1C4F88C70E566216851E8000F20F064
:1042B000100041E80002002AF6D1D4F88000FDF792
:1042C0008DFD2667B4F85C00B4F85E10401A81B228
:1042D00007E0B4F85C1081429BD11068800698D545
:1042E00026672046FFF780FE93E7B4F85C00B4F839
:1042F0005E10401A81B2B4F85E00002889D000290F
:1043000087D0226852E8000F20F4907042E8000342
:10431000002BF6D12D4BDB432068083050E8002FEE
:104320001A4040E8002CBCF1000F00E00EE0F3D191
:10433000C4F88C70E5666567206850E8002F22F0AD
:10434000100240E80023002BF6D1C9E7C60209D5C8
:10435000560207D54FF4801018622046BDE8F041A0
:10436000FFF7AABE03060AD501F0800302F400029B
:10437000134304D0A16F00297FF444AF49E74206FC
:1043800011D54A060FD52046016851E8002F22F0CA
:10439000400241E80023002BF6D1C0F88870856701
:1043A00000F012F935E7020206D54A0004D520468E
:1043B000BDE8F041FFF77FBEC00195D5002993DA33
:1043C0002046BDE8F041FFF729BE000001000010C3
:1043D00020010004D56E000810B5040003D0D4F805
:1043E000880010B107E0012010BD002084F884008F
:1043F000204600F027F82420C4F8880020680168CF
:1044000021F001010160A06A10B1204602F0A8FC71
:10441000204602F05DFE0128E6D02068416821F4C4
:10442000904141602068816821F02A018160206804
:10443000016841F0010101602046BDE8104002F032
:10444000F3BC0000F0B597B00646142111A8FCF7A4
:1044500021F844216846FCF71DF83149306888424C
:104460005BD102250024684600950294FEF728FCE3
:1044700008B1FCF725FA2B48816D41F400318165C4
:10448000816D01F400311691C16C41F00201C164EB
:10449000C06CCDE9125400F0020016901820119063
:1044A0000720CDE9144011A91F48FDF749FF204D11
:1044B0001E48802728601A20C5E90104C5E9034782
:1044C0006C61AC61EC6128462C62FDF7AFFD08B170
:1044D000FCF7F6F9C6F88050AE62154D134860350A
:1044E000143028601B20686005F10801102081E865
:1044F00091006C61AC61EC6128462C62FDF796FD81
:1045000008B1FCF7DDF9F567002203212620AE6231
:10451000FEF73EFB2620FEF72EFB17B0F0BD000095
:1045200000440040001002400004004844000240E3
:10453000B00300207047704770B50446D0F888007B
:10454000202801D0022070BD39B332B32165A4F810
:104550005420A4F856200021C4F890102120C4F85B
:104560008800E06FD8B1154BC362E36F144818633D
:10457000E36F14485863E06F134681632068E56F6A
:1045800000F128022846216DFDF7DAFD38B1102030
:10459000C4F890002020C4F88800012070BD216874
:1045A000402008622068083050E8001F41F0800178
:1045B00040E80012002AF5D1002070BDFF6F00080E
:1045C00041700008DF6E000870477047FEE700008A
:1045D0002DE9F04100262DED028B88B035464FF4D1
:1045E000FA770A20FDF7F2FD002440F20F181F4869
:1045F000FCF7ECFC0A211D48FCF76CFC09211B4868
:10460000FCF750FC064441461848FCF74BFC641C80
:10461000A4B20544BC42EAD300EE106ADFED140AEE
:104620006846B8EE401A81EE200A01EE105AF8EE04
:10463000411A81EEA01AF6EE000A30EE010A20EED1
:10464000208A01F01BFA9DED000A9DED041A60EE30
:10465000080A80EE810A01F053FB0448FCF7BEFD16
:1046600008B0BDEC028BBDE8F081000038000020EE
:104670000000FA430148FEF700B800007001002076
:104680000148FEF72EB8000070010020806A00216A
:10469000826B02B19163C26B02B1916300F0C8BD3D
:1046A000806A01684A6842F400424A60102100F0C2
:1046B00005B910B5846A2068016821F400410160E1
:1046C000608D40B1218D606A42186262608DFF2862
:1046D00003D9FF2002E020210FE0608D20852168B2
:1046E00083B22431E06BFDF72BFD28B12046BDE8F5
:1046F0001040102100F0E2B840212046BDE81040F3
:1047000000F040B80549064A0968B1FBF2F141439F
:104710000A20B1FBF0F0401EFDD2704710000020CF
:1047200040420F0010B50022CC074FF0280306D0FE
:1047300090F84140422233EA040400D0F2228C0770
:1047400007D590F8414042F04402A34301D042F023
:10475000B0020B0401D542F0B802102904D0202980
:1047600005D0402906D007E042F0900204E042F074
:10477000200201E042F040020068016891430160BC
:1047800010BD000010B51E4C436B0022A34217D091
:104790001C4CA34214D01C4CA34211D00B0400D5D6
:1047A000B822CB0701D042F0F2028B0701D542F0CC
:1047B000F402102916D020291CD142F0200219E061
:1047C0000B0400D5B822CB0701D042F0F2028B07D0
:1047D00001D542F0F402102904D0202905D0402947
:1047E00006D007E042F0900204E042F0600201E0EF
:1047F00042F04002006801681143016010BD0000F2
:10480000A94D0008F14F0008B94E000801688A69F7
:10481000D243920701D400228A6200688169C943A9
:10482000C90703D0816941F00101816170472DE919
:10483000F041044690F841002821814320684FF060
:1048400000054FF0080304D0C36184F84050BDE870
:10485000F0818169C1F300478169FE2202EA1146B5
:104860008168C1F30902C168D4F80CE001F0FE01CF
:104870004FF4004CBEF1020F17D14FF0060E06F0B8
:1048800006060EEAD21E76450ED1A16C491CA16423
:10489000A16C0229DBD1A564C36184F8405039467C
:1048A0002046FDF7D0FED2E70E4661462046FFF7D0
:1048B00039FF84F840503246F1E7000070B50446F5
:1048C00090F84100002584F84250404AE262658534
:1048D000626C0A436264282833D0292831D02A2800
:1048E0002FD048F203012046FFF71CFF2046FFF7B8
:1048F0008DFF94F84100602813D0202184F84110E6
:1049000020688269D24392060BD48269D243D206D0
:1049100005D41022C261606C40F00400606420681D
:10492000C1616563206B2A4EA16B19B1112812D0A9
:10493000212810D0E16BE9B3122824D0222822D0FC
:104940003EE003212046FFF7EDFE282084F84100D9
:1049500020486063E6E720680168490403D50168E0
:1049600021F480410160A06BFDF700FB012827D0F6
:10497000A06B866384F84050A06BFDF767FA0028AF
:1049800023D0A06B18E020680168090403D50168F2
:1049900021F400410160E06BFDF7E8FA01280FD037
:1049A000E06B866384F84050E06BFDF74FFA002817
:1049B0000BD000E004E0E06B816BBDE8704008477D
:1049C0002046BDE8704000F033BC70BD0000FFFF22
:1049D0008D460008E950000870B504461648E062AC
:1049E00000252563202084F8410084F84250C84304
:1049F0006563400711D42068406A616A0870606A84
:104A0000401C6062208D40B1401E2085608D401E9C
:104A10006085606C40F00400606448F20301204649
:104A2000FFF780FE21681020C86184F840502046BE
:104A3000FDF7D8FE70BD00000000FFFFF8B504468A
:104A4000006820260F46C66194F84100212804D052
:104A500094F84100222806D00BE001212046FFF700
:104A600061FE112004E002212046FFF75BFE1220C8
:104A70002063206841682B4A1140416000252A4884
:104A80006563E062F843C10606D422681021D16153
:104A9000616C41F00401616494F84110602905D112
:104AA000400703D42068406AC0B200902046FFF758
:104AB000ADFE606C94F84110602900D028B1616CA3
:104AC0002046BDE8F840FFF7F9BE94F841002128E0
:104AD00012D094F8410022280DD184F8416025635A
:104AE00094F8420084F84250402884F84050204610
:104AF00014D0FDF778FEF8BD84F84160256394F882
:104B0000420084F84250402884F84050204602D0A9
:104B1000FDF76AFEF8BDFDF781FEF8BDFDF766FE04
:104B2000F8BD000000E800FE0000FFFF70B50025A2
:104B3000044680F8425090F841102020212984F842
:104B400041000CD012202063022120466563FFF74C
:104B5000E9FD84F840502046FDF745FE70BD112068
:104B60002063012120466563FFF7DCFD84F8405097
:104B70002046FDF739FE70BD2DE9F0470268044676
:104B8000D2F80080C56A0E4690F841002027D76110
:104B90004FF00009212808D0292806D022280BD060
:104BA0002A2809D028280ED014E048F20101204616
:104BB000FFF7B8FD21200CE048F202012046FFF784
:104BC000B1FD222005E048F203012046FFF7AAFDCF
:104BD000484620632068416841F4004141602068F4
:104BE0004168524A114041602046FFF70FFE6FEACC
:104BF0000801480406D42068026822F4804202605A
:104C0000A06B07E0080409D42068026822F400427F
:104C10000260E06B10B1006840686085F0434007B7
:104C20000FD4206826F00406406A626A1070606A39
:104C3000401C6062208D20B1401E2085608D401E8A
:104C40006085608D18B1606C40F004006064F043D2
:104C5000DFF8DC80C00632D4C80630D4618D102065
:104C600051B12168C861606C40F00400606415B304
:104C7000B5F1807F1FD022E094F84110282902D19D
:104C8000B5F1007F04D094F84110292905D00FE038
:104C900031462046FFF7A0FE11E0454508D02168C7
:104CA000C8612046FFF7B2FD204600F043F806E059
:104CB0002168C86103E0616C2046FFF7FFFD4D46A7
:104CC00084F84290C4F83490606C68B1616C2046FE
:104CD000FFF7F4FD94F84100282815D1314620460D
:104CE000BDE8F047FFF778BEE06A4646B0420DD017
:104CF000204600F01FF8E66284F84170256384F8CE
:104D000040502046FDF76EFDBDE8F08794F8410065
:104D100084F841702228256384F84050204602D050
:104D2000FDF7C5FEF0E7FDF7C1FEEDE700E800FE88
:104D30000000FFFF70B5044600680168002584F894
:104D40004250C9434A0403D4016821F4804104E07D
:104D5000090403D4016821F40041016094F8411072
:104D60002820292911D094F841102A290CD184F83F
:104D700041002220206302212046FFF7D3FC84F863
:104D800040502046FDF792FE70BD84F8410021207E
:104D9000206301212046FFF7C5FC84F840502046DF
:104DA000FDF785FE70BD0000F8B5044690F84000A0
:104DB00001281AD0012084F84000CB43DE064FF0D2
:104DC00000056FEA020012D4C20610D42168102038
:104DD000C861606C40F00400606420212046FFF749
:104DE000D1FC2046FFF712FD5FE00220F8BD314AFA
:104DF0001E0638D4460636D42068016821F04001EA
:104E00000160608D00282068406829D0C0F3090146
:104E1000608DFF2804D9FF2020854FF0807308E0C3
:104E2000608D2085E06A904201D0E36A01E04FF096
:104E30000073009594F82820204600F0E1F9608D79
:104E4000218D401A608594F841002228206801686D
:104E500003D041F48041016027E041F40041FAE7CA
:104E6000800117D505E05E0618D4460616D4608D7D
:104E700020B140212046FFF721FD16E0206841685F
:104E8000890112D4E16A914204D1416841F4804120
:104E900041600AE02046FFF749FE06E09A0604D486
:104EA000800602D42046FFF7C9FD84F84050002058
:104EB000F8BD00000000FFFF2DE9F843044690F81C
:104EC0004000494E01281AD0012084F84000CB430D
:104ED000DD064FF000076FEA020013D4C20611D4BA
:104EE00021681020C861606C40F0040060642021DB
:104EF0002046FFF747FC2046FFF788FC70E00220C1
:104F0000BDE8F8839A0708D4820706D4206D21688B
:104F100088624FF0FF30206562E01A064FF0FF050F
:104F20004FF080784FF000792FD442062DD4012124
:104F30002046FFF7F7FB10212046FFF723FC608D8A
:104F4000F0B1608DFF2803D925852A46009733E00C
:104F5000608D2085009736E0204600F051F9608D85
:104F6000218D401A608594F841002228206801684C
:104F700002D041F4804101E041F4004101602FE0A2
:104F800040212046FFF79AFC2AE05A0621D4420627
:104F90001FD401212046FFF7C5FB10212046FFF753
:104FA000F1FB94F84100222800D1104E608DFF28BB
:104FB00006D925852A460096E06C434681B2CBE7A8
:104FC000608D2085009694F82820E06C4B4681B2D5
:104FD000C2E79A0604D4800602D42046FFF72EFDCD
:104FE00084F8407000208BE70020008000240080BF
:104FF0002DE9F041C36A044690F8400000250128DD
:105000000DD0012084F84000CE43B7066FEA0200BD
:1050100008D4820606D42046FFF7AEFD60E00220E9
:10502000BDE8F081F20654D4C20652D446044FF0D3
:10503000100201D506042BD4E66B2EB1070403D46D
:105040003668766806B90125A66B26B1400402D4FD
:105050003068406800B1F5B194F84100282802D1C9
:10506000B3F1007F04D094F84100292804D00FE068
:105070002046FFF7B1FC33E013F5803F08D02068ED
:10508000C2612046FFF7C2FB2046FFF753FE27E030
:105090002068C26124E02068C261606C40F00400B6
:1050A000606494F8410013B1B3F1807F18D12128D6
:1050B00006D0292804D0222804D02A2802D003E0D0
:1050C000212000E022202063616C2046FFF7F6FBE0
:1050D00006E0320704D4000702D42046FFF7A7FBFE
:1050E000002084F840009BE72DE9F0410446C06AA7
:1050F00094F84030012B0DD0012384F84030CB438D
:105100009D066FEA020208D4950606D42046FFF7F2
:1051100033FD6FE00220BDE8F081384DDF064FF02F
:1051200080762DD4D7062BD4638D10226BB12168E5
:10513000CA61616C41F00401616408B1B04259D1A7
:10514000616C2046FFF7BAFB54E094F84130282BFD
:1051500002D1B0F1007F04D094F84110292904D085
:105160000BE02046FFF738FC44E0A84205D0206859
:10517000C2612046FFF74AFB39E02068C26139E08E
:105180005F0715D4570713D4618D61B12168496A4F
:10519000626A1170616A491C6162218D491E218514
:1051A000618D491E6185618D21BBA8421FD121E01F
:1051B0001D0705D4150703D42046FFF738FB19E077
:1051C000990717D4910715D4618D69B1606A216878
:1051D00000788862606A401C6062608D401E608555
:1051E000208D401E208505E0B04200D010B9204639
:1051F000FFF7A0FD002084F840008CE70000FFFFCF
:1052000010B5C1F3090141EA02410268029C194349
:105210002143506821F000414FF4806303EA545366
:10522000024C234398430843506010BDFF63FF03C3
:1052300010B590F841200021602A05D0016380F864
:105240004010FDF757FA10BD202280F8412001637D
:1052500080F84010FDF7F6F910BD000070B5DFEDE5
:105260001B0A2DED028B9FED1A8AB0EE480A00F062
:10527000A5FD184C40F2DC516068401C606088421B
:1052800021D9FBF789FA00EE100ADFED130A134D5E
:10529000B8EE400A20EE200A85ED030AB0EE480A77
:1052A000F0EE400A00F08AFD288908B9072028811D
:1052B00095F9101095ED030A80B200F027FD00204B
:1052C000606005202070BDEC028B70BD000048437B
:1052D000000000001C000020DA0FC93A2005002061
:1052E00070B5414C2DED028BDFED408A9FED408A79
:1052F0006168B1F5FA7F17D2F0EE680AB0EE480A9D
:1053000000F05CFD6068A0F58071F33906D184ED92
:10531000028A84ED038AFBF73FFA60806068401CD4
:105320006060BDEC028B70BD94ED020ADFED310AC6
:1053300030EE200ADFED300A84ED020A02F0AEF909
:10534000F0EE680A00F03AFDFBF726FA6188411A90
:10535000B1F5006F02DDA1F5805104E011F5006F99
:1053600001DA01F5805100EE101AD4ED030A234949
:10537000B8EEC00A30EE800A84ED030A60806068EF
:10538000401C6060A0688842CBDBB5EEC00AF1EE3D
:1053900010FA01DB012001E04FF0FF30DFED190AC8
:1053A000B0EEC00A164D60EE200A1749287410EEC0
:1053B000900A88420ADDB1EE001A81EE200A02F05E
:1053C000C5F9BCEEC00A10EE100A00E00720B0EEEE
:1053D000480A2881F0EE400A00F0F0FC00206060EE
:1053E000042020709DE700001C00002000004843BE
:1053F00000000000CDCC4C3DDA0FC940DA0FC941A6
:1054000020050020000080390AD7233C00EB8100F2
:10541000006E00F0F840704700EB8100006E00F075
:10542000F84070478068C0F3C00070478068C0F3E0
:10543000C00070478068C0F3800070478068C0F388
:1054400080007047C06810F4406F01D000207047A2
:1054500001207047042303EAD15310B5184443696F
:10546000C1F3045107248C40A3438A401343436192
:1054700010BD042303EAD15310B518444369C1F3A6
:10548000045107248C40A3438A401343436110BD59
:1054900000EB8100016E21F000411143016670476D
:1054A00000EB8100016E21F000411143016670475D
:1054B00040210148FDF75EB80004004870B592B085
:1054C00000240F9410943C2168461194FAF7E2FFEF
:1054D00029484FF0A041012501604FF44031C0E957
:1054E000011400F110010426C46081E87000047703
:1054F0004477056280F8244080F83840C46380F81F
:105500004040FCF74DFA08B1FBF7DAF90FA91A4849
:105510000F94FBF78FFE08B1FBF7D2F91748009004
:105520000920CDE901057F200594CDE9030602207D
:10553000089084200A908DF8244080208DF8254022
:105540000B908DF826408DF8304069460A48FBF7ED
:1055500005FA08B1FBF7B4F90948009040F20F10C2
:10556000019069460448FBF7F9F9002801D0FBF7E0
:10557000A7F912B070BD000038000020020030040E
:105580000800900C30B589B020216846FAF782FFF8
:105590001A481949002401604FF44031C0E9011450
:1055A000C46004250461C0E9054504770121417701
:1055B000016280F82440C462046380F83810C46338
:1055C00080F84040FCF7ECF908B1FBF779F90C489A
:1055D000009006200190022002907F200594CDE9E2
:1055E000030569460548FBF791FE002801D0FBF74B
:1055F00067F909B030BD000000010050A400002090
:105600002000F0141D4808B5816C41F0040181644C
:10561000816C01F004010091816C41F00101816411
:10562000806C002200F00100009003210B20FDF7A8
:10563000AFFA0B20FDF79FFA002211460C20FDF770
:10564000A7FA0C20FDF797FA002203210D20FDF7A1
:105650009FFA0D20FDF78FFA002211460E20FDF76C
:1056600097FA0E20FDF787FA002211460F20FDF76A
:105670008FFABDE808400F20FDF77DBA0010024008
:1056800070B586B014216846FAF704FF2948C16C4A
:1056900041F00401C164C16C01F004010591C16CC9
:1056A00041F02001C164C16C01F020010591C16C81
:1056B00041F00101C164C16C01F001010591C16CAF
:1056C00041F00201C164C06C1B4E00F00200059065
:1056D000002243213046FCF755FFF02000900220C5
:1056E0000024CDE901040520CDE9034069464FF0CF
:1056F0009040FCF725FE0320009011200125039423
:10570000CDE9010569463046FCF71AFE4FF44060CA
:105710008DE8310069463046FCF712FE40200090CB
:10572000CDE90154694630460394FCF709FE06B002
:1057300070BD00000010024000040048134810B57E
:10574000114901601249416000210122C0E90212A1
:10575000016141618161C1610162FCF7E5FF08B14E
:10576000FBF7AEF800210948FCF718FF08B1FBF77A
:10577000A7F800210548FCF73CFF002803D0BDE84E
:105780001040FBF79DB810BD005400407001002090
:10579000C285B24030B59BB0002419941A94179476
:1057A0001894149415941C2168461694FAF772FE06
:1057B000342107A8FAF76EFE3B483A49C0E90014C5
:1057C0002021816041F29901C0E903140121C0E95F
:1057D0000514FEF718F808B1FBF772F84FF4805083
:1057E000179017A93048FEF7A3F808B1FBF768F83F
:1057F0002D48FEF7CCFA08B1FBF762F87025CDE929
:10580000145414A928481694FDF752FF08B1FBF769
:1058100057F86020CDE900040294039404940594A1
:105820000022694620480694FEF71FFA08B1FBF7EC
:1058300047F8042269461C48FEF717FA08B1FBF73F
:105840003FF8082269461848FEF70FFA08B1FBF73F
:1058500037F80520CDE900500C2269461248FEF7C2
:1058600004FA08B1FBF72CF8079419200894CDE945
:1058700009404FF40050CDE90B400D9400030E9405
:10588000CDE90F401194129407A907481394FDF72E
:10589000BDFE08B1FBF714F80348FEF79BF91BB0F7
:1058A00030BD0000002C01408402002010B588B0FB
:1058B00000241748009401940294039404940594DE
:1058C0004FF0804106940160A921C0E9011440F223
:1058D000E731C0E903148461FDF795FF08B1FAF7D9
:1058E000EFFF4FF48050009069460948FEF720F81A
:1058F00008B1FAF7E5FF049404A905480694FDF7FA
:10590000D7FE002801D0FAF7DBFF08B010BD000079
:10591000D0020020184810B5164901604FF46121EB
:105920004160002181600C22C160C0E904128161E4
:10593000C161016241628162FEF74EFD08B1FAF772
:10594000BFFF00210C48FEF790FB08B1FAF7B8FF43
:1059500000210948FEF763FB08B1FAF7B1FF0648DA
:10596000FEF7FDFA002803D0BDE81040FAF7A8BF03
:1059700010BD0000004400401C030020FEE70000B2
:1059800010B5B5EEC00AF0EE411A2DED068BF1EE22
:1059900010FA3FD9F5EEC00AF1EE10FA3AD92548CF
:1059A0009FED1F1ADFED1D8ADFED1F9A20EE819A11
:1059B00020EE010ADFED1B0AF0EE682AB0EE691A4C
:1059C00020EE20AA9FED190ADFED190A21EE800AC8
:1059D00020EE208AF0EE4A0AB0EE490AF1EE48AA1B
:1059E000F0EE481AB0EE6A2A00F04CFDF0EE682A9C
:1059F000B0EE6A2AF0EE481AB0EE691AF0EE4A0AE2
:105A0000B0EE490ABDEC068B0A48BDE810403030C4
:105A100000F038BDBDEC068B10BD000017B7513843
:105A2000939EEB44CDCCCC3E0000000036CD133F1E
:105A30003333733FAC04002070EE200AF0EE001AFE
:105A4000B0EE401AF1EE600A00EEA11ADFED020A94
:105A500061EE200A704700003ACD133F064910B5A9
:105A600081F8A40001F13C0000F030FD0248BDE8DF
:105A700010406C3000F02ABD7004002010B588B0D2
:105A8000044672B6202206496846FAF7D1FC62B68F
:105A9000202269462046FAF7CBFC08B010BD000072
:105AA0007004002070B5284C9FED260A01202DEDD2
:105AB000048B0025B9EE0A2A84ED000A9FED230A23
:105AC0009FED258A84ED010A9FED210ADFED238AEF
:105AD00084ED020AB3EE040A84ED030A9FED1D0A69
