:020000040800F2
:10000000D00C002079020008C5780008A954000827
:100010009D6E0008450800083992000800000000A5
:100020000000000000000000000000003D7E00080D
:100030005109000800000000C57D0008DD810008AE
:10004000930200089302000893020008930200083C
:10005000930200089302000893020008930200082C
:100060009302000893020008930200084908000860
:10007000590800086908000879080008890800087C
:1000800093020008000000007D05000893020008AC
:1000900093020008930200089302000893020008EC
:1000A00093020008930200089302000893020008DC
:1000B0006582000893020008930200086555000855
:1000C00055550008930200089302000893020008A7
:1000D0009302000893020008299200089302000886
:1000E000930200089302000893020008930200089C
:1000F0009302000893020008930200080000000029
:1001000000000000930200080000000093020008B5
:100110009302000800000000930200089302000808
:10012000930200089302000893020008930200085B
:100130009302000800000000000000009302000885
:100140009302000893020008000000000000000075
:10015000000000000000000000000000000000009F
:1001600000000000000000000000000093020008F2
:1001700093020008000000000000000000000000E2
:1001800000000000930200080000000000000000D2
:10019000000000000000000000000000000000005F
:1001A0000000000000000000930200089302000815
:1001B0009302000893020008930200080000000068
:1001C0000000000093020008000000000000000092
:1001D000930200089302000800F002F800F03CF8D7
:1001E0000AA090E8000C82448344AAF10107DA4592
:1001F00001D100F031F8AFF2090EBAE80F0013F0A8
:10020000010F18BFFB1A43F00103184738A3000081
:1002100058A30000103A24BF78C878C1FAD8520712
:1002200024BF30C830C144BF04680C607047000070
:100230000023002400250026103A28BF78C1FBD8EF
:10024000520728BF30C148BF0B6070471FB509F087
:100250009AFD1FBD10B510BD00F05AF91146FFF709
:10026000F5FF09F0D5FB00F078F903B4FFF7F2FFD2
:1002700003BC00F07BF900000948804709480047AB
:10028000FEE7FEE7FEE7FEE7FEE7FEE7FEE7FEE746
:10029000FEE7FEE704480549054A064B70470000A3
:1002A00051820008D9010008D0060020D00C00209F
:1002B000D0080020D008002053EA020C00F069802A
:1002C0002DE9F04B4FF00006002B1FBFB3FA83F56A
:1002D00003FA05F424FA05F65E4012BF1643B2FA9B
:1002E00082F502FA05F4C5F120051EBF22FA05FCCD
:1002F00044EA0C04203556EA044C4FEA144418BF73
:10030000641C4FF000084FF00009904271EB030CA1
:1003100039D3002919BFB1FA81F701FA07F6B0FA0B
:1003200080F700FA07F6C7F120071EBF20FA07FC86
:1003300046EA0C062037B6FBF4FCA7EB0507103F96
:1003400007F01F0BCBF120060CFA0BFB2CFA06F67C
:1003500044BFB3460026202FA4BF5E464FF0000BDB
:100360005BEA060C08BF4FF0010B19EB0B09ABFB66
:10037000027C48EB0608C01B06FB02CC0BFB03CC3F
:1003800071EB0C01C1E70B46024641464846BDE809
:10039000F08B13B54FF000004FF00001AFF3008079
:1003A000BDE81C407047032A40F2308010F0030C77
:1003B00000F0158011F8013BBCF1020F624498BFB8
:1003C00011F801CB00F8013B38BF11F8013BA2F155
:1003D000040298BF00F801CB38BF00F8013B11F0D0
:1003E000030300F02580083AC0F0088051F8043B70
:1003F000083A51F804CBA0E80810F5E7121D5CBFDD
:1004000051F8043B40F8043BAFF30080D20724BF0F
:1004100011F8013B11F801CB48BF11F8012B24BFA3
:1004200000F8013B00F801CB48BF00F8012B7047F2
:1004300010B5203AC0F00B80B1E81850203AA0E87F
:100440001850B1E81850A0E81850BFF4F5AF5FEAB3
:10045000027C24BFB1E81850A0E8185044BF18C966
:1004600018C0BDE810405FEA827C24BF51F8043B0D
:1004700040F8043B08BF7047D20728BF31F8023B61
:1004800048BF11F8012B28BF20F8023B48BF00F8F5
:10049000012B70474FF0000200B513469446964674
:1004A000203922BFA0E80C50A0E80C50B1F1200187
:1004B000BFF4F7AF090728BFA0E80C5048BF0CC035
:1004C0005DF804EB890028BF40F8042B08BF704793
:1004D00048BF20F8022B11F0804F18BF00F8012B05
:1004E000704770477047704710B500F009F8006812
:1004F00010BD10B5044600F003F8046010BD000004
:10050000004870476C060020004870476C060020C9
:100510007546FFF7F9FFAE4605006946534620F0E1
:100520000700854618B020B5FFF7B4FEBDE82040AF
:100530004FF000064FF000074FF000084FF0000B9F
:1005400021F00701AC46ACE8C009ACE8C009ACE852
:10055000C009ACE8C0098D46704710B50446AFF33A
:1005600000802046BDE81040FFF77FBE01491820FB
:10057000ABBEFEE7260002007047000010B503483E
:1005800001F0F0FA024801F0EDFA10BD5000002031
:10059000BC0000202DE9F05F044688464FF00009BA
:1005A0004746206806F060F98246206806F034F974
:1005B0008346BAF1000F02D1BBF1000F72D0206860
:1005C000C06800F0007000B3607F01281DD1207F5B
:1005D00001281AD101270FE0334881450AD3E06D85
:1005E00040F01000E065206E40F001002066012020
:1005F000BDE8F09F09F1010920680068C0F3801090
:100600000028E9D0402021680860022F10D020681F
:1006100006F02AF960B1206806F012F940B92068A6
:100620008168224A114041F01001816000BF00BF83
:10063000012F10D0206806F0EFF860B1206806F0B6
:10064000FFF840B920688168184A114041F0200144
:10065000816000BF00BF022F03D0032F03D10C2500
:1006600003E0082501E0042500BF00BF02F0C4FA42
:10067000064612E002F0C0FA801B05280DD920685A
:100680008068284048B1E06D40F01000E065206EC1
:1006900040F0010020660120AAE720688068284019
:1006A0000028E7D10020A3E7000040A3C0FFFF7FA0
:1006B00070B50446206806F0C3F80646206806F0C8
:1006C000C4F898B396BB2068806800F00D0001283C
:1006D0000AD1206881681A4A1140891C816000BFD4
:1006E00003202168086009E0E06D40F01000E0653B
:1006F000206E40F001002066012070BD02F07CFAFF
:10070000054614E002F078FA401B02280FD9206851
:10071000806800F0010050B1E06D40F01000E0652D
:10072000206E40F0010020660120E6E705E0206829
:10073000806800F001000028E4D10020DDE700001F
:10074000C0FFFF7F38B5044600200090206806F007
:100750007CF800284FD1206880682849084048B1BB
:10076000E06D40F01000E065206E40F00100206672
:10077000012038BD206806F02BF800BF20488068B3
:1007800000F0E07000F4000080B11E4800681E49CF
:10079000B0FBF1F0401C00EB40008000009002E054
:1007A0000098401E009000980028F9D102F024FA29
:1007B00005461AE0206806F048F810B9206806F0EF
:1007C00007F802F019FA401B02280ED920680068C9
:1007D00000F0010048B9E06D40F01000E065206EC7
:1007E00040F0010020660120C3E72068006800F0A7
:1007F00001000028DED00020BBE700003F000080A1
:100800000003005010000020400D03000148008844
:1008100070470000160000201CB5084802F0DAFA04
:10082000202809D10220064901230C22CDE900101D
:100830006C21024802F062FB1CBD00008801002010
:100840001400002000BFFEE710B5024801F0A8FE2A
:1008500010BD0000DC01002010B5024801F0A0FE30
:1008600010BD00002801002010B5024801F098FEDC
:1008700010BD00003C02002010B5024801F090FEBF
:1008800010BD0000C803002010B5024801F088FE2A
:1008900010BD00002804002030B5114D0468AC42A2
:1008A00006D210490478083C1425B4FBF5F207E0A1
:1008B0000C4920310478083C1425B4FBF5F4A21D42
:1008C0000B46446CA40803EB84048464054C803418
:1008D000C46402F01F050124AC40046530BD000073
:1008E0000804024000080240027902F07F014A1E1B
:1008F000064B03EB82024265044A403282654A1E7F
:1009000002F01F0301229A40C265704700090240AD
:1009100030B5D0E913546C60446D14B1D0E916546D
:100920006C6090F8444004F01F050124AC40056C55
:100930006C60046863608468102C04D10468A26051
:100940000468E16003E00468A1600468E26030BD0F
:10095000704772B600BFFEE7F8B504460D460020AA
:10096000009000BF94F85800012801D10220F8BD82
:10097000012084F8580000BF2046FFF799FE064684
:100980008EBBE06D20F4885040F00200E0652068E6
:1009900081681B4A114005F0804242F00042114339
:1009A000816000BF13E00098401C0090154900983A
:1009B00088420CD3E06D20F0020040F01000E065AA
:1009C00000BF002084F8580000BF0120CFE7206856
:1009D0008168C90F0029E6D1E06D20F0020040F0E7
:1009E0000100E06504E0FFE7E06D40F01000E06525
:1009F00000BF002084F8580000BF3046B7E7000071
:100A0000C0FFFF3F02DE0400704700002DE9FC5FDD
:100A100005460C460020019000900027686900B14F
:100A200000BFFE49E068884200D000E000BF00BF80
:100A300095F85800012802D10220BDE8FC9F012052
:100A400085F8580000BF686910B1206A01281ED1DE
:100A5000606809284ED1A06A60B194F8280000F0BF
:100A60007C002168C1F3846140EA4120E16A40EAE8
:100A7000010703E02068C0F3846047022868C06C67
:100A8000E749084038432968C8646F6632E0A86EB9
:100A900090B9216AA96600206866A06A50B1206AF0
:100AA000401E94F8281001F07C010843E16A40EAF6
:100AB000010701E0206A471E207900F01F01002095
:100AC000884087432068C0F38460217901F01F01CA
:100AD00088400743A86E401EA866686E3843686663
:100AE000A86E38B92868C06CCD490840696E0843C3
:100AF0002968C864286805F094FED8B994F82500E0
:100B000070B994F82600400594F8241040EA01508A
:100B10002968C96821F4401108432968C86009E0C0
:100B20002868C06820F4401094F8261040EA41502C
:100B30002968C860286805F09CFE8246286805F090
:100B400070FE8146BAF1000F7ED1B9F1000FFBD1E2
:100B5000A06A08B1E06A88B994F82500012806D196
:100B60002868C06840F000702968C86017E02868ED
:100B7000C06820F000702968C86010E094F8250073
:100B8000012806D1E86D40F02000E86501200190C1
:100B900005E02868C06820F000702968C86094F8F3
:100BA000300001280CD1606B40F00200A16B0843BB
:100BB0002968096921F4FF7108432968086105E083
:100BC0002868006920F0020029680861A068B0F177
:100BD000004F0AD121680022286805F075FE4FF009
:100BE0000041286805F0ACFE08E0A268216828688A
:100BF00005F06AFE0021286805F0A2FE60692968F8
:100C0000C968C1F3C101490000FA01F8206904284C
:100C100040D028682268216900F1600C0CEB810348
:100C2000D3F800C0DFF8FCB10CEA0B0C02F0F84B73
:100C30004BF0004B4BEA080B4CEA0B0CC3F800C01E
:100C400000BF2868A26900E0CCE0216900F1600CD7
:100C50000CEB8103D3F800C02CF0807C4CEA020C32
:100C6000C3F800C000BF2868227F2169012A01D192
:100C7000520600E00022134600F1600C0CEB8102EA
:100C8000D2F800C02CF0007C4CEA030CC2F800C083
:100C900000BFA7E00021286805F0B0FDC0F31200F6
:100CA00030B90021286805F0A9FDC0F3846007E091
:100CB0000021286805F0A2FD90FAA0F0B0FA80F0BB
:100CC0002168C1F3120119B92168C1F3846104E0FC
:100CD000216891FAA1F1B1FA81F1884204D1002290
:100CE0001146286805F01BFE0121286805F086FDE5
:100CF000C0F3120030B90121286805F07FFDC0F370
:100D0000846007E00121286805F078FD90FAA0F0E2
:100D1000B0FA80F02168C1F3120119B92168C1F35A
:100D2000846104E0216891FAA1F1B1FA81F188426D
:100D300004D100220121286805F0F1FD0221286874
:100D400005F05CFDC0F3120030B90221286805F0FF
:100D500055FDC0F3846007E00221286805F04EFDD0
:100D600090FAA0F0B0FA80F02168C1F3120119B92D
:100D70002168C1F3846104E0216891FAA1F1B1FA1C
:100D800081F1884204D100220221286805F0C7FDC4
:100D90000321286805F032FDC0F3120030B90321A9
:100DA000286805F02BFDC0F3846007E00321286864
:100DB00005F024FD90FAA0F0B0FA80F02168C1F3AC
:100DC000120119B92168C1F3846104E0216891FA24
:100DD000A1F1B1FA81F1884204D1002203212868EF
:100DE00005F09DFD286805F035FD002873D12868C1
:100DF000E2682168D0F8B030C1F3120C23EA0C038A
:100E000002F0180BDFF820C02CFA0BFC0CEA010CE6
:100E100043EA0C03C0F8B03000BF07E000007F4099
:100E20000040100400F0FF03FFFF07007849E0686E
:100E3000884250D12368C3F312031BB92368C3F35C
:100E4000846304E0236893FAA3F3B3FA83F35B1C8F
:100E500003F01F03092B3FD82368C3F312031BB908
:100E60002368C3F3846304E0236893FAA3F3B3FA1B
:100E700083F35B1C03F01F034FF0010C0CFA03FC1F
:100E80002368C3F312031BB92368C3F3846304E02C
:100E9000236893FAA3F3B3FA83F35B1C03F01F03F5
:100EA0004CEA836C2368C3F312031BB92368C3F3B2
:100EB000846304E0236893FAA3F3B3FA83F35B1C1F
:100EC00003F01F0303EB43034FF0000B4BEA035304
:100ED0004CEA03033FE043E02368C3F312031BB96A
:100EE0002368C3F3846304E0236893FAA3F3B3FA9B
:100EF00083F35B1C03F01F034FF0010C0CFA03FC9F
:100F00002368C3F312031BB92368C3F3846304E0AB
:100F1000236893FAA3F3B3FA83F35B1C03F01F0374
:100F20004CEA836C2368C3F312031BB92368C3F331
:100F3000846304E0236893FAA3F3B3FA83F35B1C9E
:100F400003F01F030A3B03EB43034FF0007B4BEA24
:100F500003534CEA03031946A268286805F0B4FC61
:100F60002C492068084050B300BF2B48806800F02F
:100F7000E07600BF29492068884203D028492068CC
:100F800088421DD106F40000D0B92868B0F1A04F06
:100F900037D146F40001204805F0B0FC2148006834
:100FA0002149B0FBF1F0801C00EB40008000009074
:100FB00002E00098401E009000980028F9D120E03F
:100FC0001A49206888420CD106F0807048B9184947
:100FD0002868884215D046F080710F4805F08EFCD5
:100FE0000FE01449206888420BD106F4800040B914
:100FF0000F492868884204D046F48001064805F06D
:101000007DFC00BF002085F8580000BF019814E562
:1010100000007F400000088000030050000021C352
:101020001000C09010000020400D0300000052C7C7
:1010300000010050000084CB70B506462C48864263
:1010400000D070BD09212A4800F05CF884B240F25B
:101050000F11274800F056F885B22648007888B965
:1010600000EE104AB8EE400A234880ED000A00EE78
:10107000105AB8EE400A214880ED000A01201D49AF
:10108000087021E000EE104AB8EE400A1A48D0ED90
:10109000000A70EE600A90ED000A9FED191A01EE49
:1010A000200A80ED000A00EE105AB8EE400A1348FC
:1010B000D0ED000A70EE600A90ED000A9FED101A64
:1010C00001EE200A80ED000A0C4A92ED000ABCEE07
:1010D000C00A10EE102A91B2074A92ED000ABCEE47
:1010E000C00A10EE102A90B206F048F800BFA8E738
:1010F00050000020240000201C00002020000020C0
:101100009A99993E0246092915D0A1F20F136BB1A5
:10111000B3F5837F06D0B3F5037F0BD11368D3F803
:101120008C000CE01368D3F8880008E01368D3F84B
:10113000840004E000BF1368D3F8800000BF00BF44
:10114000704700002DE9F84F04460F4600BF4B489A
:10115000806800F01F008146A069082801D1402660
:1011600000E0202601F048FD804618E0781CB0B170
:1011700001F042FDA0EB0800B84200D87FB920681A
:101180000068304058B9E06D40F00400E06500BFF1
:10119000002084F8580000BF0320BDE8F88F2068C5
:1011A000006830400028E1D02068C16C01F4C071B3
:1011B00009B9012100E000218A4600BF2068C1680A
:1011C00001F4406109B9012100E000218B4600BF14
:1011D0002B492068884202D14FF0A04000E02068EF
:1011E0002168884208D0B9F1000F05D0B9F1060F87
:1011F00002D0B9F1070F02D12068C5680AE0204982
:101200002068884202D14FF0A04000E020680090A2
:101210000098C568E06D40F40050E065BAF1000F39
:1012200008D105F00070D0B9BBF1000F17D005F45C
:101230000050A0B92068006800F0400040280ED19E
:1012400005F4001058B9E06D20F48050E065E06DC1
:1012500000F4807018B9E06D40F00100E065402EA8
:1012600006D105F4804030B960202168086002E0B2
:1012700020202168086000208FE700000003005054
:1012800000010050704700002DE9F041044600BF06
:101290003D48806800F01F000546206805F0C1FA4F
:1012A00010B10220BDE8F0812068C06800F000475E
:1012B0002068C06C00F4C07030B92FB9E06D40F008
:1012C0002000E0650120EDE700BF94F858000128F8
:1012D00001D10220E6E7012084F8580000BF204633
:1012E000FFF730FA0646002E46D1E06D00F480701C
:1012F00020B1206E20F00800206601E0002020666A
:10130000E06D42F20101884340F48050E0651F49DE
:101310002068884202D14FF0A04000E02068216898
:10132000884200D01DB9E06D20F48010E065602097
:101330002168086000BF002084F8580000BF1349EE
:101340002068884202D14FF0A04000E02068216868
:10135000884204D01DB1062D01D0072D07D1206889
:1013600005F055FA68B9206805F060FA09E0E06D0B
:1013700040F48010E06504E000BF002084F85800CD
:1013800000BF30468EE7000000030050000100500F
:101390002DE9F041044600BF5248806800F01F006C
:1013A0000546206805F03DFA10B10220BDE8F08145
:1013B0002068C06800F000472068C06C00F4C0706E
:1013C00030B92FB9E06D40F02000E0650120EDE775
:1013D00000BF94F85800012801D10220E6E701205F
:1013E00084F8580000BF2046FFF7ACF90646002EEF
:1013F00070D1E06D00F4807020B1206E20F0080004
:10140000206601E000202066E06D42F20101884381
:1014100040F48050E06534492068884202D14FF0A2
:10142000A04000E020682168884200D01DB9E06D2E
:1014300020F48010E06560202168086000BF002073
:1014400084F8580000BF2068C06800F4001028B17C
:101450002068406840F4806021684860A0690828DE
:101460000CD12068406820F0200021684860206886
:10147000406840F04000216848600CE02068406807
:1014800020F04000216848602068406840F020005B
:101490002168486000BF00BF13492068884202D11C
:1014A0004FF0A04000E020682168884204D01DB1C0
:1014B000062D01D0072D07D1206805F0A8F970B9D5
:1014C000206805F0B3F90AE0E06D40F48010E065B3
:1014D00005E0FFE700BF002084F8580000BF304659
:1014E00064E70000000300500001005070B504469E
:1014F00000BF94F85800012801D1022070BD0120DE
:1015000084F8580000BF02212046FFF743F8054643
:101510009DB9206805F0ADF958B92046FFF7C8F825
:10152000054655B9E06D20F4885040F00100E065B3
:1015300003E0E06D20F48050E06500BF002084F8F7
:10154000580000BF2846D9E7704770472DE9F0439F
:101550009BB004460E464FF00008306800B100BF53
:1015600000BF94F85800012803D102201BB0BDE849
:10157000F083012084F8580000BF002017901890D5
:101580002068B0F1A04F02D13148009001E0002066
:101590000090009850B9E06D40F02000E06500BF79
:1015A000002084F8580000BF0120DFE7009805F014
:1015B00060F90746206805F05CF9D8BBD7BB254D1C
:1015C000306800B394F83800716841EA4030A96887
:1015D00021F460410843A8604FF0A04005F03AF9BB
:1015E00081461B4805F036F949EA0009B9F1000FB8
:1015F00027D1B16830680843A96840F61F7291434B
:101600000843A8601DE0A86820F46040A8604FF07F
:10161000A04005F01FF981460D4805F01BF949EA85
:101620000009B9F1000F0CD1A86840F61F7188437A
:10163000A86006E0FFE7E06D40F02000E0654FF0B5
:10164000010800BF002084F8580000BF40468DE725
:1016500000010050000300502DE9F84F05460C46EC
:101660004FF0000A00200090FE49E068884200D058
:1016700000E000BF00BF95F85800012802D1022009
:10168000BDE8F88F012085F8580000BF286805F0F4
:10169000EBF800287DD12968D4E9002001F1300C55
:1016A000C0F3012B0CEB8B03D3F800C000F01F0E2E
:1016B0004FF01F0B0BFA0EFB2CEA0B0C00F01F0B6C
:1016C000C2F3846E0EFA0BFE4CEA0E0CC3F800C097
:1016D00000BF286805F0C8F88146286805F09CF826
:1016E0008046B9F1000F64D1B8F1000FFBD1A068BA
:1016F000B0F1004F0AD121680022286805F0D0F827
:101700004FF00041286805F015F908E0A26821684B
:10171000286805F0C5F80021286805F00BF9606914
:101720002968C968C1F3C101490000FA01F72069BD
:1017300004283FD028682268216900F1600C0CEB76
:101740008103D3F800C0DFF820B30CEA0B0C02F0E1
:10175000F84B4BF0004B4BEA070B4CEA0B0CC3F871
:1017600000C000BF2868A269216900F1600C0CEB81
:101770008103D3F800C02CF0807C4CEA020CC3F843
:1017800000C000BF2868227F2169012A02D15206C9
:1017900001E0C6E10022134600F1600C0CEB81026F
:1017A000D2F800C02CF0007C4CEA030CC2F800C058
:1017B00000BFA7E00021286805F017F8C0F3120069
:1017C00030B90021286805F010F8C0F3846007E004
:1017D0000021286805F009F890FAA0F0B0FA80F02E
:1017E0002168C1F3120119B92168C1F3846104E0D1
:1017F000216891FAA1F1B1FA81F1884204D1002265
:101800001146286805F080F80121286804F0EDFFF2
:10181000C0F3120030B90121286804F0E6FFC0F3DC
:10182000846007E00121286804F0DFFF90FAA0F04F
:10183000B0FA80F02168C1F3120119B92168C1F32F
:10184000846104E0216891FAA1F1B1FA81F1884242
:1018500004D100220121286805F056F802212868E9
:1018600004F0C3FFC0F3120030B90221286804F06D
:10187000BCFFC0F3846007E00221286804F0B5FFD4
:1018800090FAA0F0B0FA80F02168C1F3120119B902
:101890002168C1F3846104E0216891FAA1F1B1FAF1
:1018A00081F1884204D100220221286805F02CF839
:1018B0000321286804F099FFC0F3120030B9032116
:1018C000286804F092FFC0F3846007E003212868D1
:1018D00004F08BFF90FAA0F0B0FA80F02168C1F319
:1018E000120119B92168C1F3846104E0216891FAF9
:1018F000A1F1B1FA81F1884204D1002203212868C4
:1019000005F002F8286804F0A0FF002872D12868CA
:10191000E2682168D0F8B030C1F3120C23EA0C035E
:1019200002F0180BDFF844C12CFA0BFC0CEA010C96
:1019300043EA0C03C0F8B03000BF4A49E06888426F
:1019400058D12368C3F312031BB92368C3F384631C
:1019500004E0236893FAA3F3B3FA83F35B1C03F068
:101960001F03092B3ED82368C3F312031BB9236856
:10197000C3F3846304E0236893FAA3F3B3FA83F315
:101980005B1C03F01F034FF0010C0CFA03FC2368EF
:10199000C3F312031BB92368C3F3846304E0236811
:1019A00093FAA3F3B3FA83F35B1C03F01F034CEA2F
:1019B000836C2368C3F312031BB92368C3F38463E6
:1019C00004E0236893FAA3F3B3FA83F35B1C03F0F8
:1019D0001F0303EB43034FF0000B4BEA03534CEAA6
:1019E000030347E02368C3F3120323B92368C3F357
:1019F000846305E043E0236893FAA3F3B3FA83F327
:101A00005B1C03F01F034FF0010C0CFA03FC23686E
:101A1000C3F312031BB92368C3F3846304E0236890
:101A200093FAA3F3B3FA83F35B1C03F01F034CEAAE
:101A3000836C2368C3F312031BB92368C3F3846365
:101A400004E0236893FAA3F3B3FA83F35B1C03F077
:101A50001F030A3B03EB43034FF0007B4BEA0353A6
:101A600006E0000000007F4000F0FF03FFFF0700DA
:101A70004CEA03031946A268286804F011FF2F49B5
:101A80002068084050B300BF2D48806800F0E07621
:101A900000BF2C492068884203D02B492068884227
:101AA0001DD106F40000D0B92868B0F1A04F3ED196
:101AB00046F40001224804F01BFF24480068244932
:101AC000B0FBF1F0401C00EB40008000009002E011
:101AD0000098401E009000980028F9D127E01D4989
:101AE000206888420CD106F0807048B91A492868ED
:101AF00088421CD046F08071114804F0F9FE16E0CF
:101B000016492068884212D106F4800078B912493B
:101B1000286888420BD046F48001094804F0E8FEAA
:101B200005E0E86D40F02000E8654FF0010A00BFD5
:101B3000002085F8580000BF5046A1E5000008804D
:101B400000030050000021C31000C09010000020CE
:101B5000400D0300000052C700010050000084CB7C
:101B6000704770472DE9F84F044600200090206828
:101B7000056820684668C54804F032FE074605F04F
:101B80000200022811D106F0020002280DD1E06DFA
:101B900000F0100018B9E06D40F40060E0652046E8
:101BA000FEF732FF02202168086005F004000428D7
:101BB00003D106F00400042807D005F00800082827
:101BC0005FD106F0080008285BD1E06D00F010003E
:101BD00018B9E06D40F40070E065206804F04EFE36
:101BE000002848D0AA492068884202D14FF0A0407E
:101BF00000E020682168884204D01FB1052F01D081
:101C0000092F03D12068D0F80C800AE0A049206891
:101C1000884202D14FF0A04000E020688346DBF804
:101C20000C8008F40050B0F5005F24D020680068F4
:101C300000F0080008281ED1206804F015FE90B9B5
:101C40002068406820F00C0021684860E06D20F4B6
:101C50008070E065E06D00F4805060B9E06D40F0A8
:101C60000100E06507E0E06D40F01000E065206EE7
:101C700040F0010020662046FFF772FF0C2021682B
:101C8000086005F02000202803D106F0200020285D
:101C900007D005F04000402872D106F040004028EF
:101CA0006ED1E06D00F0100018B9E06D40F4005006
:101CB000E0652068C16C01F4C07109B9012100E040
:101CC00000218A4600BF206804F0D8FD8146704993
:101CD0002068884202D14FF0A04000E020682168CF
:101CE000884204D01FB1062F01D0072F03D12068EE
:101CF000D0F80C800AE066492068884202D14FF093
:101D0000A04000E020688346DBF80C80BAF1000FA9
:101D100030D008F0007028B1B9F1000F2AD008F4D3
:101D2000005038BB2068006800F04000402821D1F6
:101D300008F40010F0B9206804F06EFD90B9206836
:101D4000406820F0600021684860E06D20F4805019
:101D5000E065E06D00F4807060B9E06D40F0010076
:101D6000E06507E0E06D40F01000E065206E40F0B7
:101D7000010020662046FFF75FF9602021680860B7
:101D800005F0800080280DD106F08000802809D160
:101D9000E06D40F48030E065204600F0A9F9802035
:101DA0002168086005F48070B0F5807F0FD106F4DB
:101DB0008070B0F5807F0AD1E06D40F40030E065BE
:101DC0002046FFF7C1FB4FF480702168086005F4DE
:101DD0000070B0F5007F0FD106F40070B0F5007F01
:101DE0000AD1E06D40F48020E0652046FFF7ADFBAE
:101DF0004FF400702168086005F0100010282AD107
:101E000006F01000102826D1E06B10B901200090D8
:101E100010E047B100BF1D48806800F4604048B141
:101E20000120009006E02068C06800F0010008B1C1
:101E300001200090009801280AD1E06D40F48060F4
:101E4000E065206E40F0020020662046FFF789FE24
:101E500010202168086005F48060B0F5806F13D110
:101E600006F48060B0F5806F0ED1E06D40F48040E4
:101E7000E065206E40F0080020664FF48060216825
:101E800008602046FFF7FEF9BDE8F88F0003005018
:101E9000000100502DE9F84304464FF000080020EF
:101EA000009014B90120BDE8F883606920B194F86E
:101EB0002400012800D100BFE06D30B9204600F0B9
:101EC00019F90020206684F8580020688168C1F361
:101ED000407131B1206881687E4A1140816000BF45
:101EE00000BF206804F0BBFCB0B9206881687A4A62
:101EF000114041F08051816000BF78480068784906
:101F0000B0FBF1F0401C4000009002E00098401E41
:101F1000009000980028F9D1206804F0A0FC48B98E
:101F2000E06D40F01000E065206E40F0010020669A
:101F30004FF00108206804F097FC0646E06D00F0C1
:101F40001000002877D1002EFCD1E06D20F48070C5
:101F500040F00200E065206804F077FCB0B94FF073
:101F6000A04004F072FC81465E4804F06EFC49EA31
:101F70000009B9F1000F09D160685B49896821F453
:101F80007C110143584A916000BF00BF607FE16B44
:101F900041EA4030E1680843A168084394F82410FE
:101FA00040EA014594F82400012803D1208D401E09
:101FB00045EA4045E06A28B1A08D00F47870216BB5
:101FC000084305432068C068484908402843216801
:101FD000C8602068006920F04060616B0843216898
:101FE0000861206804F018FC0746002E50D1EFBBB2
:101FF000207F002141EA803194F8380041EA400511
:102000002068C06844F20201884328432168C86000
:10201000206988B12068006940F480302168086137
:102020002068D0F8C0006FF30D00216908432168D3
:10203000C1F8C0000EE045E02068006920F480305F
:10204000216808612068D0F8C0006FF30D00216896
:10205000C1F8C00094F84000012813D1606C40F032
:102060000101A06C0843E16C084300E010E0216D21
:1020700008432168096940F2FC72914308432168D2
:10208000086105E02068006920F00100216808610E
:102090006069012809D12068006B20F00F00216AD7
:1020A000491E08432168086305E02068006B20F0A2
:1020B0000F0021680863E06D20F0020040F001008D
:1020C000E06505E0E06D40F01000E0654FF00108CC
:1020D0004046E8E6C0FFFF5FC0FFFF7F1000002022
:1020E000400D030000010050000300500740F0FFC6
:1020F0007047000010B598B00446142113A8FEF7ED
:10210000C9F9442102A8FEF7C5F92068B0F1A04F33
:1021100043D14FF4004002908003119002A801F0D7
:1021200003FA08B1FEF715FC59480068401C5849ED
:1021300008600846006801280DD100BF5548C06CF2
:1021400040F400505349C8640846C06C00F4005085
:10215000019000BF00BF00BF4E48C06C40F00100BE
:102160004C49C8640846C06C00F00100019000BFF3
:1021700000BF07201390032014900020159013A98E
:102180004FF0904000F03AFC00221146122001F07E
:10219000E3F8122001F0CCF878E03F49206888424B
:1021A00074D1C00102908003119002A801F0BCF923
:1021B00008B1FEF7CEFB36480068401C3449086081
:1021C0000846006801280DD100BF3248C06C40F4B9
:1021D00000503049C8640846C06C00F400500190BB
:1021E00000BF00BF00BF2B48C06C40F0040029496D
:1021F000C8640846C06C00F00400019000BF00BF36
:1022000000BF0846C06C40F00200C8640846C06CBD
:1022100000F00200019000BF00BF102013900320C7
:1022200014900020159013A91C4800F0E7FB04202F
:102230001390032014900020159013A9184800F063
:10224000DDFB184818490860242048600021164822
:102250008160C16080210161490041618900816123
:102260002021C1610021016200F01AFA08B1FEF7D5
:1022700070FB00BF0C486065846200BF00221146FD
:10228000122001F069F8122001F052F818B010BDC8
:10229000000000200010024000010050000800482B
:1022A000000400481C000240280100202DE9F041F4
:1022B0000446434804F094FA0646206804F0D4FA31
:1022C00000287AD100BF94F85800012802D10220DA
:1022D000BDE8F081012084F8580000BF2046FEF7D9
:1022E00031FA0546002D63D1E06D40F60161884367
:1022F00040F48070E06533492068884202D14FF095
:10230000A04000E020682168884200D01EB9E06D3E
:1023100020F48010E065E06D00F48050B0F5805F3F
:1023200004D1206E20F00600206601E00020206627
:102330001C202168086000BF002084F8580000BFFE
:1023400020492068884202D14FF0A04000E0206878
:102350002168884204D01EB1052E01D0092E0ED16D
:102360002068C06800F0007028B1E06D20F40050D3
:1023700040F48050E065206804F08AFA1EE0E06DC9
:1023800040F48010E0650F492068884202D14FF088
:10239000A04000E020680746F86800F0007068B1CF
:1023A000E06D20F4005040F48050E06506E004E069
:1023B00000BF002084F8580000E00225284687E787
:1023C00000030050000100500146002209B901201D
:1023D000704791F82500022803D00420C863012229
:1023E00027E00868006820F001000B6818600868A2
:1023F000006820F00E000B681860886C006820F4FC
:1024000080708B6C186091F8440000F01F0301206D
:1024100098400B6C5860D1E913305860486D40B15A
:10242000486D006820F480704B6D1860D1E916305B
:102430005860012081F8250000BF002081F82400A9
:1024400000BF1046C4E770B50446002594F8250087
:1024500002280BD00420E063012084F8250000BF8F
:10246000002084F8240000BF012534E020680068C3
:1024700020F00100216808602068006820F00E004C
:1024800021680860A06C006820F48070A16C08606E
:1024900094F8440000F01F0101208840216C48603E
:1024A000D4E913104860606D40B1606D006820F49D
:1024B0008070616D0860D4E916104860012084F8CE
:1024C000250000BF002084F8240000BFA06B10B1DD
:1024D0002046A16B8847284670BD000010B5044611
:1024E0000CB9012010BD2068006820F001002168AF
:1024F00008602749206888420BD226492068401A84
:102500001421B0FBF1F08000606422480838206498
:102510000AE01F492068401A1421B0FBF1F0800046
:1025200060641B480838206400202168086094F823
:10253000440000F01F0101208840216C48602046C3
:10254000FEF7AAF90020A16C0860D4E913104860D6
:10255000606858B16068042808D82046FEF7C4F9BE
:102560000020616D0860D4E91610486000206065A5
:10257000A065E065E06220636063A063E06384F8C7
:10258000250000BF84F8240000BF00BFAAE70000B8
:102590000804024008000240014691F825007047F7
:1025A00070B50446206C05682068066894F84400FD
:1025B00000F01F01042088402840E0B106F004002C
:1025C000C8B12068006800F0200028B920680068C1
:1025D00020F004002168086094F8440000F01F0116
:1025E00004208840216C4860206B002856D020468B
:1025F000216B884752E094F8440000F01F0102204C
:102600008840284018B306F0020000B32068006834
:1026100000F0200040B92068006820F00A0021681E
:102620000860012084F8250094F8440000F01F01A0
:1026300002208840216C486000BF002084F82400FC
:1026400000BFE06A50B32046E16A884726E094F86C
:10265000440000F01F01082088402840F0B106F037
:102660000800D8B12068006820F00E0021680860DA
:1026700094F8440000F01F0101208840216C48605C
:102680000120E06384F8250000BF002084F82400C6
:1026900000BF606B10B12046616B884770BD0000C1
:1026A00070B504460CB9012070BD304920688842DD
:1026B0000BD22F492068401A1421B0FBF1F08000A2
:1026C00060642B48083820640AE028492068401AD2
:1026D0001421B0FBF1F080006064244808382064C5
:1026E000022084F825002068056847F6F0708543CD
:1026F000D4E9020108432169084361690843A169DB
:102700000843E1690843216A0843054320680560DE
:102710002046FEF7C1F8A068B0F5804F01D1002037
:102720006060207900F07F00A16C0860D4E913108C
:102730004860606860B16068042809D82046FEF7E8
:10274000D3F80020616D0860D4E91610486003E0FA
:1027500000206065A065E0650020E063012084F84A
:102760002500002084F8240000BF9DE708040240F3
:10277000080002402DE9F04104460D4616461F466A
:102780004FF0000800BF94F82400012802D1022075
:10279000BDE8F081012084F8240000BF94F82500F2
:1027A000012817D1022084F825000020E06320686A
:1027B000006820F00100216808603B463246294647
:1027C0002046FEF7A5F82068006840F00100216867
:1027D000086006E000BF002084F8240000BF4FF02E
:1027E00002084046D4E72DE9F04104460D4616465E
:1027F0001F464FF0000800BF94F82400012802D1C2
:102800000220BDE8F081012084F8240000BF94F884
:10281000250001283FD1022084F825000020E06334
:102820002068006820F00100216808603B463246BD
:1028300029462046FEF76CF8206B30B1206800680E
:1028400040F00E00216808600BE02068006820F06E
:102850000400216808602068006840F00A002168D0
:102860000860A06C006800F4803028B1A06C00689B
:1028700040F48070A16C0860606D28B1606D0068E4
:1028800040F48070616D08602068006840F00100CD
:102890002168086006E000BF002084F8240000BF23
:1028A0004FF002084046ACE770B5044600F0A4F9CA
:1028B00006462546681C10B104480068054400BF60
:1028C00000F09AF9801BA842FAD370BD0C000020DA
:1028D000F0B50B4600217DE001258D4005EA03029D
:1028E000002A76D03E4D8E0855F826408D072E0FD3
:1028F0000F25B5402C40B0F1904F01D1002519E0D3
:10290000384DA84201D1012514E0374DA84201D12C
:1029100002250FE0354DA84201D103250AE0344DD0
:10292000A84201D1042505E0324DA84201D1052578
:1029300000E006258E07360FB540A54223D12E4D67
:102940002D6895432C4E3560351D2D689543361DF9
:102950003560294D0C352D689543274E0C36356072
:10296000351F2D689543361F35608D072E0F0F25B7
:1029700005FA06F41A4D8E0855F82650A543184E50
:102980008F0846F8275005684F000326BE403543A0
:102990000560CE0800F1200555F826504E07F70EC9
:1029A0000F26BE40B543CF0800F1200646F8275059
:1029B000C5684F000326BE40B543C5604568012683
:1029C0008E40B543456085684F000326BE40B54341
:1029D0008560491C23FA01F5002D7FF47DAFF0BD21
:1029E000080001400004004800080048000C0048AE
:1029F00000100048001400480004014078B5034668
:102A00000022D2E0012696400D6805EA0604002C5B
:102A10007BD00D7905F00305012D04D00D7905F06B
:102A20000305022D13D1986856000325B540A8432D
:102A30005600CD68B54028439860586801259540F8
:102A4000A8430D79C5F300159540284358600D79CA
:102A500005F00305032D07D10D7905F00305032DBE
:102A60000CD18D68012D09D0D86856000325B540DA
:102A7000A84356008D68B5402843D8600D7905F00D
:102A80000305022D13D1D60803F1200555F82600C1
:102A90005507EE0E0F25B540A8435607F60E0D69F3
:102AA000B5402843D60803F1200545F826001868EC
:102AB00056000325B540A8430D7905F003055600DF
:102AC000B540284318604D6805F44035002D6BD0A3
:102AD00000BF394D2D6E45F00105374E3566354640
:102AE0002D6E05F00105009500BF00BF4FEAB63519
:102AF000960855F8260095072E0F0F25B540A843D8
:102B0000B3F1904F02D100251AE04DE02B4DAB42BE
:102B100001D1012514E02A4DAB4201D102250FE07D
:102B2000284DAB4201D103250AE0274DAB4201D12C
:102B3000042505E0254DAB4201D1052500E0062521
:102B40009607360FB5402843214D960845F82600D4
:102B5000204D2868A0434D6805F4801505B1204339
:102B60001C4D28602D1D2868A0434D6805F40015F4
:102B700005B12043174D2D1D2860164D2D1F2868C7
:102B8000A0434D6805F4003505B12043114D2D1FBC
:102B900028602D1F2868A0434D6805F4803505B1D5
:102BA00020430C4D083D2860521C0D68D540002D77
:102BB0007FF428AF78BD00000010024000040048F8
:102BC00000080048000C00480010004800140048AD
:102BD000080001400804014010B5426921EA0203DF
:102BE00002EA010443EA0443836110BD0AB1816132
:102BF00000E08162704700000148006870470000F3
:102C000004000020024692F8410020282DD100BF88
:102C100092F84000012801D102207047012082F87B
:102C2000400000BF242082F841001068006820F0B6
:102C30000100136818601068006820F48050136861
:102C4000186010680068084313681860106800680E
:102C500040F0010013681860202082F8410000BF96
:102C6000002082F8400000BFD7E70220D5E710B56A
:102C700002460B4692F8410020282AD100BF92F864
:102C80004000012801D1022010BD012082F840003F
:102C900000BF242082F841001068006820F0010085
:102CA000146820601068016821F4706141EA032112
:102CB000106801601068006840F00100146820602E
:102CC000202082F8410000BF002082F8400000BFB1
:102CD000DAE70220D8E77047704710B504460CB910
:102CE000012010BD242084F841002068006820F0F5
:102CF000010021680860204600F0AEF90020606401
:102D000084F84100206384F8420000BF84F840004A
:102D100000BF00BFE5E72DE9F04104462068856962
:102D200020680668C5F3002050B1C6F3C01038B162
:102D3000606C40F0010060644FF480702168C861ED
:102D4000C5F3802050B1C6F3C01038B1606C40F0BC
:102D5000080060644FF480602168C861C5F34020BA
:102D600050B1C6F3C01038B1606C40F0020060642E
:102D70004FF400702168C861676C07F00B0018B150
:102D80003946204602F060FDBDE8F08170B504468A
:102D90002068856920680668606B20B13246294644
:102DA0002046636B984770BD10B5044607492068FC
:102DB000884209D10120064908702046FFF78DFF9F
:102DC00003F03CFFFDF728FD10BD0000005400405B
:102DD00018000020014691F84100704710B50446E4
:102DE0000CB9012010BD94F8410028B9002084F8E6
:102DF0004000204600F05AF9242084F84100206861
:102E0000006820F0010021680860606820F07060B0
:102E1000216808612068806820F40040216888608B
:102E2000E068012805D1A06840F40040216888606E
:102E300004E0A06840F4044021688860E06802284B
:102E400006D12068406840F400602168486005E0D1
:102E50002068406820F4006021684860206840686D
:102E600013490843216848602068C06820F4004086
:102E70002168C860D4E904010843A16940EA01203F
:102E80002168C860D4E90701084321680860206808
:102E9000006840F001002168086000206064202084
:102EA00084F841000020206384F8420000BF99E7C5
:102EB00000800002704770477047000010B504465C
:102EC0000949206888420ED10848407807490978A6
:102ED00001F00F0140EA0120054908800020054962
:102EE0000870FDF799FC10BD00540040140000204C
:102EF0001600002018000020704700002DE9F84F50
:102F00000446894615461E46DDE90A7A94F84100D2
:102F100020287DD117B1BAF1000F05D14FF4007010
:102F200060640120BDE8F88F20688069C0F3C0307C
:102F300008B10220F6E700BF94F84000012801D153
:102F40000220EFE7012084F8400000BF222084F82F
:102F50004100402084F84200002060646762A4F8C9
:102F60002AA03848E06238486063C4F84C90608D0D
:102F7000FF2802D9FF20208501E0608D2085012EE9
:102F800005D1E8B221688862B01E206505E0C5F36E
:102F9000072021688862E8B22065E06BA0B12B4869
:102FA000E16BC8622A48E16B48630020E16B08636B
:102FB000E16B8863238D226802F124013A46E06BBD
:102FC000FFF711FC804610E0202084F8410000202B
:102FD00084F84200606C40F08000606400BF002014
:102FE00084F8400000BF01209CE7B8F1000F13D126
:102FF0001848F2B2002349460090204603F0DCF95D
:1030000000BF002084F8400000BF0121204600E0FE
:1030100015E002F049FB10E0202084F84100002078
:1030200084F84200606C40F01000606400BF002033
:1030300084F8400000BF012074E7002072E70220FE
:1030400070E700000000FFFF7D5F0008B355000837
:10305000975500080020008010B5044610492068EC
:1030600088421BD10F48806D20F400100D498865FF
:103070004FF400414FF09040FFF72AFC80210A48AE
:10308000FFF726FCE06BFFF729FAA06BFFF726FAA3
:103090001F2000F02BF9202000F028F910BD0000BF
:1030A00000540040001002400004004810B598B0E1
:1030B0000446142113A8FDF7EDF9442102A8FDF7F9
:1030C000E9F94E49206888427ED1402002900020D4
:1030D000089002A800F028FA08B1FDF73AFC00BFFA
:1030E0004748C06C40F001004549C8640846C06CC0
:1030F00000F00100019000BF00BF00BF0846C06C97
:1031000040F00200C8640846C06C00F00200019064
:1031100000BF00BF4FF40040139012201490002015
:10312000159016900420179013A94FF09040FFF7C8
:1031300065FC8020139012201490002015901690AA
:103140000420179013A92F48FFF758FC00BF2C4804
:10315000806D40F400102A4988650846806D00F4AF
:103160000010019000BF00BF2748284908601020C8
:103170004860002125488160C160802101610021F3
:1031800041618161C1610162FFF78AFA08B1FDF70F
:10319000E0FB00BF1D48E063846200BF1A4828308E
:1031A0001B490860112048601021194881600021E6
:1031B000C16080210161002141618161C1610162C1
:1031C000FFF76EFA18B100E016E0FDF7C2FB00BF92
:1031D0000F48A063846200BF002203211F2000F07B
:1031E000BBF81F2000F0A4F800220321202000F0EB
:1031F000B3F8202000F09CF818B010BD0054004037
:10320000001002400004004808000240DC010020D9
:103210003C02002070477047034800680349096872
:103220000844014908607047040000200C00002099
:1032300010B50024032000F0CDF80F2000F008F8AE
:1032400008B1012401E000F02FF8204610BD000075
:1032500070B50446002511480068D8B10F480068D1
:103260004FF47A71B1FBF0F00D490968B1FBF0F64B
:10327000304600F047FF58B9102C07D200222146F3
:10328000501E00F069F80748046004E0012502E0E0
:10329000012500E00125284670BD00000C0000203B
:1032A000100000200800002008B500BF0E48006E86
:1032B00040F001000C4908660846006E00F001006D
:1032C000009000BF00BF00BF0846806D40F08050F6
:1032D00088650846806D00F08050009000BF00BFF8
:1032E00000F018F908BD00000010024010B50146BA
:1032F0000846002817DB00F01F0301229A400B4B01
:10330000440943F8242000BF00BF00BFBFF34F8F24
:1033100000BF00BF00BF00BF00BF00BFBFF36F8F83
:1033200000BF00BF00BF00BF10BD000080E100E093
:103330000146084600280DDB00BF00BF00F01F0358
:1033400001229A4043099B0003F1E023C3F80021C6
:1033500000BF00BF00BF70472DE9F05F80460D46FB
:10336000164605F0C1FF074639462A46334601F0A6
:103370000700C0F1070ABAF1040F02D94FF0040A9E
:1033800001E0C0F1070AD14600F1040ABAF1070FC3
:1033900002D24FF0000A01E0A0F1030AD4464FF038
:1033A000010A0AFA09FAAAF1010A0AEA020A0AFA61
:1033B0000CFA4FF0010B0BFA0CFBABF1010B0BEA13
:1033C000030B4AEA0B042146404605F095FFBDE891
:1033D000F09F000000BF00F00702064B19684FF68F
:1033E000FF031940044B0B4343EA0221014B1960D0
:1033F00000BF70470CED00E00000FA0502468ABBF2
:103400004148006800F4C060B0F5806F2BD13E48A1
:103410008030006820F480703B4BC3F88000184671
:10342000006820F4C06040F40070186037480068FD
:1034300032235843364BB0FBF3F0411C00E0491EE9
:103440003148406900F48060B0F5806F01D10029F7
:10345000F5D12D48406900F48060B0F5806F51D1FE
:103460000320704708E028488030006820F480700E
:10347000254BC3F8800045E0B2F5007F3AD12248E1
:10348000006800F4C060B0F5806F2AD11E4880301B
:10349000006840F480701C4BC3F880001846006838
:1034A00020F4C06040F400701860184800683223AF
:1034B0005843174BB0FBF3F0411C00E0491E124883
:1034C000406900F48060B0F5806F01D10029F5D12A
:1034D0000D48406900F48060B0F5806F12D1032080
:1034E000BFE709488030006840F48070064BC3F89D
:1034F000800007E00448006820F4C06040F4806069
:10350000014B18600020ACE7007000401000002064
:1035100040420F000348806840F4804001498860C1
:1035200070470000007000402DE9F8430446002772
:10353000B846206800F40020B0F5002F73D1B946DA
:10354000D348806D00F0805078B900BFD048806DBE
:1035500040F08050CE4988650846806D00F080506C
:10356000009000BF00BF4FF00109CA48006840F456
:103570008070C8490860FFF73FFB064606E0FFF78A
:103580003BFB801B022801D9032705E0C1480068E6
:1035900000F480700028F2D000BF002F46D1BC4854
:1035A0009030006800F44075CDB1206CA84216D070
:1035B000B7489030006820F44075B548D0F89000C6
:1035C00040F48030B249C1F890000846D0F890002D
:1035D00020F48030C1F890000846C0F8905005F003
:1035E0000100A0B1FFF708FB064608E0FFF704FB67
:1035F000801B41F28831884201D9032706E0A448A4
:103600009030006800F002000028EFD000BF5FB9E2
:103610009F489030006820F44070216C08439C491A
:10362000C1F8900003E00CE0B84600E0B846B9F1FC
:10363000010F05D19648806D20F08050944988652F
:1036400000BF207800F0010048B191488830006840
:1036500020F00300616808438D49C1F88800207894
:1036600000F00200022809D189488830006820F063
:103670000C00A16808438649C1F88800207800F052
:103680000400042809D182488830006820F0300006
:10369000E16808437E49C1F88800207800F00800FE
:1036A000082809D17A488830006820F0C0002169D4
:1036B00008437749C1F88800207800F020002028CE
:1036C00009D173488830006820F44060616908437C
:1036D0006F49C1F88800207800F04000402809D1E7
:1036E0006B488830006820F44050A169084368495D
:1036F000C1F88800207800F08000802809D1644853
:103700008830006820F44040E16908436049C1F80E
:103710008800208800F48070B0F5807F09D15C4873
:103720008830006820F44030216A08435849C1F8C5
:103730008800208800F40070B0F5007F09D154485B
:103740008830006820F44020616A08435049C1F87D
:103750008800208800F48060B0F5806F13D14C4859
:103760008830006820F44010A16A08434849883135
:103770000860A06AB0F5801F05D14548C06840F4D4
:1037800080104349C860208800F40060B0F5006FE5
:1037900013D13F488830006820F44000E16A0843B4
:1037A0003B4988310860E06AB0F5800F05D13848A0
:1037B000C06840F480103649C860208800F480500A
:1037C000B0F5805F13D132488830006820F0407037
:1037D000216B08432E4988310860206BB0F1807F4F
:1037E00005D12B48C06840F480102949C860208862
:1037F00000F40050B0F5005F13D125488830006810
:1038000020F04060616B0843214988310860606B9B
:10381000B0F1006F05D11E48C06840F480101C490B
:10382000C860208800F48040B0F5804F13D118485C
:103830008830006820F04060A16B0843144988314B
:103840000860A06BB0F1006F05D11148C06840F46A
:1038500080100F49C860208800F40040B0F5004F88
:1038600013D10B488830006820F04050E16B0843CA
:10387000074988310860E06BB0F1805F05D10448EA
:10388000C06840F480300249C8604046BDE8F88313
:1038900000100240007000402DE9F04104460D4642
:1038A0004FF0000814B90120BDE8F0817D480068A0
:1038B00000F00F00A8420ED27A48006820F00F00F6
:1038C0002843784908600846006800F00F00A842C5
:1038D00001D00120E8E7207800F00100002864D042
:1038E0006068032823D17048006800F0007008B9B0
:1038F0000120D9E704F06EFA06466C48864237D9B3
:103900006948806800F0F00030B1207800F00200D3
:1039100002282DD1A06858BB6348806820F0F000D1
:1039200040F08000604988604FF0800820E06068C7
:10393000022806D15C48006800F4003040B901203C
:10394000B2E75948006800F4806008B90120ABE78D
:1039500000F0DEF806465548864209D9524880688C
:1039600020F0F00040F080004F4988604FF0800860
:103970004D48806820F00300616808434A49886028
:10398000FFF73AF9074608E0FFF736F9C01B41F2A6
:103990008831884201D9032086E74348806800F0D7
:1039A0000C006168B0EB810FEED1207800F00200CE
:1039B000022820D1207800F00400042805D13A48DC
:1039C000806840F4E06038498860207800F00800A2
:1039D000082807D13448806820F4605040F4E06043
:1039E000314988603048806820F0F000A1680843C1
:1039F0002D49886008E0B8F1800F05D12A48806819
:103A000020F0F000284988602648006800F00F0088
:103A1000A84219D92348006820F00F002843214903
:103A20000860FFF7E9F8074608E0FFF7E5F8C01B74
:103A300041F28831884201D9032035E719480068EE
:103A400000F00F00A842F0D1207800F00400042814
:103A500007D11548806820F4E060E1680843124906
:103A60008860207800F00800082808D10E48806897
:103A700020F46050216940EAC1000B49886000F0E1
:103A800047F809498968C1F30311094A515C01F0FB
:103A90001F01C8400749086007480068FFF7D8FBC6
:103AA00002E70000002002400010024000B4C404FD
:103AB000189F00081000002008000020014800683E
:103AC000704700001000002000B5FFF7F7FF054920
:103AD0008968C1F30221044A515C01F01F01C8400A
:103AE00000BD000000100240289F000800B5FFF74D
:103AF000E5FF05498968C1F3C221044A515C01F020
:103B00001F01C84000BD000000100240289F0008AF
:103B100070B5224DAD6805F00C05042D01D120488B
:103B20003AE01E4DAD6805F00C05082D01D11D4889
:103B300032E01A4DAD6805F00C050C2D2BD1174D58
:103B4000ED6805F00304154DED68C5F303156A1C17
:103B5000022C0CD0032C09D1124DB5FBF2F50F4EFF
:103B6000F668C6F3062605FB06F10AE000BF0C4D19
:103B7000B5FBF2F5094EF668C6F3062605FB06F11D
:103B800000BF00BF054DED68C5F341656D1C6B00BE
:103B9000B1FBF3F000E0002070BD00000010024017
:103BA0000024F40000127A002DE9F843044614B909
:103BB0000120BDE8F883207800F00100002865D0DE
:103BC000FC48806800F00C07FA48C06800F0030663
:103BD0000C2F01D1032E01D0082F0AD1F54800681F
:103BE00000F40030002851D0606800284ED1012038
:103BF000DFE700BF6068B0F5803F06D1ED480068A0
:103C000040F48030EB4908601AE06068B0F5A02FFE
:103C10000BD1E848006840F48020E6490860084677
:103C2000006840F4803008600AE0E248006820F450
:103C30008030E04908600846006820F48020086071
:103C400000BF606888B1FEF7D7FF054606E0FEF7C3
:103C5000D3FF401B642801D90320AAE7D548006898
:103C600000F400300028F2D010E0FEF7C5FF054652
:103C700006E0FEF7C1FF401B642801D9032098E746
:103C8000CC48006800F400300028F2D1207800F021
:103C90000200022860D1C748806800F00C07C548C0
:103CA000C06800F003060C2F01D1022E01D0042FB2
:103CB00018D1C048006800F4806018B1E06808B905
:103CC000012076E7BB48406820F0FE40217C40EAB6
:103CD0000160B8494860B8480068FFF7B9FA18B3FE
:103CE000012066E7E06800B3B248006840F48070E5
:103CF000B0490860FEF780FF054606E0FEF77CFF4E
:103D0000401B022801D9032053E7AA48006800F4A9
:103D100080600028F2D0A748406820F0FE40217C57
:103D200040EA0160A349486016E0A248006820F418
:103D30008070A0490860FEF75FFF054606E0FEF7C9
:103D40005BFF401B022801D9032032E79948006835
:103D500000F480600028F2D1207800F008000828E4
:103D600036D16069D0B193489430006840F00100CA
:103D70009049C1F89400FEF73FFF054606E0FEF7C4
:103D80003BFF401B022801D9032012E789489430E9
:103D9000006800F002000028F1D019E08548943056
:103DA000006820F001008349C1F89400FEF724FF69
:103DB000054606E0FEF720FF401B022801D903203C
:103DC000F7E67C489430006800F002000028F1D14A
:103DD000207800F00400042872D14FF000087548E4
:103DE000806D012121EA107078B100BF7148806DAB
:103DF00040F080506F4988650846806D00F0805023
:103E0000009000BF00BF4FF001086C48006800F44C
:103E10008070B0B96948006840F4807067490860F4
:103E2000FEF7EAFE054606E0FEF7E6FE401B022826
:103E300001D90320BDE66148006800F480700028C5
:103E4000F2D000BFA068012808D15A48903000681D
:103E500040F001005749C1F8900021E0A068052812
:103E60000FD154489030006840F004005149C1F827
:103E700090000846D0F8900040F00100C1F8900092
:103E80000EE04C489030006820F001004949C1F82C
:103E900090000846D0F8900020F00400C1F890008F
:103EA00000BFA068A8B1FEF7A7FE054609E0FEF72F
:103EB000A3FE401B41F28831884202D9032078E6F4
:103EC00025E03C489030006800F002000028EED069
:103ED00013E0FEF791FE054608E0FEF78DFE401B5D
:103EE00041F28831884201D9032062E6314890309E
:103EF000006800F002000028EFD1B8F1010F05D1F1
:103F00002C48806D20F080502A49886500BF2078B9
:103F100000F02000202836D1A069D0B12548983083
:103F2000006840F001002349C1F89800FEF764FEE4
:103F3000054606E0FEF760FE401B022801D903207B
:103F400037E61C489830006800F002000028F1D0E5
:103F500019E018489830006820F001001549C1F8B0
:103F60009800FEF749FE054606E0FEF745FE401BB9
:103F7000022801D903201CE60E489830006800F0A2
:103F800002000028F1D1E069002860D0094880686B
:103F900000F00C000C287AD0E069022858D10548BE
:103FA000006820F0807003490860FEF725FE054692
:103FB0000DE00000001002400800002000700040EA
:103FC000FEF71AFE401B022801D90320F1E54A48FA
:103FD000006800F000700028F2D1D4E90810401EFB
:103FE00041EA0011A06A41EA0021208E0122C2EBC1
:103FF000500041EA40513420005DC2EB500041EADC
:1040000040612C20005D41EAC0603B49C9683B4AE1
:10401000114008433849C8600846006840F0807085
:1040200008600846C06840F08070C860FEF7E4FD94
:10403000054606E0FEF7E0FD401B022801D90320FB
:10404000B7E52D48006800F000700028F2D051E07C
:104050002948006820F0807027490860FEF7CCFDF1
:10406000054606E0FEF7C8FD401B022801D90320E3
:104070009FE52148006800F000700028F2D11E483A
:10408000C0681F4908401C49C86033E0FFE7E06989
:10409000012800D18DE51848C66806F00301206AA2
:1040A000814225D106F0F001606A401EB1EB001F8D
:1040B0001ED106F4FE41A06AB1EB002F18D106F024
:1040C00078412C20005DB1EBC06F11D106F4C00126
:1040D000208E0122C2EB5000B1EB405F08D106F008
:1040E000C0613420005DC2EB5000B1EB406F01D0E5
:1040F00001205EE500205CE5001002400C809F017D
:10410000FCFFEEFE70B504462546681EB0F1807FC8
:1041100001D301200FE0681E4FF0E02148610F211C
:104120004FF0FF3005F0E8F800204FF0E021886103
:1041300007200861002070BD70477047704700007D
:1041400010B50346002200BF93F83C00012801D1BE
:10415000022010BD012083F83C0000BF22F0FF00C8
:10416000CC6840EA040222F440708C6840EA040201
:1041700022F480604C6840EA040222F400600C687B
:1041800040EA040222F480500C6940EA040222F45E
:1041900000504C6940EA040222F480400C6B40EA73
:1041A000040222F470200C8B40EA044222F080507A
:1041B000CC6940EA0402124C1868A04203D0114CAA
:1041C0001868A04213D122F470000C8D40EA04520A
:1041D00022F080700C6A40EA040222F000704C6AFF
:1041E00040EA040222F00050CC6A40EA0402186857
:1041F000426400BF002083F83C0000BF00BFA8E776
:10420000002C0140003401407047704770470000A7
:1042100030B502460B4600BF92F83C00012801D1A0
:10422000022030BD012082F83C0000BF022082F84D
:104230003D0010684168106884681D4D1068A842F0
:1042400003D01C4D1068A84203D121F470015868B6
:104250000143194801401868014310684160144D3A
:104260001068A84213D01068B0F1804F0FD0134DE2
:104270001068A8420BD0124D1068A84207D00D4D0F
:104280001068A84203D00F4D1068A84205D124F051
:1042900080049868044310688460012082F83D001F
:1042A00000BF002082F83C0000BF00BFB9E700005B
:1042B000002C0140003401408FFFFFFD000400404E
:1042C000000800400040014070B504460D4615B995
:1042D00094F844000BE0042D02D14520005D06E077
:1042E000082D02D14620005D01E04720005D012835
:1042F00001D0012070BD1DB9022084F844000EE0F9
:10430000042D03D102214520015508E0082D03D1D9
:1043100002214620015502E00221472001550422D6
:104320002946206804F019F82068406C40F40040E9
:104330002168486418492068884213D02068B0F189
:10434000804F0FD01549206888420BD0144920684F
:10435000884207D013492068884203D01249206858
:10436000884210D120688068104900EA0106062EB4
:104370000FD0B6F5803F0CD02068006840F00100F7
:104380002168086005E02068006840F001002168AD
:1043900008600020AEE70000002C0140000400404F
:1043A00000080040003401400040014007000100C7
:1043B000704710B504460CB9012010BD94F83D00BB
:1043C00028B9002084F83C00204600F029F802209B
:1043D00084F83D00211D206803F04CFF012084F883
:1043E000480000BF84F83E0001213F2001554020D5
:1043F000015541200155422001554320015500BF80
:1044000000BF012084F84400452001554620015595
:104410004720015500BF012084F83D000020CCE773
:1044200038B504461649206888420DD100BF1548AA
:10443000006E40F40060134908660846006E00F400
:104440000060009000BF19E02068B0F1804F15D1E6
:1044500000BF0C48806D40F001000A49886508469D
:10446000806D00F00100009000BF00BF002202211B
:104470001C20FEF771FF1C20FEF75AFF38BD00001C
:10448000002C014000100240014691F83D00012837
:1044900001D001207047022081F83D000868C06803
:1044A00040F001000B68D860184B0868984213D0A0
:1044B0000868B0F1804F0FD0154B086898420BD0B8
:1044C000144B0868984207D0134B0868984203D0F1
:1044D000124B0868984210D108688068104B00EAB7
:1044E0000302062A0FD0B2F5803F0CD0086800689E
:1044F00040F001000B68186005E00868006840F0B3
:1045000001000B6818600020C4E70000002C014087
:104510000004004000080040003401400040014019
:10452000070001002DE9F04104460D46002700BFB9
:1045300094F83C00012802D10220BDE8F08101205E
:1045400084F83C0000BF022084F83D0020688668A3
:104550003F48064026F47F46206886602868702819
:1045600024D00CDC00F00F01002964D100110728D1
:1045700061D2DFE800F05354555649353F00354AC3
:10458000811A90424FD009DCB0F5805F0DD0B0F5B4
:10459000005F18D0B0F1101F4DD143E0102943D077
:1045A000202942D0502946D140E046E0D5E9021307
:1045B0006A68206803F0E2FE2068866846F07706A5
:1045C0002068866039E0D5E902136A68206803F044
:1045D000D5FE2068806840F48040216888602CE027
:1045E000EA686968206804F0BDF85021206803F08B
:1045F000D1FE22E0EA686968206804F0E9F86021E9
:10460000206803F0C7FE18E0EA686968206804F0D3
:10461000A9F84021206803F0BDFE0EE000BF00BFF6
:1046200000BF00BF00BF00BF00BF00BF29682068F7
:1046300003F0B0FE01E0012700BF00BF012084F8B5
:104640003D0000BF002084F83C0000BF384674E7FE
:1046500088FFCEFF20001000704770B50446206828
:10466000C6682068056905F00200022819D106F025
:104670000200022815D1401F21680861012020771F
:104680002068806900F0030018B12046FFF7E4FFBE
:1046900005E0204600F04CF9204600F03AFA0020F0
:1046A000207705F00400042819D106F0040004283E
:1046B00015D1C043216808610220207720688069F5
:1046C00000F4407018B12046FFF7C6FF05E0204611
:1046D00000F02EF9204600F01CFA0020207705F0AB
:1046E0000800082819D106F00800082815D1C04391
:1046F00021680861042020772068C06900F0030069
:1047000018B12046FFF7A8FF05E0204600F010F999
:10471000204600F0FEF90020207705F01000102858
:1047200019D106F01000102815D1C0432168086186
:10473000082020772068C06900F4407018B1204636
:10474000FFF78AFF05E0204600F0F2F8204600F06F
:10475000E0F90020207705F0010048B106F00100E3
:1047600030B16FF0010021680861204600F078FA4E
:1047700005F08000802804D005F40050B0F5005FFB
:104780000AD106F08000802806D16FF4025021681B
:1047900008612046FFF7D1FC05F48070B0F5807FFA
:1047A0000AD106F08000802806D16FF4807021685D
:1047B00008612046FFF7C0FC05F04000402809D101
:1047C00006F04000402805D1C0432168086120461A
:1047D00000F088FA05F02000202809D106F020001A
:1047E000202805D1C043216808612046FFF7A6FCB8
:1047F00005F48010B0F5801F0BD106F48010B0F5E1
:10480000801F06D16FF48010216808612046FFF7F1
:10481000FCFC05F40010B0F5001F0BD106F40010ED
:10482000B0F5001F06D16FF4001021680861204622
:10483000FFF7EAFC05F48000B0F5800F0BD106F419
:104840008000B0F5800F06D16FF480002168086108
:104850002046FFF7DBFC05F40000B0F5000F0BD19C
:1048600006F40000B0F5000F06D16FF400002168D7
:1048700008612046FFF79CFD70BD000010B586B0B2
:104880000446142101A8FBF705FE2649206888424A
:1048900045D100BF2448C06C40F002002249C864E2
:1048A0000846C06C00F00200009000BF00BF00BFCF
:1048B0000846C06C40F00100C8640846C06C00F0B7
:1048C0000100009000BF00BF4FF4C04001900220E3
:1048D00002900020039004900620059001A913483F
:1048E000FEF78CF84FF40040019002200290002067
:1048F000039004900420059001A90C48FEF77EF86F
:104900004FF4E06001900220029000200390049098
:104910000620059001A94FF09040FEF76FF806B011
:1049200010BD0000002C01400010024000040048AF
:1049300070472DE9F04104460D461646002700BF9A
:1049400094F83C00012802D10220BDE8F08101204A
:1049500084F83C0000BF0C2E51D005DC4EB1042E73
:104960001ED0082E7AD133E0102E60D0142EF9D14B
:1049700075E02946206803F019FD2068806940F041
:104980000800216888612068806920F0040021689F
:10499000886120688069296908432168886178E016
:1049A0002946206803F05AFD2068806940F40060C1
:1049B000216888612068806920F4806021688861AE
:1049C00020688069296940EA01202168886160E0E7
:1049D0002946206803F09EFD2068C06940F0080069
:1049E0002168C8612068C06920F004002168C8619E
:1049F0002068C069296908432168C86149E02946DF
:104A0000206803F0E3FD2068C06940F4006021687D
:104A1000C8612068C06920F480602168C86120688E
:104A2000C069296940EA01202168C86131E029464E
:104A3000206803F027FE2068006D40F00800216820
:104A400008652068006D20F0040021680865206872
:104A5000006D29690843216808651AE017E02946B6
:104A6000206803F047FE2068006D40F40060216874
:104A700008652068006D20F4806021680865206862
:104A8000006D296940EA01202168086501E00127DD
:104A900000BF00BF00BF002084F83C0000BF3846C4
:104AA00053E710B504460CB9012010BD94F83D0041
:104AB00028B9002084F83C00204600F029F80220A4
:104AC00084F83D00211D206803F0D4FB012084F808
:104AD000480000BF84F83E0001213F2001554020DE
:104AE000015541200155422001554320015500BF89
:104AF00000BF012084F8440045200155462001559F
:104B00004720015500BF012084F83D000020CCE77C
:104B10007047704770B504460D4615B994F83E00CD
:104B200015E0042D02D13F20005D10E0082D02D1D8
:104B30004020005D0BE00C2D02D14120005D06E01D
:104B4000102D02D14220005D01E04320005D0128CC
:104B500001D0012070BD1DB9022084F83E001AE08A
:104B6000042D03D102213F20015514E0082D03D16B
:104B70000221402001550EE00C2D03D102214120DD
:104B8000015508E0102D03D102214220015502E019
:104B900002214320015501222946206803F0CCFB65
:104BA0002749206888420FD02649206888420BD0C8
:104BB00025492068884207D024492068884203D0CC
:104BC00023492068884201D1012000E0002028B15B
:104BD0002068406C40F4004021684864184920680F
:104BE000884213D02068B0F1804F0FD01949206857
:104BF00088420BD018492068884207D011492068A4
:104C0000884203D010492068884210D1206880680B
:104C1000124900EA0106062E0FD0B6F5803F0CD0EF
:104C20002068006840F001002168086005E0206805
:104C3000006840F001002168086000208AE7000059
:104C4000002C01400034014000400140004401407C
:104C50000048014000040040000800400700010037
:104C600010B586B004461B48844230D102F082FB66
:104C7000052802D002F0B8FB1AE017480078B8B94E
:104C800001201549087001A802F06AFB9DED021A87
:104C9000F0EE410A9DED011AB0EE410AB2EE0E1A95
:104CA00002F0FEF801200D49087702F07DF900BFFF
:104CB00002F086FD0A480088401C09490880084621
:104CC0000088FA2803DB0020088001F03FFE06B0D0
:104CD00010BD0000E80200204C0000200C0600205F
:104CE0004A0000207047014600BF91F88400012867
:104CF00001D102207047012081F8840000BF2420E8
:104D0000C1F88800086802680868006820F001009F
:104D10000B68186022F000520020486608680260A4
:104D20002020C1F8880000BF002081F8840000BF67
:104D300000BFDFE72DE9F04104460E461746D4F8E0
:104D40008C00202825D106B117B90120BDE8F081DB
:104D50000120E066002020673A463146204604F0F4
:104D6000A9F905469DB9E06E01280FD110202168F0
:104D7000086200BF00BF216851E8001F41F0100029
:104D8000226842E800010029F5D100E0012528460B
:104D9000DCE70220DAE7000070B504460D460B4957
:104DA0002068884210D1802209490A48FFF7C2FFD3
:104DB0000848D0F880000068006820F00400054929
:104DC000D1F880100968086070BD00000044004000
:104DD0004C05002034030020704770B504460D4692
:104DE00000BF94F88400012801D1022070BD012089
:104DF00084F8840000BF2420C4F888002068066876
:104E00002068006820F00100216808602068806840
:104E100020F06060284321688860204603F00EFD82
:104E2000206806602020C4F8880000BF002084F8B5
:104E3000840000BF00BFD9E770B504460D4600BF2F
:104E400094F88400012801D1022070BD012084F86B
:104E5000840000BF2420C4F8880020680668206809
:104E6000006820F00100216808602068806820F058
:104E70006040284321688860204603F0DFFC2068FA
:104E800006602020C4F8880000BF002084F8840059
:104E900000BF00BFD9E77047704770472DE9F04762
:104EA00004462068C569206806682068876840F65F
:104EB0000F0005EA0009B9F1000F0FD105F020003D
:104EC00060B106F0200010B907F0805030B1606F7B
:104ED00010B12046616F8847BDE8F087B9F1000F37
:104EE0007ED0DF48384018B9DE4830400028F7D07F
:104EF00005F0010058B106F4807040B1012021682E
:104F00000862D4F8900040F00100C4F8900005F069
:104F1000020058B107F0010040B102202168086288
:104F2000D4F8900040F00400C4F8900005F00400AC
:104F300058B107F0010040B1042021680862D4F89C
:104F4000900040F00200C4F8900005F0080070B135
:104F500006F0200010B9C248384040B1082021684E
:104F60000862D4F8900040F00800C4F8900005F4FE
:104F7000006060B106F0806048B14FF400602168C5
:104F80000862D4F8900040F02000C4F89000D4F8F3
:104F90009000002852D005F0200050B106F020000B
:104FA00010B907F0805020B1606F10B12046616FDA
:104FB0008847D4F890A02068806800F0400040281E
:104FC00002D00AF0280070B3204603F043FE2068A8
:104FD000806800F04000402826D100BF00BF00E0FC
:104FE0002DE02168083151E8001F21F040002168C0
:104FF000083141E80002002AF1D100BFD4F8800056
:1050000068B19948D4F880108863D4F88000FDF71F
:105010001AFA98B1D4F88000816B88470EE02046D8
:10502000FFF73BFF0AE003E02046FFF736FF05E00D
:105030002046FFF732FF0020C4F890004CE7E06EF6
:10504000012865D105F01000002861D006F010009D
:105050000028FAD01020216808622068806800F0DB
:10506000400040287AD1D4F88000006840681FFAD8
:1050700080F8B8F1000F5CD0B4F85C00404558DD12
:10508000A4F85E80D4F880000068006800F020007A
:10509000E8BB00BF00BF216851E8001F21F4807009
:1050A000226842E800010029F5D100BF00BF00BF1F
:1050B0002168083151E8001F21F001002168083102
:1050C00041E80002002AF3D100BF00BF00BF216801
:1050D000083151E8001F21F040002168083141E803
:1050E0000002002AF3D100BF2020C4F88C00002069
:1050F000E06600BF00BF216851E8001F21F01000EA
:10510000226842E800010029F5D100BF01E004E077
:1051100068E0D4F88000FDF757F902202067B4F862
:105120005C00B4F85E20801A81B22046FFF734FE9E
:1051300012E0B4F85C0040450ED1D4F8800000685D
:10514000006800F02000202806D102202067B4F873
:105150005C102046FFF720FEBEE6FFE734F85C0F48
:105160006188401A1FFA80F860885C3CC8B3B8F1C7
:10517000000F36D000BF00BF216851E8001F21F4A6
:105180009070226842E800010029F5D100BF00BFFD
:1051900000BF2168083151E8001F314AD24301EABB
:1051A00002002168083141E80002002AF1D100BF65
:1051B0002020C4F88C000020E066606700BF00BFBC
:1051C000216851E8001F21F01000226842E8000128
:1051D0000029F5D100BF0220206741462046FFF795
:1051E000DBFD79E605F4801050B107F4800038B19A
:1051F0004FF48010216808622046FFF74DFE6BE6F1
:1052000005F0800058B106F0800010B907F40000E6
:1052100028B1A06F10B12046A16F88475CE605F069
:10522000400030B106F0400018B1204603F048FDC0
:1052300052E605F4000030B106F0804018B1204677
:10524000FFF729FE48E605F0807030B106F0004017
:1052500018B12046FFF7C0FD3EE600BF3CE6000067
:105260000100001020010004778A000810B50446F0
:105270000CB9012010BDA06900B100E000BFD4F856
:10528000880028B9002084F88400204600F02AF81D
:105290002420C4F888002068006820F001002168FC
:1052A0000860A06A10B1204603F0F4FA204603F02B
:1052B0003FFD012800D1DDE72068406820F49040E0
:1052C000216848602068806820F02A002168886092
:1052D0002068006840F0010021680860204603F063
:1052E00055FBC7E710B598B00446142113A8FBF787
:1052F000D1F8442102A8FBF7CDF83B492068884249
:1053000070D1022002900020049002A8FEF70CF950
:1053100008B1FBF71EFB00BF3448806D40F400303D
:10532000324988650846806D00F40030019000BF66
:1053300000BF00BF0846C06C40F00200C8640846C9
:10534000C06C00F00200019000BF00BF1820139055
:10535000022014900020159016900720179013A992
:105360002348FDF74BFB2348234908601A20486077
:10537000002121488160C1608021016100214161DB
:105380008161C1610162FDF78BF908B1FBF7E1FAB8
:1053900000BF1948C4F88000846200BF154814306B
:1053A000164908601B2048601021144881600021C4
:1053B000C16080210161002141618161C16101629F
:1053C000FDF76EF908B1FBF7C4FA00BF0B48E067C0
:1053D000846200BF002203212620FDF7BDFF2620A6
:1053E000FDF7A6FF18B010BD0044004000100240B9
:1053F0000004004844000240C803002028040020A4
:105400007047704770B504460E461546D4F88800BC
:1054100020283FD106B10DB9012070BD44F8506F6E
:10542000A580E580002020642120A063E06A503C34
:10543000E0B11948E16FC8621848E16F0863184885
:10544000E16F48630020E16F8863236803F128025D
:105450002B46216DE06FFDF7C6F938B11020C4F876
:1054600090002020C4F888000120D6E74020216861
:10547000086200BF00BF2168083151E8001F41F0F9
:1054800080002168083141E80002002AF3D100BF02
:105490000020C2E70220C0E7F18B0008478C00081B
:1054A000858A00087047704700BFFEE7F0B52DED14
:1054B000048B89B0002400254FF4FA770A20FDF709
:1054C000F3F9002613E02148FBF7DEFE0A211F480E
:1054D000FBF738FE09211D48FBF714FE044440F297
:1054E0000F111A48FBF70EFE0544701C86B2B6F584
:1054F000FA7FE8DB00EE104AB8EE400ADFED140A4E
:1055000080EE208A00EE105AB8EE400ADFED100A55
:10551000C0EE208A38EE280AF0EE000A80EE209ACB
:1055200001A801F051FD9DED010A20EE090ADDED13
:10553000050AC0EE209AB0EE690A01F003FF0348A5
:10554000FBF7D4FF09B0BDEC048BF0BD5000002088
:105550000000FA4310B50248FDF7DDFB10BD000066
:105560008801002010B50248FDF710FC10BD0000B6
:105570008801002070B50546AC6AA06B10B1002010
:10558000A16B8863E06B10B10020E16B886320465B
:1055900000F02EFF70BD70B50546AC6A206840680B
:1055A00040F40040216848601021204600F04CF98A
:1055B00070BD70B50546AC6A2068006820F40040F4
:1055C00021680860608D20B92021204600F06CF829
:1055D0001DE0218D606A08446062608DFF2802D959
:1055E000FF20208501E0608D2085238D266806F14F
:1055F0002401626AE06BFDF7F6F820B11021204625
:1056000000F022F903E04021204600F04DF870BD83
:10561000074A1268074BB2FBF3F242430A23B2FB7C
:10562000F3F100BF0A1EA1F10101FBD17047000098
:105630001000002040420F0010B50246002001F08B
:1056400001034BB140F0420092F8413003F02803CF
:10565000282B01D040F0B00001F00203022B09D149
:1056600040F0440092F8413003F02803282B01D089
:1056700040F0B00001F40043B3F5004F01D140F019
:10568000B800102901D140F09000202901D140F04C
:105690002000402901D140F0400013681B6883437B
:1056A0001468236010BD000010B502460020254C90
:1056B000536BA34222D0244C536BA3421ED0234CE5
:1056C000536BA3421AD001F40043B3F5004F01D14C
:1056D00040F0B80001F001030BB140F0F20001F01E
:1056E0000203022B01D140F0F400102901D140F057
:1056F0009000202920D140F020001DE001F400435B
:10570000B3F5004F01D140F0B80001F001030BB137
:1057100040F0F20001F00203022B01D140F0F4004E
:10572000102901D140F09000202901D140F0600003
:10573000402901D140F0400013681B6803431468FE
:10574000236010BD1D5E0008316100087D5F000808
:1057500001688969C1F3400111B1002102689162B9
:105760000168896901F0010129B90168896941F07D
:1057700001010268916170472DE9F04704468946AE
:1057800094F8410000F02800282852D12068806950
:10579000C0F300472068806900F47E00050C206893
:1057A0008068C0F309062068C06800F0FE08E06861
:1057B00002282ED105F00600062101EAE6118842F2
:1057C00016D13546A06C401CA064A06C022838D1CC
:1057D0000020A06408202168C86100BF002084F870
:1057E000400000BF2A4639462046FDF775FA28E0FA
:1057F00045464FF400412046FFF71EFF00BF002042
:1058000084F8400000BF2A4639462046FDF764FA76
:1058100017E04FF400412046FFF70EFF00BF0020C5
:1058200084F8400000BF2A4639462046FDF754FA66
:1058300007E008202168C86100BF002084F840000C
:1058400000BFBDE8F08700002DE9F04104460F4697
:1058500094F84160002084F842004D48E062002046
:105860006085606C38436064282E03D0292E01D0F7
:105870002A2E09D103212046FFF7DEFE282084F8D6
:1058800041004448606324E048F203012046FFF7EA
:10589000D3FE2046FFF75CFF94F84100602816D045
:1058A000202084F8410020688069C0F3401070B166
:1058B00020688069C0F3001030B110202168C861F1
:1058C000606C40F00400606420202168C861002002
:1058D0006063256BA06B48B3112D01D0212D25D11C
:1058E0002068006800F48040B0F5804F05D1206842
:1058F000006820F4804021680860A06BFCF74CFE33
:1059000001280FD02448A16B886300BF002084F8D1
:10591000400000BFA06BFCF796FD70B3A06B816BDD
:10592000884732E0204600F063FD2EE0E06B48B38C
:10593000122D01D0222D25D12068006800F40040EE
:10594000B0F5004F05D12068006820F400402168C0
:105950000860E06BFCF720FE01280FD00E48E16BD9
:10596000886300BF002084F8400000BFE06BFCF7B4
:105970006AFD10B1E06B816B884706E0204600F0BD
:1059800037FD02E0204600F033FDBDE8F081000065
:105990000000FFFF6F6200087555000870B50446EF
:1059A0000D461948E06200202063202084F8410061
:1059B000002084F842006063C5F3800090B1206845
:1059C000406A616A0870606A401C6062208D48B15C
:1059D000208D401E2085608D401E6085606C40F0EB
:1059E0000400606448F203012046FFF725FE102002
:1059F0002168C86100BF002084F8400000BF204635
:105A0000FDF758FA70BD00000000FFFFF8B504462E
:105A10000D462F4620202168C86194F841002128B6
:105A200006D101212046FFF707FE1120206309E07F
:105A300094F84100222805D102212046FFF7FCFD01
:105A40001220206320684068384908402168486077
:105A5000002060633648E062C7F3001030B11020C8
:105A60002168C861606C40F00400606494F84100F3
:105A7000602807D1C7F3800020B12068406AC0B217
:105A8000009000BF2046FFF763FE666C94F841006B
:105A9000602800D026B1616C2046FFF7D5FE44E0B7
:105AA00094F8410021281ED1202084F841000020D4
:105AB000206394F8420040280AD1002084F8420074
:105AC00000BF84F8400000BF2046FDF715FA2CE027
:105AD000002084F8420000BF84F8400000BF204648
