:020000040800F2
:10000000500B0020790200082D4A0008033E00082A
:10001000C946000825060008B9580008000000007D
:10002000000000000000000000000000134E000867
:100030001307000800000000114E0008154E0008CC
:10004000930200089302000893020008930200083C
:10005000930200089302000893020008930200082C
:100060009302000893020008930200082906000882
:1000700035060008410600084D060008590600082C
:1000800093020008000000008D040008930200089D
:1000900093020008930200089302000893020008EC
:1000A00093020008930200089302000893020008DC
:1000B000914E000893020008930200089302000882
:1000C00093020008930200089302000893020008BC
:1000D0009302000893020008AD580008930200083C
:1000E000930200089302000893020008930200089C
:1000F0009302000893020008930200080000000029
:1001000000000000930200080000000093020008B5
:100110009302000800000000930200089302000808
:10012000930200089302000893020008930200085B
:100130009302000800000000000000009302000885
:100140009302000893020008000000000000000075
:10015000000000000000000000000000000000009F
:1001600000000000000000000000000093020008F2
:1001700093020008000000000000000000000000E2
:1001800000000000930200080000000000000000D2
:10019000000000000000000000000000000000005F
:1001A0000000000000000000930200089302000815
:1001B0009302000893020008930200080000000068
:1001C0000000000093020008000000000000000092
:1001D000930200089302000800F002F800F03CF8D7
:1001E0000AA090E8000C82448344AAF10107DA4592
:1001F00001D100F031F8AFF2090EBAE80F0013F0A8
:10020000010F18BFFB1A43F00103184738610000C3
:1002100058610000103A24BF78C878C1FAD8520754
:1002200024BF30C830C144BF04680C607047000070
:100230000023002400250026103A28BF78C1FBD8EF
:10024000520728BF30C148BF0B6070471FB505F08B
:100250004CFD1FBD10B510BD00F0E2F81146FFF7D0
:10026000F5FF05F029FD00F000F903B4FFF7F2FFF8
:1002700003BC00F003F90000094880470948004723
:10028000FEE7FEE7FEE7FEE7FEE7FEE7FEE7FEE746
:10029000FEE7FEE704480549054A064B70470000A3
:1002A000814E0008D901000850050020500B0020A5
:1002B000500700205007002053EA020C00F069802C
:1002C0002DE9F04B4FF00006002B1FBFB3FA83F56A
:1002D00003FA05F424FA05F65E4012BF1643B2FA9B
:1002E00082F502FA05F4C5F120051EBF22FA05FCCD
:1002F00044EA0C04203556EA044C4FEA144418BF73
:10030000641C4FF000084FF00009904271EB030CA1
:1003100039D3002919BFB1FA81F701FA07F6B0FA0B
:1003200080F700FA07F6C7F120071EBF20FA07FC86
:1003300046EA0C062037B6FBF4FCA7EB0507103F96
:1003400007F01F0BCBF120060CFA0BFB2CFA06F67C
:1003500044BFB3460026202FA4BF5E464FF0000BDB
:100360005BEA060C08BF4FF0010B19EB0B09ABFB66
:10037000027C48EB0608C01B06FB02CC0BFB03CC3F
:1003800071EB0C01C1E70B46024641464846BDE809
:10039000F08B13B54FF000004FF00001AFF3008079
:1003A000BDE81C4070474FF0000200B5134694466C
:1003B0009646203922BFA0E80C50A0E80C50B1F1BD
:1003C0002001BFF4F7AF090728BFA0E80C5048BFD1
:1003D0000CC05DF804EB890028BF40F8042B08BF6F
:1003E000704748BF20F8022B11F0804F18BF00F86B
:1003F000012B704770477047704710B500F008F840
:10040000006810BD10B5044600F002F8046010BD8D
:1004100000487047F004002000487047F0040020B6
:100420007546FFF7F9FFAE4605006946534620F0D2
:100430000700854618B020B5FFF72CFFBDE8204027
:100440004FF000064FF000074FF000084FF0000B90
:1004500021F00701AC46ACE8C009ACE8C009ACE843
:10046000C009ACE8C0098D46704710B50446AFF32B
:1004700000802046BDE81040FFF7F7BE0149182074
:10048000ABBEFEE7260002007047000010B504482E
:1004900000F060FFBDE81040024800F05BBF0000C4
:1004A000280000209400002070B504460068816890
:1004B0008268C1F3400112F0010F28D039BB816876
:1004C00001F00D01012914D18168124A1140891CE3
:1004D000816021680320086001F026FD054612E0D6
:1004E00001F022FD401B02280DD920688068C0075A
:1004F00009D0E06D40F01000E065206E40F0010092
:100500002066012070BD20688068C007E8D1002007
:1005100070BD0000C0FFFF7FF8B5044600200090CA
:100520002068816811F0010F41D18168214A114290
:100530002ED18168D5432940491C81601E488068BE
:1005400000F0E07000020DD51C481D490068B0FBAA
:10055000F1F0401C00EB4000800000E0401E0090E5
:100560000028FBD101F0E0FC06461BE0816811F099
:10057000010F03D181682940491C816001F0D4FC3E
:10058000801B02280ED920680068C043C00709D02C
:10059000E06D40F01000E065206E40F00100206644
:1005A0000120F8BD20680168C943C907DED10020D9
:1005B000F8BD00003F000080000300501000002044
:1005C000400D03003EB5002042F21074CDE900401A
:1005D000134D034602466C21284601F0EFFD0C2026
:1005E0008DF80800012302AA6C212846009401F02E
:1005F000E5FD00231A466C212846009401F0DEFD3B
:10060000022301AA6D212846009401F045FD9DF8C2
:1006100004109DF8050001F00F0140EA01203EBDE5
:1006200060010020FEE70000014801F05BBA000015
:10063000B4010020014801F055BA0000000100207B
:10064000014801F04FBA000014020020014801F0F7
:1006500049BA0000A0030020014801F043BA00009D
:100660000004002010B501680E4CCAB21423083AE9
:10067000A14203D2B2FBF3F20B4904E0B2FBF3F266
:1006800009492031921D436C02F01F0223F003033D
:100690001944816404498031C1640121914001659C
:1006A00010BD000008040240000802400179084A19
:1006B00001F07F0102EB81024265054A4432491E86
:1006C000826501F01F0201219140C1657047000061
:1006D000FC08024030B5D0E913456560446D14B1A3
:1006E000D0E91645656090F8444004F01F050124E8
:1006F000AC40056C6C60046863608368102B036811
:1007000003D099600068C26030BD9A600068C16023
:1007100030BD704772B6FEE7F8B500260446009675
:1007200090F858000D4601280BD0012084F858009D
:100730002046FFF7B9FE0100E06D04D040F0100044
:100740002AE00220F8BD20F4885040F00200E06565
:1007500020688268134B1A4005F080431A4342F028
:1007600000428260104A20680EE0009B5B1C0093F0
:10077000934209D3E06D20F0020040F01000E065E4
:1007800084F858600120F8BD8368DB0FEDD1E06D7F
:1007900020F0020040F00100E06584F8586008464F
:1007A000F8BD0000C0FFFF3F02DE040070470000FC
:1007B0002DE9F84F4FF000080446CDF800800D46B3
:1007C00094F85820DFF8EC93616947464046012AC7
:1007D0000AD00126F84A84F8586041B1296A0129F3
:1007E00005D0A36EEBB129E00220BDE8F88F686860
:1007F000092838D1A96A4FF4785041B12B6801F02B
:100800007C0100EA53400843E96A084302E0296892
:1008100000EA51402168CB6C13400343CB6460660F
:1008200021E0C4E91971A96A286A31B101F07C019B
:10083000401E0843E96A084300E0401E29682B79FE
:10084000C1F3846103F01F0399400143A06E401E71
:10085000A066636E43EA0103636604D12068C16C3D
:1008600011401943C164206803F086FC58B995F81B
:10087000250098B12068C16895F8262021F4401120
:1008800041EA4251C160206803F07EFC8246206844
:1008900003F072FC5AEA00000DD0FBE095F8260048
:1008A00095F82410400540EA01512068C26822F4FE
:1008B00040121143E6E7A86A30B1E86A20B195F822
:1008C000250001285ED003E095F82500012804D01A
:1008D0002068C16821F0007103E02068C16841F020
:1008E0000071C16095F83000012852D0206801697C
:1008F00021F002010161AA6829682068B2F1004F65
:1009000038D003F05CFC2068416921F0004141616E
:1009100020686969C268C2F3C102520091402A6925
:10092000042A44D000EB82002B68026EDFF88CC2F0
:1009300003F0F84302EA0C020B431A4342F0004171
:10094000016620682A69A96900EB8200026E22F024
:1009500080720A430266297F22682869012923D010
:100960005FF0000102EB8000026E22F000720A4389
:1009700002668FE0002203F022FC2068416941F00A
:100980000041C4E7E06D40F02000E0654FF0010851
:10099000A8E7D5E90D1001432068026922F4FF722F
:1009A00042F002021143A5E74FF00071DAE700219F
:1009B00003F0D8FB400320684FF0000172D003F031
:1009C000D1FB90FAA0F0B0FA80F1286842036ED013
:1009D00090FAA0F0B0FA80F0814204D100221146D2
:1009E000206803F003FC0121206803F0BBFB4003F7
:1009F00020684FF001015DD003F0B4FB90FAA0F045
:100A0000B0FA80F12868420359D090FAA0F0B0FA09
:100A100080F0814204D100220121206803F0E6FB2E
:100A20000221206803F09EFB400320684FF0020182
:100A300048D003F097FB90FAA0F0B0FA80F1286854
:100A4000420344D090FAA0F0B0FA80F0814204D181
:100A500000220221206803F0C9FB0321206803F073
:100A600081FB400320684FF0030133D003F07AFB91
:100A700090FAA0F0B0FA80F1286842032FD090FAE3
:100A8000A0F0B0FA80F0814204D100220321206856
:100A900003F0ACFB2068816811F0010F22D0B6E0B2
:100AA00000E004E003F05EFBC0F384618DE7C0F377
:100AB000846091E703F056FBC0F38461A2E7C0F3C2
:100AC0008460A6E703F04EFBC0F38461B7E7C0F390
:100AD0008460BBE703F046FBC0F38461CCE7C0F35E
:100AE0008460D0E72A7B296850F8B03FC1F3120C2C
:100AF00023EA0C0302F0180C314A22FA0CF20A40E5
:100B000013430360E96849457ED1286841031CD03E
:100B100090FAA0F1B1FA81F1491C01F01F010929F5
:100B20004FEA403132D8002912D000BF90FAA0F12C
:100B3000B1FA81F101F1010101F01F0106FA01F69C
:100B400009D100BFC0F3846109E0C0F38461E3E729
:100B5000C0F38461EEE790FAA0F1B1FA81F101F1FE
:100B6000010101F01F0146EA816102D1C0F38460F6
:100B700003E090FAA0F0B0FA80F000F1010000F07C
:100B80001F0000EB400041EA00513AE000290ED07E
:100B900090FAA0F1B1FA81F101F1010101F01F0118
:100BA00006FA01F60ED100BFC0F384610EE0C0F377
:100BB0008461F1E700007F400040100400F0FF0373
:100BC000FFFF070090FAA0F1B1FA81F101F10101F4
:100BD00001F01F0146EA816102D1C0F3846003E0A5
:100BE00090FAA0F0B0FA80F000F1010000F01F00D0
:100BF0002B4A00EB400002EB005041EA000141F0BB
:100C00000071AA68206800E001E003F0D8FA2548E6
:100C10002A68024240D024488168244B01F0E071E8
:100C20009A4202D0224B9A421BD10B0219D422685D
:100C3000B2F1A04F30D1826841F4000122F0E0729D
:100C40000A4382601B481C490068B0FBF1F0801C1D
:100C500000EB4000800000E0401E00900028FBD127
:100C60001AE0164D164BAA4207D1CD0105D42268D1
:100C70009A4211D041F0807109E0124DAA420BD185
:100C80004A0209D422689A4206D041F4800182685F
:100C900022F0E0720A43826084F858704046A4E56E
:100CA000000020FE0000088000030050000021C367
:100CB0001000C09010000020400D0300000052C73B
:100CC00000010050000084CB0A4910B588420FD1C2
:100CD0000921084800F010F884B240F20F110548CD
:100CE00000F00AF881B22046BDE8104003F08EBD46
:100CF00010BD0000280000200068A1F580710F39A8
:100D00000ED0B1F5837F08D0B1F5037F02D0D0F8C3
:100D100080007047D0F88C007047D0F8880070478A
:100D2000D0F88400704770472DE9F04104464548EB
:100D3000806800F01F05206803F01EFA08BB2168D8
:100D4000C868C96C00F0004011F4C07F00D190B1B8
:100D500094F85800012814D0012084F85800204647
:100D6000FFF7DAFB01004FF000020CD084F85820A6
:100D70000846BDE8F081E06D40F02000E06501200C
:100D8000F7E70220F5E7E06DC00504D5206E20F0FE
:100D90000800206600E02266E06D42F201039843FD
:100DA00040F48050E065284B20684FF0A046984200
:100DB00001D1374600E00746874200D01DB9E76DF4
:100DC00027F48017E7656027076084F858202068BB
:100DD000C268920203D5426842F480624260A06910
:100DE00008282068426807D022F04002426020684C
:100DF000426842F0200206E022F0200242602068B1
:100E0000426842F0400242602068984201D1324676
:100E100000E00246824209D045B1062D06D0072DDA
:100E200004D0E06D40F48010E065A1E7C26812F0E4
:100E3000007F9DD18268054B1A4042F00802826013
:100E400096E700000003005000010050C0FFFF7F44
:100E5000704770472DE9F047044690F858009CB061
:100E60000E464FF00009012815D0012084F85800E3
:100E700000251795189520684FF0A04840450ED1E1
:100E8000284F0097384603F07FF98246206803F028
:100E90007BF960B10EE002201CB0BDE8F087E06D88
:100EA00040F02000E06584F858500120F4E7BAF1E2
:100EB000000F09D0E06D40F02000E0654FF001091F
:100EC00084F858504846E7E71748326840F61F71E3
:100ED000002A826822F4604216D094F8383042EA40
:100EE000433273681A438260D8F80820BB6802F066
:100EF000010203F001031A43E2D1B36832681A43D6
:100F000083688B431A430BE08260D8F80820BB68E3
:100F100002F0010203F001031A43D1D182688A432F
:100F20008260CDE700010050000300502DE9F84F2A
:100F300000270446009790F85800DFF8E0930D462C
:100F4000B846012811D0012684F85860206803F0C3
:100F500017F960B1E06D40F02000E0655FF0010737
:100F600084F858803846BDE8F88F0220FBE7D5E9C1
:100F700000210C23206803EA91131844036B01F04D
:100F80001F014FF01F0C0CFA01FCC2F3846223EA2C
:100F90000C038A4013430363206803F0F1F8824690
:100FA000206803F0E5F85AEA00003CD1AA682968F5
:100FB0002068B2F1004F37D003F0F2F820684169A1
:100FC00021F00041416120686969C268C2F3C10231
:100FD000520091402A69042A31D000EB82002B682C
:100FE000026EDFF83CC303F0F84302EA0C020B4345
:100FF0001A4342F00041016620682A69A96900EBA2
:101000008200026E22F080720A430266297F226803
:101010002869012910D0002102EB8000026E22F025
:1010200000720A4302667DE0002203F0B9F82068EE
:10103000416941F00041C5E74FF00071ECE7002144
:1010400003F08AF8400320684FF0000172D003F0EB
:1010500083F890FAA0F0B0FA80F1286842036ED0CD
:1010600090FAA0F0B0FA80F0814204D1002211463B
:10107000206803F0B3F80121206803F06DF8400305
:1010800020684FF001015DD003F066F890FAA0F0FF
:10109000B0FA80F12868420359D090FAA0F0B0FA73
:1010A00080F0814204D100220121206803F096F8EB
:1010B0000221206803F050F8400320684FF002013D
:1010C00048D003F049F890FAA0F0B0FA80F128680F
:1010D000420344D090FAA0F0B0FA80F0814204D1EB
:1010E00000220221206803F079F80321206803F030
:1010F00033F8400320684FF0030133D003F02CF89D
:1011000090FAA0F0B0FA80F1286842032FD090FA4C
:10111000A0F0B0FA80F0814204D1002203212068BF
:1011200003F05CF82068816811F0010F22D0ACE078
:1011300000E004E003F010F8C0F384618DE7C0F331
:10114000846091E703F008F8C0F38461A2E7C0F37C
:101150008460A6E703F000F8C0F38461B7E7C0F34A
:101160008460BBE702F0F8FFC0F38461CCE7C0F312
:101170008460D0E72A7B296850F8B03FC1F3120C95
:1011800023EA0C0302F0180C664A22FA0CF20A4019
:1011900013430360E968494577D1286841031CD0AF
:1011A00090FAA0F1B1FA81F1491C01F01F0109295F
:1011B0004FEA403132D8002912D000BF90FAA0F196
:1011C000B1FA81F101F1010101F01F0106FA01F606
:1011D00009D100BFC0F3846109E0C0F38461E3E793
:1011E000C0F38461EEE790FAA0F1B1FA81F101F168
:1011F000010101F01F0146EA816102D1C0F3846060
:1012000003E090FAA0F0B0FA80F000F1010000F0E5
:101210001F0000EB400041EA005132E000290ED0EF
:1012200090FAA0F1B1FA81F101F1010101F01F0181
:1012300006FA01F606D100BFC0F3846106E0C0F3F0
:101240008461F1E790FAA0F1B1FA81F101F10101B5
:1012500001F01F0146EA816102D1C0F3846003E01E
:1012600090FAA0F0B0FA80F000F1010000F01F0049
:101270002D4A00EB400002EB005041EA000141F032
:101280000071AA68206802F08BFF28482A68024291
:101290003FF466AE26488168264B01F0E0719A4221
:1012A00002D0254B9A421CD10B021AD42268B2F10B
:1012B000A04F7FF455AE826841F4000122F0E07245
:1012C0000A4382601D481E490068B0FBF1F0401CD3
:1012D00000EB4000800000E0401E00900028FBD1A1
:1012E0003EE6184D184BAA4207D1CD0105D422681D
:1012F0009A42F5D041F0807109E0144DAA42EFD135
:101300004A02EDD422689A42EAD041F48001826810
:1013100022F0E0720A43826022E6000000007F4073
:1013200000F0FF03FFFF0700000020FE0000088020
:1013300000030050000021C31000C09010000020E6
:10134000400D0300000052C700010050000084CB94
:10135000704770472DE9F05F0446006806684568ED
:10136000DFF854B2DBF8080000F01F07B0070ED515
:10137000A8070CD5E06DC00603D4E06D40F4006012
:10138000E0652046FFF712FA216802200860DFF8C6
:101390002CA270074FF0A04801D5680703D430078E
:1013A00037D5280735D5E06DC00603D4E06D40F48D
:1013B0000070E065206802F0EBFE20B32068504525
:1013C00001D1424600E00246824208D03FB1052FDB
:1013D00005D0092F03D0504503D1414602E0C16832
:1013E00001E00146C96889040DD4016809070AD5DE
:1013F00002F0C6FE58B3E06D40F01000E065206ECC
:1014000040F0010020662046FFF7A2FF21680C2073
:101410000860B00601D5A80603D4700658D5680642
:1014200056D5E06DC00603D4E06D40F40050E06591
:101430002068C16C11F4C07F1AD00021894602F0E7
:10144000A7FE02462068504514D1434613E02068A9
:10145000416821F00C014160E06D20F48070E0658E
:10146000E06DC004CFD4E06D40F00100E065CAE754
:101470000121E3E70346834208D03FB1062F05D0A0
:10148000072F03D0504503D1414602E0C16801E077
:101490000146C968B9F1000F14D08B0102D58AB199
:1014A0008A040FD4026852060CD589020AD402F0CD
:1014B0005FFEE8B3E06D40F01000E065206E40F0A4
:1014C000010020662046FFF7FFFB216860200860CE
:1014D00030060BD5280609D5E06D40F48030E06574
:1014E000204600F067F9216880200860F0050CD5DF
:1014F000E8050AD5E06D40F40030E0652046FFF7CE
:10150000A7FC21684FF480700860B0050CD5A805D1
:101510000AD5E06D40F48020E0652046FFF799FC95
:1015200021684FF400700860F0062ED5E80600E050
:1015300008E02AD5E06BD0B1AFB1DBF8080000F4C9
:10154000604013E02068416821F060014160E06D77
:1015500020F48050E065E06DC005B3D4E06D40F04C
:101560000100E065AEE72068C068C00750B1E06DDB
:1015700040F48060E065206E40F002002066204666
:10158000FFF7E7FE216810200860700512D5680596
:1015900010D5E06D40F48040E065206E40F008001A
:1015A000206621684FF4806008602046BDE8F05F47
:1015B000FFF7B9BBBDE8F09F0003005000010050E9
:1015C000F8B54FF0000504002E46009502D0E06DFE
:1015D00010B107E00120F8BD204600F0EDF82666C6
:1015E00084F8586020688168C1F3407119B181683E
:1015F000684A1140816020688168C1F3007189B92F
:101600008168654A114041F08051816063486449B6
:101610000068B0FBF1F04000801C00E0401E00902C
:101620000028FBD120688168C1F3007141B9E16DE8
:1016300041F01001E165216E41F0010121660125B3
:1016400002F09EFDE16DC90600D430B1E06D40F0BE
:101650001000E06501252846F8BDE06D20F480709B
:1016600040F00200E0652068806810F0010F11D1A1
:101670004FF0A04080684B4900F00100896801F0FC
:101680000101084306D148486168826822F47C124F
:101690000A438260E168E06B627F0843A16841EA27
:1016A0004231084394F8241040EA0140012904D152
:1016B000218D3E4A02EB41410843E16A29B101F420
:1016C0007871226B014342EA01002268D168384BED
:1016D00019400143D16020680169626B21F04061CB
:1016E00011430161206802F043FD70BB207F94F834
:1016F0003810800340EA41022168C86844F20203BE
:1017000098431043C86020690028206801690AD006
:1017100041F480310161206850F8C01F22696FF3E5
:101720000D01114307E021F480310161206850F878
:10173000C01F6FF30D01016094F8400001280CD028
:101740002068016921F001010161606901282068B8
:10175000016B21F00F0111D013E0D4E9110108430E
:10176000D4E913121143084321680A6940F2FC735B
:101770009A43104340F001000861E6E7226A521ED6
:1017800011430163E06D20F0020040F00100E065CC
:1017900061E70000C0FFFF5FC0FFFF7F1000002077
:1017A000400D030000010050000300500000FEFF48
:1017B0000740F0FF704700002DE9F04198B0054662
:1017C000142111A8FEF7EFFD44216846FEF7EBFD5A
:1017D0004FF4004128688A03444F0326444C4FF0DD
:1017E0000008B0F1A04F10D0424B98427AD10F922E
:1017F0006846009100F006FF08B1FEF78BFF3868DD
:10180000401C3860012826D02DE00F9268460091D8
:1018100000F0F8FE08B1FEF77DFF3868401C386024
:10182000012807D1E06C40F40050E064E06C00F463
:1018300000501690E06C40F00100E064E06C11A9EB
:1018400000F001001690072081E841014FF0904020
:1018500000F042FA3EE0E06C40F40050E064E06CDE
:1018600000F400501690E06C40F00400E064E06C7E
:1018700000F004001690E06C40F00200E064E06CC0
:1018800011A900F0020016901020474681E8C1001F
:10189000194800F021FA11A9042081E8C100174875
:1018A00000F01AFA174C164820602420C4E90107FA
:1018B0008020C4E90370400060618000A0612020A6
:1018C000C4E90707204600F06BF908B1FEF722FFD4
:1018D0006C65A56200221146122000F0FBFD12206B
:1018E00000F0EAFD18B0BDE8F08100000000002023
:1018F00000100240000100500008004800040048A9
:101900001C000240000100202DE9F0410446384847
:10191000806800F01F05206802F032FC18B1022137
:101920000846BDE8F08194F8580001280CD0012049
:1019300084F858002046FEF7EFFD01004FF0000349
:1019400004D084F85830EBE70220EAE7E06D40F677
:101950000162904340F48070E065264A20684FF0B1
:10196000A046904201D1374600E00746874200D0AA
:101970001DB9E76D27F48017E765E76DFF0404D50F
:10198000276E27F00607276600E023661C270760FE
:1019900084F858302068904201D1334600E0034675
:1019A000834215D0A5B1052D12D0092D10D0E36DBD
:1019B00043F48013E365904200D13046C068800153
:1019C000AED5E06D20F4005040F48050E065A7E70C
:1019D000C268920105D5E26D22F4005242F48052B1
:1019E000E2658268044B1A40121D826098E700008D
:1019F0000003005000010050C0FFFF7F10B5002120
:101A000040B190F825300122022B05D00421C1639A
:101A1000012124E0012010BD03681C6824F00104AA
:101A20001C6003681C6824F00E041C60836C1C6836
:101A300024F480741C6090F84430046C03F01F039D
:101A400002FA03F36360D0E913345C60436D33B191
:101A50001C6824F480741C60D0E916345C6080F843
:101A60002520002280F82420084610BD70B590F88B
:101A70002520002401212346022A07D00422C26324
:101A800080F8251080F82430012429E002681568C8
:101A900025F0010515600268156825F00E05156032
:101AA000826C156825F48075156090F84420056CEB
:101AB00002F01F0201FA02F26A60D0E913255560B4
:101AC000426D32B1156825F480751560D0E9162590
:101AD000556080F8251080F82430816B01B188476B
:101AE000204670BDF0B4016C0C6801680D6890F878
:101AF000442002F01F06042202FA06F3234211D00A
:101B00006B070FD50B689B0603D40B6823F0040307
:101B10000B6090F8441001F01F018A40016C4A608C
:101B2000016B1DE0022303FA06F727424FF0000C79
:101B30004FF0010218D0AF0716D50C68A40605D4E3
:101B40000C6824F00A040C6080F8252090F84410FA
:101B500001F01F018B40016C4B6080F824C0C16A0A
:101B600000291AD0F0BC08470823B340234214D000
:101B70002B0712D50B6823F00E030B6090F844106E
:101B8000036C01F01F0102FA01F15960C26380F891
:101B9000252080F824C0416BE2E7F0BC70470000CC
:101BA00070B504000CD02C4A21681420914209D24F
:101BB0002A4A0A44B2FBF0F08000606428480AE038
:101BC000012070BD244A52420A44B2FBF0F080006A
:101BD0006064214808382064022084F825000A68DF
:101BE00047F6F0708243D4E902031843D4E9043580
:101BF0002B431843A3691843E3691843236A184326
:101C0000104308602046FEF72DFDA0680025B0F5C2
:101C1000804F00D165602079A16C00F07F000860E2
:101C2000D4E9130141606068401E032808D82046AB
:101C3000FEF73CFD606D0560D4E91601416002E0ED
:101C40006565A565E565E563012084F8250084F8F0
:101C50002450002070BD000008040240F8FFFDBFC2
:101C60000000024070B5044690F8240000250128C9
:101C70000CD0012084F8240094F825600020012E67
:101C800006D084F824000225284670BD022070BDCD
:101C9000022684F82560E0632068066826F00106C5
:101CA00006602046FEF716FD2068016841F001013C
:101CB0000160E9E770B5044600F036F90546601C9E
:101CC00002D004484068044400F02EF9401BA042B2
:101CD000FAD370BD040000202DE9F04FDFF80C921C
:101CE000002301260325A9F1040B85B00F2709F174
:101CF000040AABF1040EF1E006FA03FC12EA0C024E
:101D00007ED00C7904F00304012C01D0022C20D1E8
:101D1000846800945C0005FA04F80494009C24EAAA
:101D200008040094D1F80C80049C08FA04F8009C84
:101D300048EA0408C0F80880446824EA0C0491F8D2
:101D400004C0CCF3001C0CFA03FC4CEA040CC0F8F1
:101D500004C00C79E443A40702D18C68012C0ED096
:101D6000C4684FEA430805FA08FC24EA0C04D1F8D9
:101D700008C00CFA08FC4CEA040CC0F80CC00C7942
:101D800004F00304022C16D1DC0800EB840CCDF81F
:101D900008C0DCF820C05C074FEAD46807FA08F4F2
:101DA0002CEA040C0C6904FA08F444EA0C04DDF88B
:101DB00008C0CCF8204004684FEA430805FA08FC44
:101DC00024EA0C0491F804C00CF0030C0CFA08FC93
:101DD0004CEA040CC0F800C04C6814F4403F7CD0BE
:101DE000434CD4F860C04CF0010CC4F860C0246EC1
:101DF00023F0030C04F0010400943E4C644400E022
:101E00006BE00294A4684FEA837C4FEA1C7807FADF
:101E100008FC24EA0C04B0F1904F06D0DFF8D8C0DB
:101E2000604505D14FF0010C20E04FF0000C1DE0A3
:101E3000DFF8C8C0604502D14FF0020C16E0DFF8B1
:101E4000C0C0604502D14FF0030C0FE0DFF8B4C012
:101E5000604502D14FF0040C08E0DFF8ACC06045EB
:101E600002D14FF0050C01E04FF0060C0CFA08FC13
:101E70004CEA040C029CC4F808C0D9F80040CC46D7
:101E8000D1F8048094435FEAC82800D51443CCF805
:101E90000040DAF80040D446D1F8048094435FEA69
:101EA000882800D51443CCF80040DBF80040DC461D
:101EB000D1F8048094435FEA883800D51443CCF805
:101EC0000040DEF80040F446D1F8048094435FEA15
:101ED000C83800D51443CCF800405B1C0C6822467F
:101EE000DC407FF409AF05B0BDE8F08F0804014085
:101EF00000100240000001400004004800080048B3
:101F0000000C00480010004800140048426921EA13
:101F100002030A4043EA0241816170470AB18161CC
:101F20007047816270470000014880687047000078
:101F30000400002090F84120202A24D190F840206D
:101F4000012A20D0012280F84020242280F841205C
:101F50000268136823F0010313600268136823F416
:101F600080531360026813680B43136001680A68AA
:101F700042F001020A60202180F84110002180F81F
:101F80004010084670470220704790F84120202AF0
:101F900022D190F84020012A1ED0012280F8402052
:101FA000242280F841200268136823F001031360A3
:101FB0000268136823F4706343EA01211160016829
:101FC0000A6842F001020A60202180F841100021D5
:101FD00080F84010084670470220704770B5040032
:101FE00004D094F84100002510B106E0012070BD36
:101FF00084F84050204600F087F9242084F84100FE
:102000002068016821F0010101606068216820F00A
:10201000706008612068816821F400418160E06897
:102020000128A06830D040F4044021688860E0684E
:102030000228206841682AD021F4006141602068AC
:102040004168144A114341602068C16821F400418D
:10205000C160D4E904010843A16940EA0120216874
:10206000C860D4E907010843216808602068016856
:1020700041F0010101606564202084F8410025637E
:1020800084F84250002070BD40F40040CDE741F498
:102090000061D3E7008000022DE9F84F044690F874
:1020A0004100DDF828A01F4690468B4620287ED1AF
:1020B00094F8400001287AD0012084F84000FFF70E
:1020C00033FF0646012200901923D103204601F078
:1020D00059FFE0BB222084F84100102084F8420020
:1020E00000256564C4F8248067856563618D314887
:1020F000FF274FF080784FF00079FF2903D927851B
:102100003A46009039E0618D218500903AE05946C9
:10211000204601F01FFF13E001F072FFB8B92068FC
:10212000406A616A0870606A401C6062208D401ECF
:1021300080B22085618D491E6185618D01B168B1D4
:10214000608D3246002851462046E5D100E002E08D
:1021500001F0AAFFD0B10120BDE8F88F534600225C
:1021600080212046009601F00DFF0028F3D1608DFC
:10217000FF2804D927853A4600954346C7E7608D76
:102180002085009594F828204B46C0E72168202040
:10219000C86121684A68084B1A404A6084F84100C7
:1021A00084F8425084F840500020D5E7FFE7022031
:1021B000D2E700000024008000E800FE2DE9FF4F78
:1021C00081B0044690F84100DDF838B01F469046D3
:1021D00020287BD194F84000012877D0012084F892
:1021E0004000FFF7A1FE0646012200901923D1030B
:1021F000204601F0C7FE002853D1212084F8410079
:10220000102084F8420000256564C4F824806785A6
:102210006563608D3A49FF274FF080794FF0007A6F
:10222000FF2802D927854B4605E0608D20850004F4
:102230005346000C10D0226898F800009062606A43
:10224000401C6062608D401E6085208D401E208590
:10225000401CC2B2009101E0002200912046029988
:1022600001F078FE14E000BF01F049FFC8B9606AD0
:10227000216800788862606A401C6062608D401E40
:102280006085208D401E80B22085618D01B160B1D6
:10229000608D3246002859462046E5D101F004FF02
:1022A000E0B1012005B0BDE8F08F5B46002280213F
:1022B0002046009601F066FE0028F2D1608DFF28CE
:1022C00005D927853A464B460095C7E716E0608D4D
:1022D0002085009594F828205346BFE721682020E8
:1022E000C86121684A68074B1A404A6084F8410077
:1022F00084F8425084F840500020D3E70220D1E710
:102300000020008000E800FE2DE9F04397B006466B
:10231000142111A8FEF747F844216846FEF743F858
:1023200037493068884267D14020002400900694E5
:10233000684600F067F908B1FEF7ECF9314DE86C3A
:1023400040F00100E864E86C00F001001690E86CD1
:1023500040F00200E864E86C4FF0120800F0020060
:1023600016904FF004094FF40040CDE91284CDE9F6
:102370001449119011A94FF09040FFF7ADFCCDE941
:102380001284CDE914498027119711A91E48FFF73F
:10239000A3FCA86D40F40010A865A86D1C4D00F4C6
:1023A00000101690194828604FF01008C5E9018404
:1023B000C5E903476C61AC61EC6128462C62FFF70C
:1023C000EFFB08B1FEF7A6F9F563AE62104D0F48BA
:1023D000603528302860C5E903476C61AC61EC6169
:1023E00011202C62C5E901082846FFF7D9FB08B186
:1023F000FEF790F9B563AE6217B0BDE8F083000058
:102400000054004000100240000400480800024050
:10241000B40100200248816842681144816070471D
:102420000400002010B50024032000F073F80F20F2
:1024300000F008F808B1012401E000F025F820467A
:1024400010BD000070B50E4E05460024706898B1AE
:102450004FF47A71B1FBF0F00A490968B1FBF0F072
:1024600000F05EFD40B9102D06D200222946501E14
:1024700000F030F8356000E00124204670BD000017
:1024800004000020100000200A4882B0016E41F0D4
:1024900001010166016E01F001010091816D41F0C1
:1024A00080518165806D00F08050009002B000F096
:1024B000A1B8000000100240002809DB00F01F0254
:1024C000012191404009800000F1E020C0F8001196
:1024D00070470000F0B40E4B1B680C46C3F3022398
:1024E000C3F10705042D00D90425191D072901D2C0
:1024F000002300E0DB1E012606FA05F1491E2140FB
:1025000099409E40761E16403143F0BC03F0E8B976
:102510000CED00E0064900F0070208684FF6FF03E3
:10252000184040EA0220034A104308607047000048
:102530000CED00E00000FA052B492C4B0A68322113
:102540004A432B4940B1B0F5007F086829D020F4F8
:10255000C06040F480602CE00868C0F3412002288D
:1025600004D051F8800F20F4807022E0D1F8800070
:1025700020F48070C1F88000086820F4C06040F446
:1025800000700860B2FBF3F0401C00E0401E4A6996
:10259000520501D50028F9D1486940050AD5032024
:1025A0007047C0F34120022806D051F8800F40F454
:1025B0008070086000207047D1F8800040F480707F
:1025C000C1F88000086820F4C06040F40070086022
:1025D000B2FBF3F0401C00E0401E4A695205DBD517
:1025E0000028F9D1D8E700001000002040420F0079
:1025F000007000400248816841F48041816070476A
:10260000007000402DE9F8430446006800269D4D07
:1026100000035ED5A86D0027C00008D4A86D40F067
:102620008050A865A86D012700F080500090DFF869
:102630005892D9F8001041F48071C9F80010FFF7E2
:1026400073FC804606E000BFFFF76EFCA0EB0800BD
:1026500002282BD8D9F80000C005F5D5D5F8900090
:1026600010F4407014D0216C814211D0D5F8900044
:10267000D5F8901020F4407041F48031C5F89010E6
:10268000D5F8901021F48031C5F89010C5F890006D
:10269000C00711D0FFF748FC804641F2883907E0B7
:1026A000FFF742FCA0EB0801494501D903260BE0E6
:1026B000D5F890008007F3D5D5F89000216C20F470
:1026C00040700843C5F890001FB1A86D20F08050FD
:1026D000A8652078C00707D0D5F88800616820F089
:1026E00003000843C5F888002078800707D5D5F88F
:1026F0008800A16820F00C000843C5F88800207805
:10270000400707D5D5F88800E16820F0300008437D
:10271000C5F888002078000707D5D5F8880021691A
:1027200020F0C0000843C5F888002078800607D54F
:10273000D5F88800616920F440600843C5F8880036
:102740002078400607D5D5F88800A16920F44050CC
:102750000843C5F888002078000607D5D5F888001A
:10276000E16920F440400843C5F888002088C0058E
:1027700007D5D5F88800216A20F440300843C5F811
:1027800088002088800507D5D5F88800616A20F484
:1027900040200843C5F88800208840050FD5D5F8AB
:1027A0008800A16A20F440100843C5F88800A06A98
:1027B000B0F5801F03D1E86840F48010E8602088FD
:1027C00000050FD5D5F88800E16A20F440000843E1
:1027D000C5F88800E06AB0F5800F03D1E86840F4DE
:1027E0008010E8602088C0040FD5D5F88800216BE0
:1027F00020F040700843C5F88800206BB0F1807F5E
:1028000003D1E86840F48010E86020884FF0006150
:1028100080040ED5D5F88800626B20F0406010432C
:10282000C5F88800606B884203D1E86840F48010E6
:10283000E860208840040ED5D5F88800A26B20F00F
:1028400040601043C5F88800A06B884203D1E86857
:1028500040F48010E860208800040FD5D5F8880087
:10286000E16B20F040500843C5F88800E06BB0F100
:10287000805F03D1E86840F48030E8603046BDE80E
:10288000F883000000100240007000402DE9F0477E
:102890000E4605004FF0000725D0DFF8AC81D8F8D0
:1028A000000000F00F00B0420CD2D8F8001021F068
:1028B0000F013143C8F80010D8F8000000F00F00F5
:1028C000B04210D12968614CC80741F2883A5AD009
:1028D0006868DFF87C91032808D0022820682DD092
:1028E000400500282CDB0120BDE8F087206880012E
:1028F000F9D5E06800F00302E068C0F30310401C63
:10290000032A19D0534A00BFB2FBF0F0E268C2F3C9
:1029100006225043E268C2F34162521C5200B0FBEF
:10292000F2F0484517D9A06810F0F00F0CD08807D6
:1029300011D5A86840B10EE0474AE5E78003D0E72B
:1029400000F0B6F8484506D9A06820F0F00040F045
:102950008000A0608027A068696820F00300084319
:10296000A060FFF7E1FA814606E000BFFFF7DCFA5E
:10297000A0EB090151453AD8A068696800F00C0045
:10298000B0EB810FF2D12868810714D5400703D539
:10299000A06840F4E060A0602878000705D5A06832
:1029A00020F4605040F4E060A060A068A96820F0C6
:1029B000F000084304E0802F03D1A06820F0F0006D
:1029C000A060D8F80010404601F00F01B14216D9BE
:1029D000016821F00F0131430160FFF7A5FA0746B6
:1029E00007E000BFFFF7A0FAC11B514501D9032042
:1029F0007AE7D8F8000000F00F00B042F2D1287852
:102A0000400705D5A068E96820F4E0600843A060AD
:102A10002878000706D5A068296920F4605040EAAC
:102A2000C100A06000F044F8A1680C4AC1F3031192
:102A3000515C01F01F01C84009490860094800685D
:102A4000BDE8F047FFF7FEBC002002400010024046
:102A500000B4C4040024F40000127A001C5D0008D5
:102A6000100000200400002005480649006889681D
:102A7000054AC1F30221515C01F01F01C8407047B3
:102A800010000020001002402C5D00080548064997
:102A900000688968054AC1F3C221515C01F01F0139
:102AA000C840704710000020001002402C5D000854
:102AB000184910B58868C0F381021748012A0BD065
:102AC0008A684310C2F38102022A06D08A68C2F3E0
:102AD0008102032A03D0002010BD184610BDCA6829
:102AE00002F00304CA68C2F30312521C032C02D082
:102AF000B0FBF2F001E0B3FBF2F0CA68C968C2F3C0
:102B000006225043C1F34161491C4900B0FBF1F07A
:102B100010BD0000001002400024F4002DE9F8432D
:102B200004007AD02078F84DC00747D0A868E9683B
:102B300000F00C0001F003010C2802D0082817D087
:102B400001E0032914D06068B0F5803F17D0B0F5DC
:102B5000A02F286817D020F480302860286820F43F
:102B6000802028606068E0B1FFF7DEF9064614E0D7
:102B70002868800322D560680028D2D01EE028682B
:102B800040F48030EDE740F480202860F7E700BF94
:102B9000FFF7CAF9801B642870D828688003F7D52E
:102BA0000CE0FFF7C1F9064605E000BFFFF7BCF9EE
:102BB000801B6428F0D828688003F7D42078800729
:102BC0004CD5A868E96800F00C0001F003010C285E
:102BD00002D004280DD001E002290AD0E0680028C4
:102BE00028682BD040F480702860FFF79DF90646D6
:102BF00019E02868400502D5E068002891D068688F
:102C0000217C20F0FE4040EA01606860BF48006817
:102C1000FFF718FC002800D120E072E1FFF784F9EB
:102C2000801B0228B8D828684005F7D56868217C41
:102C300020F0FE4040EA016068600FE020F4807000
:102C40002860FFF771F9064605E000BFFFF76CF951
:102C5000801B0228A0D828684005F7D420780007F8
:102C600029D560690028D5F8940013D040F0010000
:102C7000C5F89400FFF758F9064606E090E000BF5B
:102C8000FFF752F9801B022886D8D5F894008007F8
:102C9000F6D510E020F00100C5F89400FFF744F9E4
:102CA000064604E0FFF740F9801B022878D8D5F8E3
:102CB00094008007F6D42078400761D5A86D0026DF
:102CC000C00008D4A86D40F08050A865A86D01260A
:102CD00000F0805000908E480168C90511D4016849
:102CE000804641F480710160FFF71EF9074604E059
:102CF000FFF71AF9C01B022852D8D8F80000C00507
:102D0000F6D5A068012815D00528D5F8900016D072
:102D100020F00100C5F89000D5F8900020F00400E4
:102D2000C5F89000A06841F28838B8B1FFF7FCF808
:102D300007460EE0D5F8900040F00100F0E740F0C3
:102D40000400C5F89000F5E7FFF7EEF8C11B414518
:102D500026D8D5F890008007F6D50CE0FFF7E4F808
:102D6000074604E0FFF7E0F8C11B414518D8D5F845
:102D700090008007F6D41EB1A86D20F08050A865A1
:102D80002078800629D5A0690028D5F8980013D0AE
:102D900040F00100C5F89800FFF7C6F8064606E0C7
:102DA00075E000BFFFF7C0F8801B02286FD8D5F888
:102DB00098008007F6D510E020F00100C5F89800D3
:102DC000FFF7B2F8064604E0FFF7AEF8801B0228D2
:102DD0005DD8D5F898008007F6D4E069F0B3A9680B
:102DE000C1F3810103295DD00228286820F080709A
:102DF000286003D0FFF798F804464BE0FFF794F8FB
:102E0000064604E0FFF790F8801B02283FD82868A8
:102E10008001F7D4F4E908016FF00F0202EB011111
:102E20000843218A5204490802EB4151A26841EA51
:102E300002210843217D4FF07E42490802EB4161A7
:102E40000843217B40EAC160E968324A11400843E7
:102E5000E860286840F08070286000E05EE0E86884
:102E600040F08070E860FFF75FF8044605E000BFBF
:102E7000FFF75AF8001B022809D828688001F7D507
:102E80004CE000BFFFF750F8001B022802D90320D6
:102E9000BDE8F88328688001F4D4E8681E4908403A
:102EA000E8603BE00128F3D0E868226A00F0030103
:102EB000914226D1616A00F0F00209011039914275
:102EC0001FD1A26A00F4FE41B1EB022F19D194F890
:102ED0002C2000F07841B1EBC26F12D1218E00F4AA
:102EE000C00249084905A1F50011914209D194F8A1
:102EF000341000F0C06049084906A1F10071814218
:102F00000CD00120C4E700000010024004000020A3
:102F1000007000400C809F01FCFFEEFE0020B7E730
:102F200010B5401EB0F1807F01D3012010BD4FF0DD
:102F3000E02460610F21601702F0D2FC0020A06144
:102F400007202061002010BD7047704770470000C7
:102F500030B590F83C20012A42D0012280F83C2074
:102F6000CA688B6822F440721A434B6822F480626C
:102F70001A430B6822F400621A430B6922F4805250
:102F80001A434B6922F400521A430B6B22F480421D
:102F90001A430B8B22F4702242EA0342CB6922F0DF
:102FA00080521A430F4D03680024AB4202D00E4DED
:102FB000AB4210D10D8D22F4700242EA05520D6A27
:102FC00022F080722A434D6A22F000722A43C96AB5
:102FD00022F000520A435A6480F83C40002030BD81
:102FE000022030BD002C0140003401407047704782
:102FF00070470000F0B590F83C20012A3AD0012536
:1030000080F83C50022280F83D2003685A689C6892
:10301000194E1A4FB34201D0BB4204D122F4700CB6
:103020004A6842EA0C02DFF858C002EA0C02D1F802
:1030300000C04CEA020CC3F804C00268B2420DD0D2
:10304000B2F1804F0AD00F4B9A4207D00E4B9A42F2
:1030500004D0BA4202D00D4B9A4204D1896824F0C0
:1030600080031943916080F83D50002180F83C10A6
:103070000846F0BD0220F0BD002C014000340140A4
:103080008FFFFFFD000400400008004000400140A9
:1030900010B50446022249B104290ED0082913D0E4
:1030A00094F84700012816D0012010BD94F8440080
:1030B0000128F9D184F844200FE094F84500012854
:1030C000F2D184F8452008E094F846000128EBD1BD
:1030D00084F8462001E084F847200422206801F0AB
:1030E00046FF2068416C41F400414164104920686A
:1030F00088420ED0B0F1804F0BD00E49884208D0E4
:103100000D49884205D00D49884202D00C498842B9
:1031100007D181680B4A1140062906D0B1F5803FDE
:1031200003D0016841F001010160002010BD0000E2
:10313000002C014000040040000800400034014021
:103140000040014007000100704710B5040003D0A3
:1031500094F83D0010B107E0012010BD002084F874
:103160003C00204600F022F8022084F83D00211D9A
:10317000206801F093FE012084F8480084F83E00A6
:1031800084F83F0084F8400084F8410084F842004D
:1031900084F8430084F8440084F8450084F846002D
:1031A00084F8470084F83D00002010BD08B5114A9E
:1031B00001681148914208D1016E41F40061016635
:1031C000006E00F40060009008BDB1F1804FFBD1AB
:1031D000816D41F001018165806D002200F00100E8
:1031E000009002211C20FFF775F9BDE808401C2063
:1031F000FFF762B9002C01400010024090F83D102A
:10320000012901D001207047022180F83D1001689A
:10321000CA6842F00102CA600068104988420ED0B4
:10322000B0F1804F0BD00E49884208D00D4988423A
:1032300005D00D49884202D00C49884207D18168E7
:103240000B4A1140062906D0B1F5803F03D0016832
:1032500041F001010160002070470000002C014096
:1032600000040040000800400034014000400140DC
:103270000700010070B5044690F83C0000250128C5
:1032800014D0012684F83C60022084F83D002268B6
:103290009068364B184020F47F4090600868702892
:1032A0002ED010DC10F00F0F03D021E04FF0020001
:1032B00070BD4FEA2012072A1AD2DFE802F05252FC
:1032C00052524A3840002A4BC21A984249D009DC6F
:1032D000B0F5805F0DD0B0F5005F1CD0B0F1101FCD
:1032E00006D13EE0102A3CD0202A3AD0502A38D0CD
:1032F000012584F83D60002084F83C00284670BD1C
:10330000CB68D1E90121206801F03EFE2068816888
:1033100041F0770109E0CB68D1E90121206801F093
:1033200033FE2068816841F480418160E1E7CA682A
:103330004968206801F0DCFF5021206806E0CA6877
:103340004968206802F002F86021206801F026FE3A
:10335000CFE7CA684968206801F0CAFF40212068A9
:10336000F4E7226801461046F0E7000088FFCEFF30
:103370002000100070472DE9F04104460068C6683F
:1033800005694FF00007A90713D5B10711D5F91E3C
:10339000016101202077206880698007204602D0E3
:1033A000FFF7E8FF04E000F001F9204600F0C3F960
:1033B0002777680716D5700714D521686FF00400C9
:1033C0000861022020772068806910F4407F204641
:1033D00002D0FFF7CFFF04E000F0E8F8204600F04D
:1033E000AAF92777280715D5300713D521686FF07C
:1033F00008000861042020772068C0698007204603
:1034000002D0FFF7B7FF04E000F0D0F8204600F04C
:1034100092F92777E80616D5F00614D521686FF0E3
:1034200010000861082020772068C06910F4407FF0
:10343000204602D0FFF79EFF04E000F0B7F82046D8
:1034400000F079F92777E80708D0F00706D021685F
:103450006FF001000861204600F0ECF9280601D465
:10346000A80408D5300606D521686FF4025008611B
:103470002046FFF76AFDE80508D5300606D5216825
:103480006FF4807008612046FFF75EFD680608D57E
:10349000700606D521686FF040000861204600F0F4
:1034A00001FAA80608D5B00606D521686FF02000FD
:1034B00008612046FFF74AFDE80208D5F00206D56C
:1034C00021686FF4801008612046FFF790FDA80284
:1034D00008D5B00206D521686FF4001008612046B7
:1034E000FFF784FD680208D5700206D521686FF4E5
:1034F000800008612046FFF77BFD28020AD53002D4
:1035000008D521686FF4000008612046BDE8F0414D
:10351000FFF71ABEBDE8F081F0B587B0044614216C
:103520006846FCF740FF1E492068884236D11D4896
:10353000C16C41F00201C164C16C01F0020105914E
:10354000C16C41F00101C164C06C022500F00100B2
:1035500005904FF4C04000900024CDE901540626A8
:10356000114FCDE9034669463846FEF7B5FBA8037F
:103570000090CDE901540420CDE903406946384666
:10358000FEF7AAFB4FF4E0600090CDE90154CDE9CD
:10359000034669464FF09040FEF79EFB07B0F0BD32
:1035A000002C01400010024000040048704770B534
:1035B000044690F83C0000260D4601280BD001205F
:1035C00084F83C000C2A4AD007DC82B1042A20D0BF
:1035D000082A06D131E0022070BD102A53D0142AE7
:1035E00063D00126002084F83C00304670BD20687E
:1035F00001F0DEFC2068816941F0080181612068EA
:10360000816921F004018161206881692A6911437F
:1036100011E0206801F01EFD2068816941F400611D
:1036200081612068816921F48061816120688169FC
:103630002A6941EA02218161D4E7206801F054FD42
:103640002068C16941F00801C1612068C16921F0A9
:103650000401C1612068C1692A69114311E0206831
:1036600001F08CFD2068C16941F40061C1612068EE
:10367000C16921F48061C1612068C1692A6941EA98
:103680000221C161AEE7206801F0C2FD2068016D32
:1036900041F0080101652068016D21F00401016518
:1036A0002068016D2A69114311E0206801F0E8FDEE
:1036B0002068016D41F4006101652068016D21F40D
:1036C000806101652068016D2A6941EA0221016576
:1036D00088E710B5040003D094F83D0010B107E06E
:1036E000012010BD002084F83C00204600F022F8A4
:1036F000022084F83D00211D206801F0CFFB01204D
:1037000084F8480084F83E0084F83F0084F84000C4
:1037100084F8410084F8420084F8430084F84400AF
:1037200084F8450084F8460084F8470084F83D009A
:10373000002010BD7047704730B50446022269B1C1
:10374000042912D0082917D00C291CD0102921D007
:1037500094F84300012824D0012030BD94F83E00A5
:103760000128F9D184F83E201DE094F83F0001289B
:10377000F2D184F83F2016E094F840000128EBD104
:1037800084F840200FE094F841000128E4D184F847
:10379000412008E094F842000128DDD184F842205D
:1037A00001E084F843200122206801F0D3FB194B8B
:1037B00020681949194A984209D0884207D0904296
:1037C00005D0174DA84202D0164DA84203D1456C32
:1037D00045F400454564206898420CD0B0F1804F14
:1037E00009D0114B984206D0104B984203D0884222
:1037F00001D0904207D181680D4A1140062906D0B8
:10380000B1F5803F03D0016841F001010160002063
:1038100030BD0000002C0140003401400040014058
:1038200000440140004801400004004000080040FE
:1038300007000100154910B5884225D101F0ECF8C8
:10384000154C9FED130A154994ED011ADFED110A8D
:1038500031EE000A10EE100A84ED010A884205DDFF
:103860009FED0F1A30EE410A84ED010A01F01AF8BB
:103870002088401C80B22080FA2805D300202080B8
:10388000BDE8104000F0BABC10BD0000C00200202E
:10389000CDCC4C3D0000484318000020DA0FC94051
:1038A000DA0FC940704790F88410012918D001211F
:1038B00080F884102421C0F8881001680A680B6819
:1038C00023F001030B6022F00051002242660368DE
:1038D00019602021C0F8881080F8842010467047B5
:1038E000022070477047704770B5044690F8840016
:1038F00001281DD0012084F884002420C4F8880009
:1039000020680568026822F001020260206882686F
:1039100022F060620A438260204601F037FD206891
:1039200005602020C4F88800002084F8840070BD61
:10393000022070BD70B5044690F8840001281DD0A7
:10394000012084F884002420C4F8880020680568D9
:10395000026822F0010202602068826822F0604260
:103960000A438260204601F011FD20680560202096
:10397000C4F88800002084F8840070BD022070BD67
:1039800070477047704700002DE9F0410368044616
:10399000D86919689A6840F60F0528424FF000056B
:1039A0004FF002060AD187067ED501F0200702F00B
:1039B000805C57EA0C0777D0616F42E1B64FDFF8C1
:1039C000DCC2174001EA0C0C57EA0C0C6CD05FEA21
:1039D000C07C0CD05FEAC15C09D54FF0010CC3F884
:1039E00020C0D4F8903043F00103C4F8903083072E
:1039F00009D5D30707D023681E62D4F8903043F06E
:103A00000403C4F8903043070AD5D30708D02668CA
:103A100004233362D4F8903043F00203C4F89030AA
:103A200003070CD501F020033B4308D02668082388
:103A30003362D4F8903043F00803C4F890300305A3
:103A40000BD54B0109D526684FF400633362D4F8D7
:103A5000903043F02003C4F89030D4F89030002B1D
:103A60003DD0800609D501F0200002F080510843C6
:103A700003D0616F09B120468847D4F890002168CF
:103A80008968490602D410F0280F2AD0204601F098
:103A90005FFD2068806840061ED52068083050E829
:103AA000001F21F0400100E021E040E80012002A60
:103AB000F3D1D4F8800078B179498163D4F88000DB
:103AC000FDF7D4FF00280AD0D4F88000816B00E015
:103AD0002046BDE8F04108472046FFF753FFBDE808
:103AE000F0812046FFF74EFFC4F89050F7E7D4F876
:103AF0006CC02027BCF1010F7ED15FEAC06C7BD582
:103B00005FEAC16C78D51020186220688068400692
:103B100051D5D4F880100A6850680004000C3ED0DB
:103B2000B4F85C3083423AD9A4F85E0008680068B3
:103B300080062CD4216851E8000F20F4807041E801
:103B40000002002AF6D12068083050E8001F21F05A
:103B5000010140E80012002AF5D12068083050E841
:103B6000001F21F0400140E80012002AF5D1C4F8FE
:103B70008C70E566216851E8000F20F0100041E8E4
:103B80000002002AF6D1D4F88000FDF737FF26673F
:103B9000B4F85C00B4F85E10401A81B207E0B4F8E3
:103BA0005C1081429BD11068800698D5266720461C
:103BB000FFF798FE93E7B4F85C00B4F85E10401A83
:103BC00081B2B4F85E00002889D0002987D022682D
:103BD00052E8000F20F4907042E80003002BF6D169
:103BE0002D4BDB432068083050E8002F1A4040E896
:103BF000002CBCF1000F00E00EE0F3D1C4F88C7093
:103C0000E5666567206850E8002F22F0100240E862
:103C10000023002BF6D1C9E7C60209D5560207D505
:103C20004FF4801018622046BDE8F041FFF7A9BEAE
:103C300003060AD501F0800302F40002134304D006
:103C4000A16F00297FF444AF49E7420611D54A0627
:103C50000FD52046016851E8002F22F0400241E8CC
:103C60000023002BF6D1C0F88870856700F0C8F8F3
:103C700035E7020206D54A0004D52046BDE8F041EA
:103C8000FFF77EBEC00195D5002993DA2046BDE836
:103C9000F041FFF728BE00000100001020010004E1
:103CA0004555000810B5040003D0D4F8880010B1C1
:103CB00007E0012010BD002084F88400204600F0B9
:103CC00027F82420C4F888002068016821F0010149
:103CD0000160A06A10B1204601F07AFB204601F095
:103CE00061FC0128E6D02068416821F490414160E0
:103CF0002068816821F02A0181602068016841F014
:103D0000010101602046BDE8104001F0C5BB000084
:103D1000F0B597B00646142111A8FCF744FB4421E6
:103D20006846FCF740FB3149306888425BD1022588
:103D30000024684600950294FEF764FC08B1FCF785
:103D4000E9FC2B48816D41F400318165816D01F4FE
:103D500000311691C16C41F00201C164C06CCDE923
:103D6000125400F002001690182011900720CDE99F
:103D7000144011A91F48FDF7AFFF204D1E488027B2
:103D800028601A20C5E90104C5E903476C61AC61EC
:103D9000EC6128462C62FDF703FF08B1FCF7BAFC82
:103DA000C6F88050AE62154D134860351430286057
:103DB0001B20686005F10801102081E891006C610A
:103DC000AC61EC6128462C62FDF7EAFE08B1FCF715
:103DD000A1FCF567002203212620AE62FEF77AFBE4
:103DE0002620FEF769FB17B0F0BD0000004400403C
:103DF000001002400004004844000240A0030020DC
:103E00007047FEE70549064A0968B1FBF2F14143F4
:103E10000A20B1FBF0F0401EFDD2704710000020D8
:103E200040420F0001688A69D243920701D4002200
:103E30008A6200688169C943C90703D0816941F07A
:103E400001018161704700002DE9F04704460068D8
:103E500089460026816935461746C9064FF0200875
:103E600041D51021C1612FE0B9F1FF3F2CD0FEF701
:103E70005BF8C11B494502D8B9F1000F24D1206875
:103E8000416894F8422001F480418369DB431B04BC
:103E900015D4B1F5804F12D0202A10D0416841F4DA
:103EA00080414160FEF740F8074608E0FEF73CF825
:103EB000C01B192803D945F02005012604E020681D
:103EC0008069C0438006F1D420688069C0438006C1
:103ED00002D5002EC8D003E016B92168C1F81C80B5
:103EE00045F00405012621688869C20505D54FF40F
:103EF000807245F00105CA610126410509D5226895
:103F00004FF4806145F00805D1610126800502D497
:103F10000AE0800507D521684FF4007045F00205DE
:103F2000C861012600E086B12046FFF77BFF54F808
:103F3000240B4168064A11404160206A28432062F0
:103F400084F81D800020A07720773046BDE8F087F8
:103F500000E800FE10B5C1F3090141EA0241026820
:103F6000029C19432143506821F000414FF48063C3
:103F700003EA5453024C234398430843506010BD56
:103F8000FF63FF032DE9F0411D4617460E46044628
:103F9000DDF8188027E0424629462046FFF754FF07
:103FA00010B10120BDE8F081681C1CD0FDF7BCFFFA
:103FB000A0EB0800A84200D8ADB92068806936EAB5
:103FC00000000ED00020B8420DD154F8440F40F04C
:103FD000200044F80409202060700020A0702070A8
:103FE000DFE70120EFE72068806936EA000004D0AF
:103FF0000020B842CFD00020D4E70120F9E700002C
:104000002DE9F04700259146884604462E46202794
:104010003DE04A4641462046FFF716FF00B1012524
:1040200020688169C943890619D4C5B98169816944
:10403000C943C90612D41021C161042060642068FC
:10404000C76120684168174A1140416084F8417097
:1040500084F8426084F84060012500E06664FDF762
:1040600063FFA0EB0901414502D8B8F1000F0ED162
:104070006DB920688069C043400708D5606C40F086
:104080002000606484F8417084F840600125206855
:104090008069C043400701D5002DBAD02846BDE84D
:1040A000F087000000E800FE70B516460D46044695
:1040B0001EE0324629462046FFF7C6FE08B1012021
:1040C00070BDFDF731FF801BA84200D885B920687C
:1040D0008069C04380060BD554F8440F40F020009F
:1040E00044F80409202060700020A0702070E6E7EA
:1040F00020688069C0438006DBD4002070BD70B5A5
:1041000016460D46044620E0324629462046FFF773
:104110009BFE08B1012070BD681C16D0FDF704FF9E
:10412000801BA84200D885B920688069C0438007F9
:104130000BD554F8440F40F0200044F80409202027
:1041400060700020A0702070E4E720688069C043A0
:104150008007D9D4002070BD00EB8100006E00F014
:10416000F840704700EB8100006E00F0F8407047A7
:104170008068C0F3C00070478068C0F3C00070471B
:104180008068C0F3800070478068C0F3800070478B
:10419000C06810F4406F01D00020704701207047C4
:1041A000042303EAD15310B518444369C1F3045101
:1041B00007248C40A3438A401343436110BD04236A
:1041C00003EAD15310B518444369C1F304510724DD
:1041D0008C40A3438A401343436110BD00EB810030
:1041E000016E21F0004111430166704700EB810030
:1041F000016E21F0004111430166704740210148E2
:10420000FDF784BE0004004870B592B000240F94FE
:1042100010943C2168461194FCF7C5F829484FF0EA
:10422000A041012501604FF44031C0E9011400F1C3
:1042300010010426C46081E87000047744770562A9
:1042400080F8244080F83840C46380F84040FDF78F
:10425000B7F908B1FCF75EFA0FA91A480F94FCF7FA
:10426000F9FD08B1FCF756FA174800900920CDE98E
:1042700001057F200594CDE90306022008908420E3
:104280000A908DF8244080208DF825400B908DF801
:1042900026408DF8304069460A48FCF789FA08B193
:1042A000FCF738FA0948009040F20F100190694677
:1042B0000448FCF77DFA002801D0FCF72BFA12B075
:1042C00070BD000028000020020030040800900C9F
:1042D00030B589B020216846FCF765F81A481949BD
:1042E000002401604FF44031C0E90114C46004258A
:1042F0000461C0E90545047701214177016280F836
:104300002440C462046380F83810C46380F84040DD
:10431000FDF756F908B1FCF7FDF90C4800900620AE
:104320000190022002907F200594CDE903056946A3
:104330000548FCF7FBFD002801D0FCF7EBF909B0BC
:1043400030BD000000010050940000202000F01457
:104350001D4808B5816C41F004018164816C01F055
:1043600004010091816C41F001018164806C0022A4
:1043700000F00100009011460B20FEF7ABF80B2077
:10438000FEF79AF8002211460C20FEF7A3F80C2045
:10439000FEF792F8002211460D20FEF79BF80D2043
:1043A000FEF78AF8002211460E20FEF793F80E2041
:1043B000FEF782F8002211460F20FEF78BF8BDE8C9
:1043C00008400F20FEF778B80010024070B586B0A4
:1043D00014216846FBF7E7FF2948C16C41F004014E
:1043E000C164C16C01F004010591C16C41F0200170
:1043F000C164C16C01F020010591C16C41F0010163
:10440000C164C16C01F001010591C16C41F0020170
:10441000C164C06C1B4E00F00200059000224321D5
:104420003046FDF77BFDF020009002200024CDE90E
:1044300001040520CDE9034069464FF09040FDF7A7
:104440004BFC03200090112001250394CDE90105C8
:1044500069463046FDF740FC4FF440608DE831007E
:1044600069463046FDF738FC40200090CDE9015404
:10447000694630460394FDF72FFC06B070BD00007E
:104480000010024000040048134810B511490160B3
:104490001249416000210122C0E90212016141611B
:1044A0008161C1610162FDF799FD08B1FCF732F944
:1044B00000210948FDF73EFD08B1FCF72BF900216A
:1044C0000548FDF762FD002803D0BDE81040FCF769
:1044D00021B910BD0054004060010020C285B240E7
:1044E00030B59BB0002419941A941794189414941E
:1044F00015941C2168461694FBF755FF342107A834
:10450000FBF751FF3B483A49C0E900142021816084
:1045100041F29901C0E903140121C0E90514FEF735
:1045200014FE08B1FCF7F6F84FF48050179017A965
:104530003048FEF79FFE08B1FCF7ECF82D48FFF776
:10454000C8F808B1FCF7E6F87025CDE9145414A9B1
:1045500028481694FEF74EFD08B1FCF7DBF8602002
:10456000CDE9000402940394049405940022694662
:1045700020480694FFF71BF808B1FCF7CBF804229B
:1045800069461C48FFF713F808B1FCF7C3F8082286
:1045900069461848FFF70BF808B1FCF7BBF805208F
:1045A000CDE900500C2269461248FFF700F808B127
:1045B000FCF7B0F8079419200894CDE909404FF4AE
:1045C0000050CDE90B400D9400030E94CDE90F404F
:1045D0001194129407A907481394FEF7B9FC08B187
:1045E000FCF798F80348FEF797FF1BB030BD0000BA
:1045F000002C01407402002010B588B00024174838
:104600000094019402940394049405944FF0804123
:1046100006940160A921C0E9011440F2E731C0E924
:1046200003148461FEF791FD08B1FCF773F84FF4B1
:104630008050009069460948FEF71CFE08B1FCF75F
:1046400069F8049404A905480694FEF7D3FC0028F1
:1046500001D0FCF75FF808B010BD0000C0020020D8
:10466000184810B5164901604FF4612141600021DE
:1046700081600C22C160C0E904128161C1610162E4
:1046800041628162FFF70EFB08B1FCF743F800219D
:104690000C48FFF74FF908B1FCF73CF80021094836
:1046A000FFF722F908B1FCF735F80648FFF7FBF8E9
:1046B000002803D0BDE81040FCF72CB810BD000066
:1046C000004400400C030020FEE7000070EE200ACA
:1046D000F0EE001AB0EE401AF1EE600A00EEA11AF8
:1046E000DFED020A61EE200A704700003ACD133F69
:1046F00072B6034B0ECB62B680E80E007047000026
:104700007404002010B521489FED1F0A00212DEDF3
:10471000048BBAEE082AF2EE081A80ED000A9FED2B
:104720001C0ADFED1C8A80ED010AC0ED028AB3EE9F
:10473000040A80ED030A9FED180A9FED188A80EDA8
:10474000040A8182C1829FED169A80ED068A80ED6F
:10475000078AB0EE481AF0EE680AB0EE490A303027
:1047600000F03EFBB0EE481AF0EE680AB0EE490ADF
:10477000BDEC048BBAEE082AF2EE081A0348BDE835
:104780001040583000F02CBB3333534060040020FD
:104790003333D33F0AD7233C00F07F4500000000AD
:1047A000CDCCCC3DB0EE402A20EE210A00EEC10A6D
:1047B00022EE011A00EEA11AF0EE410A7047B0EEA7
:1047C000402A22EE210A00EE810A60EEA10A42EEA2
:1047D000410A704700EE100A0B49B8EE400AD1EDCD
:1047E000000A91ED041A60EE800A80EE810AD1ED94
:1047F000010A91ED031A70EE600A91ED020A20EEB3
:10480000011A80EE810A70476004002070B50D46E1
:104810002DED028B0646FFF7DDFFB0EE408A2846FD
:10482000FFF7D8FF1E4CF0EE400AB0EE480AA68211
:10483000E58284ED068AC4ED070AFFF747FF84EDA1
:10484000080AC4ED090AD4ED231A94ED221AFFF7E1
:10485000B6FF84ED0A0AC4ED0B0A84ED100AC4ED1C
:104860001A0A94ED200A04F1300084ED0F0A94ED49
:10487000210A84ED190A00F06BFA04F1580000F0E7
:1048800067FA94ED110AD4ED1B0AD4ED231A94EDC6
:10489000221ABDEC028BBDE87040FFF783BF000019
:1048A0006004002010B528492DED068BF0EE608ADB
:1048B00018EE900AB0EE409A9FED248A884201DDFE
:1048C000F0EE488AF5EEC08AF1EE10FA01D2DFED83
:1048D000208AB0EE490A01F013F8F0EE480ADFED45
:1048E0001DAA48EE800A39EE6A0AB0EE60AA01F00D
:1048F00007F8F0EE480A48EE800A39EE2A0AF0EE90
:10490000609A00F0FDFF08EE808AB1EE010A1248BD
:104910006AEE000A0268FCEEE00A10EE901A51639B
:1049200069EE800A0268FCEEE00A10EE901A9163CC
:1049300028EE000A0068BCEEC00A10EE101AC1632F
:10494000BDEC068B10BD00000000FA430000FA43E6
:1049500000000000910A06407402002010B52DED01
:10496000028B84B0FBF72EFE04466846FFF7C0FEBC
:10497000012121A2084600F09AF9042322460521CC
:10498000012000F047F91EA20121022000F08FF95A
:104990009DED010A9FED1B8A0523042120EE080AE4
:1049A0000220BDEEC00A10EE102A00F054F916A243
:1049B0000121032000F07BF99DED020A052304216B
:1049C00020EE080A0320BDEEC00A10EE102A00F007
:1049D00042F90EA20121042000F069F90D480423D8
:1049E00005214288184600F015F96420FDF762F9A8
:1049F00004B0BDEC028B10BD416E673A00000000B0
:104A000049753A0000007A4449773A00506F743A89
:104A10000000000020000020024801880248418078
:104A2000818070471400002020000020FEE770B550
:104A300000240021204600F0A7F80025002000F007
:104A400076F96D1CEDB2802DF8D3641CE4B2082C0D
:104A5000EFD370BD10B50A20FDF72CF9012000F04E
:104A600039F9BDE81040012000F042B970B50024CA
:104A70000646802525FA04F0304000D0012000F0E1
:104A800037F9012000F026F9002000F023F9641C1A
:104A9000E4B2082CEED3012000F01CF9BDE8704010
:104AA000002000F017B910B5012000F021F9012015
:104AB00000F010F9002000F01BF9BDE810400020C4
:104AC00000F008B910B5002000F012F9012000F044
:104AD00001F9BDE81040012000F00AB910B56420CA
:104AE000FDF7E8F8FFF7B6FFAE2000F00FF9D5208C
:104AF00000F00CF9802000F009F9A82000F006F978
:104B00003F2000F003F9D32000F000F9002000F06E
:104B1000FDF8402000F0FAF8A12000F0F7F8C820D6
:104B200000F0F4F8DA2000F0F1F8122000F0EEF8CE
:104B3000812000F0EBF8CF2000F0E8F8D92000F059
:104B4000E5F8F12000F0E2F8DB2000F0DFF830209B
:104B500000F0DCF8A42000F0D9F8A62000F0D6F888
:104B60008D2000F0D3F8142000F0D0F8AF2000F032
:104B7000CDF8BDE81040FFF75ABF0246012000E023
:104B80005043491EFCD2704710B50C4640F0B000AF
:104B900000F0BCF8102040EA141000F0B7F804F060
:104BA0000F00BDE8104000F0B1B800002DE9F04161
:104BB0000746CE004000083E801E15464FF0FF38E5
:104BC000F1B2C0B2FFF7E0FF1148002400EB051579
:104BD0002819A0F5805090F8000E00F0A8F8641C89
:104BE000E4B2082CF4D308EB4700F1B2C0B2FFF7EF
:104BF000CBFF00242819A0F5805090F8080E00F093
:104C000096F8641CE4B2082CF4D3BDE8F0810000EF
:104C1000345D00082DE9F04700241D4616468846FD
:104C200081460A2713E0291B0A20491EFFF7A5FF2A
:104C3000B6FBF0F0B0FBF7F107FB110208EB040044
:104C4000C1B248463032FFF7B1FF641CE4B2AC4257
:104C5000E9D3BDE8F0872DE9F0471E4614008846E9
:104C6000814604D42B22FFF7A1FF254603E02D2225
:104C7000FFF79CFF654200240A2714E0311B0A203D
:104C8000491EFFF77AFFB5FBF0F0B0FBF7F107FB29
:104C9000110208EB0400401CC1B248463032FFF755
:104CA00085FF641CE4B2B442E8D3BDE8F0872DE987
:104CB000F04115460E460746002406E03019C1B201
:104CC0003846FFF773FF641CE4B22A5D002AF5D171
:104CD000BDE8F08110B5024602210448FDF71EF937
:104CE000BDE810400620FFF78DB800000004004822
:104CF00010B5024601210448FDF710F9BDE8104047
:104D00000620FFF77FB800000004004810B50446F5
:104D1000FFF7C9FE7820FFF7A9FE0020FFF7A6FEE7
:104D20002046FFF7A3FEBDE81040FFF7CBBE10B54D
:104D30000446FFF7B8FE7820FFF798FE4020FFF703
:104D400095FE2046FFF792FEBDE81040FFF7BABE81
:104D5000002844D090ED030AD0ED040A90ED061A25
:104D600030EE600AD0ED000A20EE802AD0ED010A74
:104D700000EE801A80ED061AD0ED080AB4EEE01AB3
:104D8000F1EE10FA02DDC0ED060A08E0D0ED091AD6
:104D9000B4EEE11AF1EE10FA01D2C0ED061A90ED70
:104DA000071AD0ED021A80ED070A30EE411A90ED95
:104DB000060A21EE811A30EE020A30EE010AF4EE04
:104DC000C00AF1EE10FA06D3D0ED090AF4EEC00ADB
:104DD000F1EE10FA01DDB0EE600A80ED050A7047D1
:104DE000002811D0C0ED081A80ED092A80EC030AD2
:104DF0009FED060A80ED030A80ED040A80ED050AA6
:104E000080ED060A80ED070A7047000000000000F0
:104E100070477047FDF7FEBA00B593B03821684679
:104E2000FBF7C1FA14210EA8FBF7BDFA0020FDF72D
:104E300083FB0220C1010391402104910421CDE9AB
:104E4000080100905521CDE90A1007900C900D90B3
:104E50006846FDF763FE08B172B6FEE70F200E90BC
:104E600003200F90002010901190129004210EA8A2
:104E7000FDF70CFD002801D072B6FEE713B000BDAF
:104E80000248016841F470010160704788ED00E05C
:104E90000148FEF770BA0000C00200202DE9F0437F
:104EA0000268254B254D264E264C4FF080499842EE
:104EB00007D0484505D0A84203D0B04201D0A04257
:104EC00003D122F070074A683A431F4FDFF87CC0D5
:104ED000DFF87C8098420DD048450BD0A84209D01D
:104EE000B04207D0A04205D0B84203D0604501D0FF
:104EF000404503D122F44075CA682A434D6922F027
:104F000080022A438D68C5620D688562984207D089
:104F1000A04205D0B84203D0604501D0404501D140
:104F200009690163016841F00401016001214161E7
:104F30000260BDE8F0830000002C01400004004046
:104F4000000800400034014000400140004401409E
:104F50000048014010B501F01F030121046A994087
:104F60008C430462016A9A401143016210BD10B57E
:104F700001F00F030421046A99408C430462016A22
:104F80009A401143016210BD10B5846842EA0322C1
:104F900024F47F440A432243826010BD8268034B9D
:104FA0001A400A4342F00701816070478FFFCFFF2C
:104FB0002DE9F043056A026A22F0010202624368A9
:104FC00082691E4C25F0020522400C6822F0030283
:104FD00014438A681B4E2A43194D1B4FDFF86CC0DF
:104FE000DFF86C90A84207D0B04205D0B84203D099
:104FF000604501D048450AD1D0F8208028F0040847
:10500000C0F8208022F00808CA6842EA0802A842D4
:1050100007D0B04205D0B84203D0604501D0484522
:1050200005D14D6923F440731D438B692B434360C5
:105030008461496841630262BDE8F0838FFFFEFF2F
:10504000002C014000340140004001400044014078
:1050500000480140F0B5056A026A22F010020262BF
:10506000426883691A4C1C4E23400C6823F4407339
:1050700043EA042425F020038D6843EA0513154D07
:10508000A84201D0B04208D1076A27F04007076262
:10509000CF6823F0800343EA0713A8420AD0B04246
:1050A00008D00E4DA84205D00D4DA84202D00D4D9E
:1050B000A84207D14D6922F4406242EA85028D6917
:1050C00042EA850242608461496881630362F0BDFF
:1050D000FF8FFFFE002C01400034014000400140E2
:1050E0000044014000480140F0B5056A026A22F41C
:1050F000807202624268C3691A4C1C4E23400C68DD
:1051000023F003031C4325F400738D6843EA052351
:10511000154DA84201D0B04208D1076A27F4806734
:105120000762CF6823F4006343EA0723A8420AD04A
:10513000B04208D00E4DA84205D00E4DA84202D074
:105140000D4DA84207D14D6922F4405242EA0512A2
:105150008D6942EA05124260C4614968C163036215
:10516000F0BD00008FFFFEFF002C01400034014025
:10517000004001400044014000480140F0B5056A8C
:10518000026A22F4805202624268C3691A4C1C4EC1
:1051900023400C6823F4407343EA042425F40053AD
:1051A0008D6843EA0533154DA84201D0B04208D1BD
:1051B000076A27F480470762CF6823F4004343EA75
:1051C0000733A8420AD0B04208D00E4DA84205D0FD
:1051D0000D4DA84202D00D4DA84207D14D6922F4D1
:1051E000404242EA85128D6942EA85124260C461FA
:1051F000496801640362F0BDFF8FFFFE002C01408F
:10520000003401400040014000440140004801409A
:1052100030B5056A026A22F4803202624268036D88
:10522000114C23400C681C4325F400330D8943EADC
:1052300005430E4DA8420BD00D4DA84208D00D4D90
:10524000A84205D00C4DA84202D00C4DA84204D172
:105250004D6922F4803242EA0522426004654968C1
:105260008164036230BD00008FFFFEFF002C01400F
:10527000003401400040014000440140004801402A
:1052800030B5046A026A22F4801202624268036D39
:10529000114D24F400142B400D6843EA05230D89B9
:1052A00044EA05540D4DA8420BD00D4DA84208D03C
:1052B0000C4DA84205D00C4DA84202D00B4DA8427F
:1052C00004D14D6922F4802242EA852242600365BE
:1052D0004968C164046230BDFF8FFFFE002C0140AD
:1052E00000340140004001400044014000480140BA
:1052F00010B5036A046A24F0010404620E4CA04253
:105300000BD00E4CA04208D00D4CA04205D00D4C45
:10531000A04202D00C4CA04203D1046A24F0040441
:105320000462846924F0F00444EA021423F00A02BF
:105330000A438461026210BD002C01400034014028
:1053400000400140004401400048014010B5036A9C
:10535000046A24F0100404620A4CA04202D00A4CF1
:10536000A04203D1046A24F040040462846923F05B
:10537000A00324F4704444EA023243EA011182613A
:10538000016210BD002C01400034014030B5416E77
:10539000B9B1026891689268C1F342610B4B520F38
:1053A0009C5CE50003F10804A25CB5FBF2F2A0F8F6
:1053B0006A205A5C615CD200B2FBF1F1A0F868107F
:1053C00030BD0121A0F86A10F8E700000C5D00086C
:1053D00090F82810090706D501684A68836B22F403
:1053E00000421A434A6090F82810C90706D00168A5
:1053F0004A68C36A22F400321A434A6090F82810BF
:10540000890706D501684A68036B22F480321A4383
:105410004A6090F82810490706D501684A68436B2E
:1054200022F480221A434A6090F82810C90606D553
:1054300001688A68C36B22F480521A438A6090F82C
:105440002810890606D501688A68036C22F4005288
:105450001A438A6090F82810490611D501684A68F5
:10546000436C22F480121A434A60416CB1F5801FEC
:1054700006D101684A68836C22F4C0021A434A606C
:1054800090F82810090606D501684A68C06C22F415
:10549000002202434A6070472DE9F8430026044683
:1054A000C0F89060FCF740FD8046206800684FF02F
:1054B000200500076FF07E4713D5434600222904DC
:1054C0002046009700F0A8F958B1216851E8000F74
:1054D00020F0800041E80002002AF6D1C4F888508C
:1054E00021E020680068400722D5434600224FF49F
:1054F00080012046009700F08FF9C8B1216851E87B
:10550000000F20F4907041E80002002AF6D12068D4
:10551000083050E8001F21F0010140E80012002A85
:10552000F5D1C4F88C5084F884600320BDE8F8837A
:10553000C4F88850C4F88C5044F86C6F66602676C6
:105540000020F3E710B5806AFEF71CFA10BD0000DA
:1055500010B5026852E8001F21F4907142E8001370
:10556000002BF6D10E4B0268083252E8001F19409A
:1055700042E80014002CF6D1C16E012908D101685F
:1055800051E8002F22F0100241E80023002BF6D151
:105590002021C0F88C100021C166416710BD0000B9
:1055A000FEFFFFEF2DE9F0410446016880682269A3
:1055B000E3691043626900251A431043DFF82CC2E7
:1055C0000A688B4B1A4002430A6020684168E2680F
:1055D00021F44051114341602168A069614501D027
:1055E000226A10438A68834B1A4002438A6020680B
:1055F000C16A626A21F00F011143C1627E492368CA
:105600007E488B420DD1D0F8880010F0030006D000
:10561000012855D0022842D003283FD152E0012072
:105620003DE077498B420BD1D0F8880010F00C0098
:1056300035D0042833D0082840D00C282ED141E0A2
:1056400070498B420BD1D0F8880010F0300026D082
:10565000102835D0202831D030281FD132E06A49B7
:105660008B420BD1D0F8880010F0C00017D0402832
:1056700026D0802822D0C02810D123E063450DD148
:10568000D0F8880010F4406009D0B0F5806F17D0D2
:10569000B0F5006F12D0B0F5406F13D010205B4909
:1056A0005B4F00264FF4004263453BD160B10228B6
:1056B00013D004280BD0082872D10DE00220EEE7A9
:1056C0000420ECE70820EAE7FDF7CEF901E0FDF75A
:1056D000EFF9010001D17CE01146606A37F8102033
:1056E0006768B1FBF2F007EB4703834270D8B0EB79
:1056F000073F6DD8002308461946FAF7DDFD090279
:1057000041EA106102027808101871413A460023FC
:10571000FAF7D2FD3F4AA0F54071914258D821686E
:10572000C86056E0E3694FF6EF7893422CD1092820
:105730004ED2DFE800F00508114D0D4D4D4D100023
:10574000FDF792F901E0FDF7A1F9010004D140E075
:10575000FDF7AEF9F9E71146606A37F81000B1FBC2
:10576000F0F04100606801EB5001B1FBF0F0A0F1F6
:10577000100141452CD84FF6F0710140C0F34200B2
:1057800001432068C16024E0092821D2DFE800F04D
:10579000050912200E2020201100FDF765F902E016
:1057A00016E0FDF773F9010004D112E0FDF780F96E
:1057B000F9E71146606A37F81000B1FBF0F1606854
:1057C00001EB5001B1FBF0F0A0F1100141450AD905
:1057D00001250120A4F86A0024F8680F2846E66035
:1057E0002661BDE8F08180B299E7000000800040AA
:1057F000F369FFCFFFF4FF110038014000100240B1
:105800000044004000480040004C00400024F400E8
:10581000F45C0008FFFC0F002DE9F047994617469D
:105820000D4604464FF00008089E33E0701C31D04E
:10583000FCF77AFBA0EB0900B04218D8BEB1206893
:105840000168490726D5802D24D0402D22D0C1697A
:10585000C94309070DD4082505622046FFF778FEE5
:10586000C4F8905084F884800120BDE8F0870320BC
:10587000FBE7C069C04300050CD421684FF4006009
:1058800008622046FFF764FE2020C4F8900084F8E8
:105890008480ECE72068C06935EA000004D000206D
:1058A000B842C3D00020E0E70120F9E70148FEF745
:1058B0006BB800000C030020FEE74100080218BF8F
:1058C00004200A0E18BF40F001004FF07F4232EA78
:1058D000010108BF40F00200012808BF0520704701
:1058E0000907090E002804DB00F1E02080F800140D
:1058F000704700F00F0000F1E02080F8141D7047A1
:1059000000B510EE101A2DED028B81B0524A684698
:10591000B2EB410F2ED94FF0E640B0EB410F94BFF0
:1059200000204FF0FF3000900098B0EE408A002831
:105930006ADB10F0010F4BD068EE080A9FED471AA2
:105940009FED470A00EE810A9FED461A10F0020F04
:1059500000EE801AB7EE000A00EE810A02BF01B025
:10596000BDEC028B00BD00BF01B0B1EE400ABDEC42
:10597000028B00BD3C4B21F00042934241D911F013
:10598000004FDFED3A0A20EE201ADFED390A19BF89
:1059900031EE601A71EE200A31EE201A71EE600AC3
:1059A000BDEEE01A11EE100A9FED321A00F003006E
:1059B00000EEC10A9FED301A009000EEC10A9FED83
:1059C0002F1A00EEC10A9FED2E1A00EEC10AABE7B6
:1059D00028EE080A9FED2B1ADFED2B0A10F0020FBC
:1059E00040EE410A9FED291A00EE201A61EE000AEE
:1059F000B0EE480A08EE200AB6D101B0BDEC028B29
:105A000000BD00F059F88FE718EE100A4000B0F121
:105A10007F4F0DD218EE100AFFF74FFF042808BF82
:105A200000F042F8B0EE480A01B0BDEC028B00BDB8
:105A300009D10120FAF7E6FC01B0BDEC028B5DF85C
:105A400004EB00F029B801B0B0EE480ABDEC028BBF
:105A50005DF804EB00F01CB8B61F927EB93AB2BAFA
:105A6000CA9F2A3DDDFFFFBE490E494683F9223F0A
:105A70000000004B0000C93F00A0FD390020A23308
:105A80001A61342C336D4C39DA82083CA0AA2ABE44
:105A900030EE000A70470000DFED020A80EEA00A37
:105AA00070470000000000009FED020A20EE000A8F
:105AB00070470000000000102DE9F0014FF07F4218
:105AC000B2EB410F9FBF4FF0FF310160BDE8F00125
:105AD00070474FF0004242EA0123C1F3C752783ABF
